{
	"escrow.sol": {
		"Escrow": {
			"abi": [
				{
					"inputs": [
						{
							"internalType": "address",
							"name": "_buyer",
							"type": "address"
						},
						{
							"internalType": "address payable",
							"name": "_seller",
							"type": "address"
						},
						{
							"internalType": "uint256",
							"name": "_price",
							"type": "uint256"
						},
						{
							"internalType": "address",
							"name": "dispute1",
							"type": "address"
						},
						{
							"internalType": "address",
							"name": "dispute2",
							"type": "address"
						}
					],
					"stateMutability": "nonpayable",
					"type": "constructor"
				},
				{
					"inputs": [],
					"name": "buyer",
					"outputs": [
						{
							"internalType": "address",
							"name": "",
							"type": "address"
						}
					],
					"stateMutability": "view",
					"type": "function"
				},
				{
					"inputs": [],
					"name": "confirmDelivery",
					"outputs": [],
					"stateMutability": "payable",
					"type": "function"
				},
				{
					"inputs": [],
					"name": "currentState",
					"outputs": [
						{
							"internalType": "enum Escrow.transactionState",
							"name": "",
							"type": "uint8"
						}
					],
					"stateMutability": "view",
					"type": "function"
				},
				{
					"inputs": [],
					"name": "deposit",
					"outputs": [],
					"stateMutability": "payable",
					"type": "function"
				},
				{
					"inputs": [],
					"name": "initEscrow",
					"outputs": [],
					"stateMutability": "nonpayable",
					"type": "function"
				},
				{
					"inputs": [],
					"name": "isBuyerIn",
					"outputs": [
						{
							"internalType": "bool",
							"name": "",
							"type": "bool"
						}
					],
					"stateMutability": "view",
					"type": "function"
				},
				{
					"inputs": [],
					"name": "isSellerIn",
					"outputs": [
						{
							"internalType": "bool",
							"name": "",
							"type": "bool"
						}
					],
					"stateMutability": "view",
					"type": "function"
				},
				{
					"inputs": [],
					"name": "price",
					"outputs": [
						{
							"internalType": "uint256",
							"name": "",
							"type": "uint256"
						}
					],
					"stateMutability": "view",
					"type": "function"
				},
				{
					"inputs": [],
					"name": "returnDeposit",
					"outputs": [],
					"stateMutability": "payable",
					"type": "function"
				},
				{
					"inputs": [],
					"name": "seller",
					"outputs": [
						{
							"internalType": "address payable",
							"name": "",
							"type": "address"
						}
					],
					"stateMutability": "view",
					"type": "function"
				}
			],
			"devdoc": {
				"kind": "dev",
				"methods": {},
				"version": 1
			},
			"evm": {
				"assembly": "    /* \"escrow.sol\":60:2306  contract Escrow {... */\n  mstore(0x40, 0x80)\n    /* \"escrow.sol\":857:1111  constructor(... */\n  callvalue\n  dup1\n  iszero\n  tag_1\n  jumpi\n  0x00\n  dup1\n  revert\ntag_1:\n  pop\n  mload(0x40)\n  sub(codesize, bytecodeSize)\n  dup1\n  bytecodeSize\n  dup4\n  codecopy\n  dup2\n  dup2\n  add\n  0x40\n  mstore\n  dup2\n  add\n  swap1\n  tag_2\n  swap2\n  swap1\n  tag_3\n  jump\t// in\ntag_2:\n    /* \"escrow.sol\":1033:1039  _buyer */\n  dup5\n    /* \"escrow.sol\":1025:1030  buyer */\n  0x00\n  dup1\n    /* \"escrow.sol\":1025:1039  buyer = _buyer */\n  0x0100\n  exp\n  dup2\n  sload\n  dup2\n  0xffffffffffffffffffffffffffffffffffffffff\n  mul\n  not\n  and\n  swap1\n  dup4\n  0xffffffffffffffffffffffffffffffffffffffff\n  and\n  mul\n  or\n  swap1\n  sstore\n  pop\n    /* \"escrow.sol\":1059:1066  _seller */\n  dup4\n    /* \"escrow.sol\":1050:1056  seller */\n  0x01\n  0x00\n    /* \"escrow.sol\":1050:1066  seller = _seller */\n  0x0100\n  exp\n  dup2\n  sload\n  dup2\n  0xffffffffffffffffffffffffffffffffffffffff\n  mul\n  not\n  and\n  swap1\n  dup4\n  0xffffffffffffffffffffffffffffffffffffffff\n  and\n  mul\n  or\n  swap1\n  sstore\n  pop\n    /* \"escrow.sol\":1095:1102  1 ether */\n  0x0de0b6b3a7640000\n    /* \"escrow.sol\":1085:1091  _price */\n  dup4\n    /* \"escrow.sol\":1085:1103  _price * (1 ether) */\n  tag_6\n  swap2\n  swap1\n  tag_7\n  jump\t// in\ntag_6:\n    /* \"escrow.sol\":1077:1082  price */\n  0x03\n    /* \"escrow.sol\":1077:1103  price = _price * (1 ether) */\n  dup2\n  swap1\n  sstore\n  pop\n    /* \"escrow.sol\":857:1111  constructor(... */\n  pop\n  pop\n  pop\n  pop\n  pop\n    /* \"escrow.sol\":60:2306  contract Escrow {... */\n  jump(tag_8)\n    /* \"#utility.yul\":88:205   */\ntag_10:\n    /* \"#utility.yul\":197:198   */\n  0x00\n    /* \"#utility.yul\":194:195   */\n  dup1\n    /* \"#utility.yul\":187:199   */\n  revert\n    /* \"#utility.yul\":334:460   */\ntag_12:\n    /* \"#utility.yul\":371:378   */\n  0x00\n    /* \"#utility.yul\":411:453   */\n  0xffffffffffffffffffffffffffffffffffffffff\n    /* \"#utility.yul\":404:409   */\n  dup3\n    /* \"#utility.yul\":400:454   */\n  and\n    /* \"#utility.yul\":389:454   */\n  swap1\n  pop\n    /* \"#utility.yul\":334:460   */\n  swap2\n  swap1\n  pop\n  jump\t// out\n    /* \"#utility.yul\":466:562   */\ntag_13:\n    /* \"#utility.yul\":503:510   */\n  0x00\n    /* \"#utility.yul\":532:556   */\n  tag_29\n    /* \"#utility.yul\":550:555   */\n  dup3\n    /* \"#utility.yul\":532:556   */\n  tag_12\n  jump\t// in\ntag_29:\n    /* \"#utility.yul\":521:556   */\n  swap1\n  pop\n    /* \"#utility.yul\":466:562   */\n  swap2\n  swap1\n  pop\n  jump\t// out\n    /* \"#utility.yul\":568:690   */\ntag_14:\n    /* \"#utility.yul\":641:665   */\n  tag_31\n    /* \"#utility.yul\":659:664   */\n  dup2\n    /* \"#utility.yul\":641:665   */\n  tag_13\n  jump\t// in\ntag_31:\n    /* \"#utility.yul\":634:639   */\n  dup2\n    /* \"#utility.yul\":631:666   */\n  eq\n    /* \"#utility.yul\":621:684   */\n  tag_32\n  jumpi\n    /* \"#utility.yul\":680:681   */\n  0x00\n    /* \"#utility.yul\":677:678   */\n  dup1\n    /* \"#utility.yul\":670:682   */\n  revert\n    /* \"#utility.yul\":621:684   */\ntag_32:\n    /* \"#utility.yul\":568:690   */\n  pop\n  jump\t// out\n    /* \"#utility.yul\":696:839   */\ntag_15:\n    /* \"#utility.yul\":753:758   */\n  0x00\n    /* \"#utility.yul\":784:790   */\n  dup2\n    /* \"#utility.yul\":778:791   */\n  mload\n    /* \"#utility.yul\":769:791   */\n  swap1\n  pop\n    /* \"#utility.yul\":800:833   */\n  tag_34\n    /* \"#utility.yul\":827:832   */\n  dup2\n    /* \"#utility.yul\":800:833   */\n  tag_14\n  jump\t// in\ntag_34:\n    /* \"#utility.yul\":696:839   */\n  swap3\n  swap2\n  pop\n  pop\n  jump\t// out\n    /* \"#utility.yul\":845:949   */\ntag_16:\n    /* \"#utility.yul\":890:897   */\n  0x00\n    /* \"#utility.yul\":919:943   */\n  tag_36\n    /* \"#utility.yul\":937:942   */\n  dup3\n    /* \"#utility.yul\":919:943   */\n  tag_12\n  jump\t// in\ntag_36:\n    /* \"#utility.yul\":908:943   */\n  swap1\n  pop\n    /* \"#utility.yul\":845:949   */\n  swap2\n  swap1\n  pop\n  jump\t// out\n    /* \"#utility.yul\":955:1093   */\ntag_17:\n    /* \"#utility.yul\":1036:1068   */\n  tag_38\n    /* \"#utility.yul\":1062:1067   */\n  dup2\n    /* \"#utility.yul\":1036:1068   */\n  tag_16\n  jump\t// in\ntag_38:\n    /* \"#utility.yul\":1029:1034   */\n  dup2\n    /* \"#utility.yul\":1026:1069   */\n  eq\n    /* \"#utility.yul\":1016:1087   */\n  tag_39\n  jumpi\n    /* \"#utility.yul\":1083:1084   */\n  0x00\n    /* \"#utility.yul\":1080:1081   */\n  dup1\n    /* \"#utility.yul\":1073:1085   */\n  revert\n    /* \"#utility.yul\":1016:1087   */\ntag_39:\n    /* \"#utility.yul\":955:1093   */\n  pop\n  jump\t// out\n    /* \"#utility.yul\":1099:1258   */\ntag_18:\n    /* \"#utility.yul\":1164:1169   */\n  0x00\n    /* \"#utility.yul\":1195:1201   */\n  dup2\n    /* \"#utility.yul\":1189:1202   */\n  mload\n    /* \"#utility.yul\":1180:1202   */\n  swap1\n  pop\n    /* \"#utility.yul\":1211:1252   */\n  tag_41\n    /* \"#utility.yul\":1246:1251   */\n  dup2\n    /* \"#utility.yul\":1211:1252   */\n  tag_17\n  jump\t// in\ntag_41:\n    /* \"#utility.yul\":1099:1258   */\n  swap3\n  swap2\n  pop\n  pop\n  jump\t// out\n    /* \"#utility.yul\":1264:1341   */\ntag_19:\n    /* \"#utility.yul\":1301:1308   */\n  0x00\n    /* \"#utility.yul\":1330:1335   */\n  dup2\n    /* \"#utility.yul\":1319:1335   */\n  swap1\n  pop\n    /* \"#utility.yul\":1264:1341   */\n  swap2\n  swap1\n  pop\n  jump\t// out\n    /* \"#utility.yul\":1347:1469   */\ntag_20:\n    /* \"#utility.yul\":1420:1444   */\n  tag_44\n    /* \"#utility.yul\":1438:1443   */\n  dup2\n    /* \"#utility.yul\":1420:1444   */\n  tag_19\n  jump\t// in\ntag_44:\n    /* \"#utility.yul\":1413:1418   */\n  dup2\n    /* \"#utility.yul\":1410:1445   */\n  eq\n    /* \"#utility.yul\":1400:1463   */\n  tag_45\n  jumpi\n    /* \"#utility.yul\":1459:1460   */\n  0x00\n    /* \"#utility.yul\":1456:1457   */\n  dup1\n    /* \"#utility.yul\":1449:1461   */\n  revert\n    /* \"#utility.yul\":1400:1463   */\ntag_45:\n    /* \"#utility.yul\":1347:1469   */\n  pop\n  jump\t// out\n    /* \"#utility.yul\":1475:1618   */\ntag_21:\n    /* \"#utility.yul\":1532:1537   */\n  0x00\n    /* \"#utility.yul\":1563:1569   */\n  dup2\n    /* \"#utility.yul\":1557:1570   */\n  mload\n    /* \"#utility.yul\":1548:1570   */\n  swap1\n  pop\n    /* \"#utility.yul\":1579:1612   */\n  tag_47\n    /* \"#utility.yul\":1606:1611   */\n  dup2\n    /* \"#utility.yul\":1579:1612   */\n  tag_20\n  jump\t// in\ntag_47:\n    /* \"#utility.yul\":1475:1618   */\n  swap3\n  swap2\n  pop\n  pop\n  jump\t// out\n    /* \"#utility.yul\":1624:2617   */\ntag_3:\n    /* \"#utility.yul\":1738:1744   */\n  0x00\n    /* \"#utility.yul\":1746:1752   */\n  dup1\n    /* \"#utility.yul\":1754:1760   */\n  0x00\n    /* \"#utility.yul\":1762:1768   */\n  dup1\n    /* \"#utility.yul\":1770:1776   */\n  0x00\n    /* \"#utility.yul\":1819:1822   */\n  0xa0\n    /* \"#utility.yul\":1807:1816   */\n  dup7\n    /* \"#utility.yul\":1798:1805   */\n  dup9\n    /* \"#utility.yul\":1794:1817   */\n  sub\n    /* \"#utility.yul\":1790:1823   */\n  slt\n    /* \"#utility.yul\":1787:1907   */\n  iszero\n  tag_49\n  jumpi\n    /* \"#utility.yul\":1826:1905   */\n  tag_50\n  tag_10\n  jump\t// in\ntag_50:\n    /* \"#utility.yul\":1787:1907   */\ntag_49:\n    /* \"#utility.yul\":1946:1947   */\n  0x00\n    /* \"#utility.yul\":1971:2035   */\n  tag_51\n    /* \"#utility.yul\":2027:2034   */\n  dup9\n    /* \"#utility.yul\":2018:2024   */\n  dup3\n    /* \"#utility.yul\":2007:2016   */\n  dup10\n    /* \"#utility.yul\":2003:2025   */\n  add\n    /* \"#utility.yul\":1971:2035   */\n  tag_15\n  jump\t// in\ntag_51:\n    /* \"#utility.yul\":1961:2035   */\n  swap6\n  pop\n    /* \"#utility.yul\":1917:2045   */\n  pop\n    /* \"#utility.yul\":2084:2086   */\n  0x20\n    /* \"#utility.yul\":2110:2182   */\n  tag_52\n    /* \"#utility.yul\":2174:2181   */\n  dup9\n    /* \"#utility.yul\":2165:2171   */\n  dup3\n    /* \"#utility.yul\":2154:2163   */\n  dup10\n    /* \"#utility.yul\":2150:2172   */\n  add\n    /* \"#utility.yul\":2110:2182   */\n  tag_18\n  jump\t// in\ntag_52:\n    /* \"#utility.yul\":2100:2182   */\n  swap5\n  pop\n    /* \"#utility.yul\":2055:2192   */\n  pop\n    /* \"#utility.yul\":2231:2233   */\n  0x40\n    /* \"#utility.yul\":2257:2321   */\n  tag_53\n    /* \"#utility.yul\":2313:2320   */\n  dup9\n    /* \"#utility.yul\":2304:2310   */\n  dup3\n    /* \"#utility.yul\":2293:2302   */\n  dup10\n    /* \"#utility.yul\":2289:2311   */\n  add\n    /* \"#utility.yul\":2257:2321   */\n  tag_21\n  jump\t// in\ntag_53:\n    /* \"#utility.yul\":2247:2321   */\n  swap4\n  pop\n    /* \"#utility.yul\":2202:2331   */\n  pop\n    /* \"#utility.yul\":2370:2372   */\n  0x60\n    /* \"#utility.yul\":2396:2460   */\n  tag_54\n    /* \"#utility.yul\":2452:2459   */\n  dup9\n    /* \"#utility.yul\":2443:2449   */\n  dup3\n    /* \"#utility.yul\":2432:2441   */\n  dup10\n    /* \"#utility.yul\":2428:2450   */\n  add\n    /* \"#utility.yul\":2396:2460   */\n  tag_15\n  jump\t// in\ntag_54:\n    /* \"#utility.yul\":2386:2460   */\n  swap3\n  pop\n    /* \"#utility.yul\":2341:2470   */\n  pop\n    /* \"#utility.yul\":2509:2512   */\n  0x80\n    /* \"#utility.yul\":2536:2600   */\n  tag_55\n    /* \"#utility.yul\":2592:2599   */\n  dup9\n    /* \"#utility.yul\":2583:2589   */\n  dup3\n    /* \"#utility.yul\":2572:2581   */\n  dup10\n    /* \"#utility.yul\":2568:2590   */\n  add\n    /* \"#utility.yul\":2536:2600   */\n  tag_15\n  jump\t// in\ntag_55:\n    /* \"#utility.yul\":2526:2600   */\n  swap2\n  pop\n    /* \"#utility.yul\":2480:2610   */\n  pop\n    /* \"#utility.yul\":1624:2617   */\n  swap3\n  swap6\n  pop\n  swap3\n  swap6\n  swap1\n  swap4\n  pop\n  jump\t// out\n    /* \"#utility.yul\":2623:2803   */\ntag_22:\n    /* \"#utility.yul\":2671:2748   */\n  0x4e487b7100000000000000000000000000000000000000000000000000000000\n    /* \"#utility.yul\":2668:2669   */\n  0x00\n    /* \"#utility.yul\":2661:2749   */\n  mstore\n    /* \"#utility.yul\":2768:2772   */\n  0x11\n    /* \"#utility.yul\":2765:2766   */\n  0x04\n    /* \"#utility.yul\":2758:2773   */\n  mstore\n    /* \"#utility.yul\":2792:2796   */\n  0x24\n    /* \"#utility.yul\":2789:2790   */\n  0x00\n    /* \"#utility.yul\":2782:2797   */\n  revert\n    /* \"#utility.yul\":2809:3157   */\ntag_7:\n    /* \"#utility.yul\":2849:2856   */\n  0x00\n    /* \"#utility.yul\":2872:2892   */\n  tag_58\n    /* \"#utility.yul\":2890:2891   */\n  dup3\n    /* \"#utility.yul\":2872:2892   */\n  tag_19\n  jump\t// in\ntag_58:\n    /* \"#utility.yul\":2867:2892   */\n  swap2\n  pop\n    /* \"#utility.yul\":2906:2926   */\n  tag_59\n    /* \"#utility.yul\":2924:2925   */\n  dup4\n    /* \"#utility.yul\":2906:2926   */\n  tag_19\n  jump\t// in\ntag_59:\n    /* \"#utility.yul\":2901:2926   */\n  swap3\n  pop\n    /* \"#utility.yul\":3094:3095   */\n  dup2\n    /* \"#utility.yul\":3026:3092   */\n  0xffffffffffffffffffffffffffffffffffffffffffffffffffffffffffffffff\n    /* \"#utility.yul\":3022:3096   */\n  div\n    /* \"#utility.yul\":3019:3020   */\n  dup4\n    /* \"#utility.yul\":3016:3097   */\n  gt\n    /* \"#utility.yul\":3011:3012   */\n  dup3\n    /* \"#utility.yul\":3004:3013   */\n  iszero\n    /* \"#utility.yul\":2997:3014   */\n  iszero\n    /* \"#utility.yul\":2993:3098   */\n  and\n    /* \"#utility.yul\":2990:3121   */\n  iszero\n  tag_60\n  jumpi\n    /* \"#utility.yul\":3101:3119   */\n  tag_61\n  tag_22\n  jump\t// in\ntag_61:\n    /* \"#utility.yul\":2990:3121   */\ntag_60:\n    /* \"#utility.yul\":3149:3150   */\n  dup3\n    /* \"#utility.yul\":3146:3147   */\n  dup3\n    /* \"#utility.yul\":3142:3151   */\n  mul\n    /* \"#utility.yul\":3131:3151   */\n  swap1\n  pop\n    /* \"#utility.yul\":2809:3157   */\n  swap3\n  swap2\n  pop\n  pop\n  jump\t// out\n    /* \"escrow.sol\":60:2306  contract Escrow {... */\ntag_8:\n  dataSize(sub_0)\n  dup1\n  dataOffset(sub_0)\n  0x00\n  codecopy\n  0x00\n  return\nstop\n\nsub_0: assembly {\n        /* \"escrow.sol\":60:2306  contract Escrow {... */\n      mstore(0x40, 0x80)\n      jumpi(tag_1, lt(calldatasize, 0x04))\n      shr(0xe0, calldataload(0x00))\n      dup1\n      0x7e88f603\n      gt\n      tag_12\n      jumpi\n      dup1\n      0x7e88f603\n      eq\n      tag_7\n      jumpi\n      dup1\n      0x9b3bcb33\n      eq\n      tag_8\n      jumpi\n      dup1\n      0xa035b1fe\n      eq\n      tag_9\n      jumpi\n      dup1\n      0xc4bce180\n      eq\n      tag_10\n      jumpi\n      dup1\n      0xd0e30db0\n      eq\n      tag_11\n      jumpi\n      jump(tag_1)\n    tag_12:\n      dup1\n      0x08551a53\n      eq\n      tag_2\n      jumpi\n      dup1\n      0x0c3f6acf\n      eq\n      tag_3\n      jumpi\n      dup1\n      0x5e10177b\n      eq\n      tag_4\n      jumpi\n      dup1\n      0x6ce27b8e\n      eq\n      tag_5\n      jumpi\n      dup1\n      0x7150d8ae\n      eq\n      tag_6\n      jumpi\n    tag_1:\n      0x00\n      dup1\n      revert\n        /* \"escrow.sol\":127:156  address payable public seller */\n    tag_2:\n      callvalue\n      dup1\n      iszero\n      tag_13\n      jumpi\n      0x00\n      dup1\n      revert\n    tag_13:\n      pop\n      tag_14\n      tag_15\n      jump\t// in\n    tag_14:\n      mload(0x40)\n      tag_16\n      swap2\n      swap1\n      tag_17\n      jump\t// in\n    tag_16:\n      mload(0x40)\n      dup1\n      swap2\n      sub\n      swap1\n      return\n        /* \"escrow.sol\":353:389  transactionState public currentState */\n    tag_3:\n      callvalue\n      dup1\n      iszero\n      tag_18\n      jumpi\n      0x00\n      dup1\n      revert\n    tag_18:\n      pop\n      tag_19\n      tag_20\n      jump\t// in\n    tag_19:\n      mload(0x40)\n      tag_21\n      swap2\n      swap1\n      tag_22\n      jump\t// in\n    tag_21:\n      mload(0x40)\n      dup1\n      swap2\n      sub\n      swap1\n      return\n        /* \"escrow.sol\":1722:2000  function confirmDelivery() public payable buyerOnly {... */\n    tag_4:\n      tag_23\n      tag_24\n      jump\t// in\n    tag_23:\n      stop\n        /* \"escrow.sol\":1138:1461  function initEscrow() public escrowNotInit {... */\n    tag_5:\n      callvalue\n      dup1\n      iszero\n      tag_25\n      jumpi\n      0x00\n      dup1\n      revert\n    tag_25:\n      pop\n      tag_26\n      tag_27\n      jump\t// in\n    tag_26:\n      stop\n        /* \"escrow.sol\":100:120  address public buyer */\n    tag_6:\n      callvalue\n      dup1\n      iszero\n      tag_28\n      jumpi\n      0x00\n      dup1\n      revert\n    tag_28:\n      pop\n      tag_29\n      tag_30\n      jump\t// in\n    tag_29:\n      mload(0x40)\n      tag_31\n      swap2\n      swap1\n      tag_32\n      jump\t// in\n    tag_31:\n      mload(0x40)\n      dup1\n      swap2\n      sub\n      swap1\n      return\n        /* \"escrow.sol\":2008:2303  function returnDeposit() public payable buyerOnly {... */\n    tag_7:\n      tag_33\n      tag_34\n      jump\t// in\n    tag_33:\n      stop\n        /* \"escrow.sol\":424:446  bool public isSellerIn */\n    tag_8:\n      callvalue\n      dup1\n      iszero\n      tag_35\n      jumpi\n      0x00\n      dup1\n      revert\n    tag_35:\n      pop\n      tag_36\n      tag_37\n      jump\t// in\n    tag_36:\n      mload(0x40)\n      tag_38\n      swap2\n      swap1\n      tag_39\n      jump\t// in\n    tag_38:\n      mload(0x40)\n      dup1\n      swap2\n      sub\n      swap1\n      return\n        /* \"escrow.sol\":193:213  uint256 public price */\n    tag_9:\n      callvalue\n      dup1\n      iszero\n      tag_40\n      jumpi\n      0x00\n      dup1\n      revert\n    tag_40:\n      pop\n      tag_41\n      tag_42\n      jump\t// in\n    tag_41:\n      mload(0x40)\n      tag_43\n      swap2\n      swap1\n      tag_44\n      jump\t// in\n    tag_43:\n      mload(0x40)\n      dup1\n      swap2\n      sub\n      swap1\n      return\n        /* \"escrow.sol\":396:417  bool public isBuyerIn */\n    tag_10:\n      callvalue\n      dup1\n      iszero\n      tag_45\n      jumpi\n      0x00\n      dup1\n      revert\n    tag_45:\n      pop\n      tag_46\n      tag_47\n      jump\t// in\n    tag_46:\n      mload(0x40)\n      tag_48\n      swap2\n      swap1\n      tag_39\n      jump\t// in\n    tag_48:\n      mload(0x40)\n      dup1\n      swap2\n      sub\n      swap1\n      return\n        /* \"escrow.sol\":1469:1714  function deposit() public payable buyerOnly {... */\n    tag_11:\n      tag_49\n      tag_50\n      jump\t// in\n    tag_49:\n      stop\n        /* \"escrow.sol\":127:156  address payable public seller */\n    tag_15:\n      0x01\n      0x00\n      swap1\n      sload\n      swap1\n      0x0100\n      exp\n      swap1\n      div\n      0xffffffffffffffffffffffffffffffffffffffff\n      and\n      dup2\n      jump\t// out\n        /* \"escrow.sol\":353:389  transactionState public currentState */\n    tag_20:\n      0x04\n      0x00\n      swap1\n      sload\n      swap1\n      0x0100\n      exp\n      swap1\n      div\n      0xff\n      and\n      dup2\n      jump\t// out\n        /* \"escrow.sol\":1722:2000  function confirmDelivery() public payable buyerOnly {... */\n    tag_24:\n        /* \"escrow.sol\":528:533  buyer */\n      0x00\n      dup1\n      sload\n      swap1\n      0x0100\n      exp\n      swap1\n      div\n      0xffffffffffffffffffffffffffffffffffffffff\n      and\n        /* \"escrow.sol\":514:533  msg.sender == buyer */\n      0xffffffffffffffffffffffffffffffffffffffff\n      and\n        /* \"escrow.sol\":514:524  msg.sender */\n      caller\n        /* \"escrow.sol\":514:533  msg.sender == buyer */\n      0xffffffffffffffffffffffffffffffffffffffff\n      and\n      eq\n        /* \"escrow.sol\":506:565  require(msg.sender == buyer, \"Only buyer can call message\") */\n      tag_52\n      jumpi\n      mload(0x40)\n      0x08c379a000000000000000000000000000000000000000000000000000000000\n      dup2\n      mstore\n      0x04\n      add\n      tag_53\n      swap1\n      tag_54\n      jump\t// in\n    tag_53:\n      mload(0x40)\n      dup1\n      swap2\n      sub\n      swap1\n      revert\n    tag_52:\n        /* \"escrow.sol\":1823:1857  transactionState.AWAITING_DELIVERY */\n      0x02\n        /* \"escrow.sol\":1807:1857  currentState == transactionState.AWAITING_DELIVERY */\n      0x03\n      dup2\n      gt\n      iszero\n      tag_56\n      jumpi\n      tag_57\n      tag_58\n      jump\t// in\n    tag_57:\n    tag_56:\n        /* \"escrow.sol\":1807:1819  currentState */\n      0x04\n      0x00\n      swap1\n      sload\n      swap1\n      0x0100\n      exp\n      swap1\n      div\n      0xff\n      and\n        /* \"escrow.sol\":1807:1857  currentState == transactionState.AWAITING_DELIVERY */\n      0x03\n      dup2\n      gt\n      iszero\n      tag_59\n      jumpi\n      tag_60\n      tag_58\n      jump\t// in\n    tag_60:\n    tag_59:\n      eq\n        /* \"escrow.sol\":1785:1908  require(... */\n      tag_61\n      jumpi\n      mload(0x40)\n      0x08c379a000000000000000000000000000000000000000000000000000000000\n      dup2\n      mstore\n      0x04\n      add\n      tag_62\n      swap1\n      tag_63\n      jump\t// in\n    tag_62:\n      mload(0x40)\n      dup1\n      swap2\n      sub\n      swap1\n      revert\n    tag_61:\n        /* \"escrow.sol\":1919:1925  seller */\n      0x01\n      0x00\n      swap1\n      sload\n      swap1\n      0x0100\n      exp\n      swap1\n      div\n      0xffffffffffffffffffffffffffffffffffffffff\n      and\n        /* \"escrow.sol\":1919:1934  seller.transfer */\n      0xffffffffffffffffffffffffffffffffffffffff\n      and\n        /* \"escrow.sol\":1919:1941  seller.transfer(price) */\n      0x08fc\n        /* \"escrow.sol\":1935:1940  price */\n      sload(0x03)\n        /* \"escrow.sol\":1919:1941  seller.transfer(price) */\n      swap1\n      dup2\n      iszero\n      mul\n      swap1\n      mload(0x40)\n      0x00\n      mload(0x40)\n      dup1\n      dup4\n      sub\n      dup2\n      dup6\n      dup9\n      dup9\n      call\n      swap4\n      pop\n      pop\n      pop\n      pop\n      iszero\n      dup1\n      iszero\n      tag_65\n      jumpi\n      returndatasize\n      0x00\n      dup1\n      returndatacopy\n      revert(0x00, returndatasize)\n    tag_65:\n      pop\n        /* \"escrow.sol\":1967:1992  transactionState.COMPLETE */\n      0x03\n        /* \"escrow.sol\":1952:1964  currentState */\n      0x04\n      0x00\n        /* \"escrow.sol\":1952:1992  currentState = transactionState.COMPLETE */\n      0x0100\n      exp\n      dup2\n      sload\n      dup2\n      0xff\n      mul\n      not\n      and\n      swap1\n      dup4\n      0x03\n      dup2\n      gt\n      iszero\n      tag_66\n      jumpi\n      tag_67\n      tag_58\n      jump\t// in\n    tag_67:\n    tag_66:\n      mul\n      or\n      swap1\n      sstore\n      pop\n        /* \"escrow.sol\":1722:2000  function confirmDelivery() public payable buyerOnly {... */\n      jump\t// out\n        /* \"escrow.sol\":1138:1461  function initEscrow() public escrowNotInit {... */\n    tag_27:\n        /* \"escrow.sol\":779:809  transactionState.NOT_INITIATED */\n      0x00\n        /* \"escrow.sol\":763:809  currentState == transactionState.NOT_INITIATED */\n      0x03\n      dup2\n      gt\n      iszero\n      tag_69\n      jumpi\n      tag_70\n      tag_58\n      jump\t// in\n    tag_70:\n    tag_69:\n        /* \"escrow.sol\":763:775  currentState */\n      0x04\n      0x00\n      swap1\n      sload\n      swap1\n      0x0100\n      exp\n      swap1\n      div\n      0xff\n      and\n        /* \"escrow.sol\":763:809  currentState == transactionState.NOT_INITIATED */\n      0x03\n      dup2\n      gt\n      iszero\n      tag_71\n      jumpi\n      tag_72\n      tag_58\n      jump\t// in\n    tag_72:\n    tag_71:\n      eq\n        /* \"escrow.sol\":755:810  require(currentState == transactionState.NOT_INITIATED) */\n      tag_73\n      jumpi\n      0x00\n      dup1\n      revert\n    tag_73:\n        /* \"escrow.sol\":1210:1215  buyer */\n      0x00\n      dup1\n      sload\n      swap1\n      0x0100\n      exp\n      swap1\n      div\n      0xffffffffffffffffffffffffffffffffffffffff\n      and\n        /* \"escrow.sol\":1196:1215  msg.sender == buyer */\n      0xffffffffffffffffffffffffffffffffffffffff\n      and\n        /* \"escrow.sol\":1196:1206  msg.sender */\n      caller\n        /* \"escrow.sol\":1196:1215  msg.sender == buyer */\n      0xffffffffffffffffffffffffffffffffffffffff\n      and\n      sub\n        /* \"escrow.sol\":1192:1260  if (msg.sender == buyer) {... */\n      tag_75\n      jumpi\n        /* \"escrow.sol\":1244:1248  true */\n      0x01\n        /* \"escrow.sol\":1232:1241  isBuyerIn */\n      0x04\n      0x01\n        /* \"escrow.sol\":1232:1248  isBuyerIn = true */\n      0x0100\n      exp\n      dup2\n      sload\n      dup2\n      0xff\n      mul\n      not\n      and\n      swap1\n      dup4\n      iszero\n      iszero\n      mul\n      or\n      swap1\n      sstore\n      pop\n        /* \"escrow.sol\":1192:1260  if (msg.sender == buyer) {... */\n    tag_75:\n        /* \"escrow.sol\":1288:1294  seller */\n      0x01\n      0x00\n      swap1\n      sload\n      swap1\n      0x0100\n      exp\n      swap1\n      div\n      0xffffffffffffffffffffffffffffffffffffffff\n      and\n        /* \"escrow.sol\":1274:1294  msg.sender == seller */\n      0xffffffffffffffffffffffffffffffffffffffff\n      and\n        /* \"escrow.sol\":1274:1284  msg.sender */\n      caller\n        /* \"escrow.sol\":1274:1294  msg.sender == seller */\n      0xffffffffffffffffffffffffffffffffffffffff\n      and\n      sub\n        /* \"escrow.sol\":1270:1340  if (msg.sender == seller) {... */\n      tag_76\n      jumpi\n        /* \"escrow.sol\":1324:1328  true */\n      0x01\n        /* \"escrow.sol\":1311:1321  isSellerIn */\n      0x04\n      0x02\n        /* \"escrow.sol\":1311:1328  isSellerIn = true */\n      0x0100\n      exp\n      dup2\n      sload\n      dup2\n      0xff\n      mul\n      not\n      and\n      swap1\n      dup4\n      iszero\n      iszero\n      mul\n      or\n      swap1\n      sstore\n      pop\n        /* \"escrow.sol\":1270:1340  if (msg.sender == seller) {... */\n    tag_76:\n        /* \"escrow.sol\":1354:1363  isBuyerIn */\n      0x04\n      0x01\n      swap1\n      sload\n      swap1\n      0x0100\n      exp\n      swap1\n      div\n      0xff\n      and\n        /* \"escrow.sol\":1354:1377  isBuyerIn && isSellerIn */\n      dup1\n      iszero\n      tag_77\n      jumpi\n      pop\n        /* \"escrow.sol\":1367:1377  isSellerIn */\n      0x04\n      0x02\n      swap1\n      sload\n      swap1\n      0x0100\n      exp\n      swap1\n      div\n      0xff\n      and\n        /* \"escrow.sol\":1354:1377  isBuyerIn && isSellerIn */\n    tag_77:\n        /* \"escrow.sol\":1350:1454  if (isBuyerIn && isSellerIn) {... */\n      iszero\n      tag_78\n      jumpi\n        /* \"escrow.sol\":1409:1442  transactionState.AWAITING_PAYMENT */\n      0x01\n        /* \"escrow.sol\":1394:1406  currentState */\n      0x04\n      0x00\n        /* \"escrow.sol\":1394:1442  currentState = transactionState.AWAITING_PAYMENT */\n      0x0100\n      exp\n      dup2\n      sload\n      dup2\n      0xff\n      mul\n      not\n      and\n      swap1\n      dup4\n      0x03\n      dup2\n      gt\n      iszero\n      tag_79\n      jumpi\n      tag_80\n      tag_58\n      jump\t// in\n    tag_80:\n    tag_79:\n      mul\n      or\n      swap1\n      sstore\n      pop\n        /* \"escrow.sol\":1350:1454  if (isBuyerIn && isSellerIn) {... */\n    tag_78:\n        /* \"escrow.sol\":1138:1461  function initEscrow() public escrowNotInit {... */\n      jump\t// out\n        /* \"escrow.sol\":100:120  address public buyer */\n    tag_30:\n      0x00\n      dup1\n      sload\n      swap1\n      0x0100\n      exp\n      swap1\n      div\n      0xffffffffffffffffffffffffffffffffffffffff\n      and\n      dup2\n      jump\t// out\n        /* \"escrow.sol\":2008:2303  function returnDeposit() public payable buyerOnly {... */\n    tag_34:\n        /* \"escrow.sol\":528:533  buyer */\n      0x00\n      dup1\n      sload\n      swap1\n      0x0100\n      exp\n      swap1\n      div\n      0xffffffffffffffffffffffffffffffffffffffff\n      and\n        /* \"escrow.sol\":514:533  msg.sender == buyer */\n      0xffffffffffffffffffffffffffffffffffffffff\n      and\n        /* \"escrow.sol\":514:524  msg.sender */\n      caller\n        /* \"escrow.sol\":514:533  msg.sender == buyer */\n      0xffffffffffffffffffffffffffffffffffffffff\n      and\n      eq\n        /* \"escrow.sol\":506:565  require(msg.sender == buyer, \"Only buyer can call message\") */\n      tag_82\n      jumpi\n      mload(0x40)\n      0x08c379a000000000000000000000000000000000000000000000000000000000\n      dup2\n      mstore\n      0x04\n      add\n      tag_83\n      swap1\n      tag_54\n      jump\t// in\n    tag_83:\n      mload(0x40)\n      dup1\n      swap2\n      sub\n      swap1\n      revert\n    tag_82:\n        /* \"escrow.sol\":2107:2141  transactionState.AWAITING_DELIVERY */\n      0x02\n        /* \"escrow.sol\":2091:2141  currentState == transactionState.AWAITING_DELIVERY */\n      0x03\n      dup2\n      gt\n      iszero\n      tag_85\n      jumpi\n      tag_86\n      tag_58\n      jump\t// in\n    tag_86:\n    tag_85:\n        /* \"escrow.sol\":2091:2103  currentState */\n      0x04\n      0x00\n      swap1\n      sload\n      swap1\n      0x0100\n      exp\n      swap1\n      div\n      0xff\n      and\n        /* \"escrow.sol\":2091:2141  currentState == transactionState.AWAITING_DELIVERY */\n      0x03\n      dup2\n      gt\n      iszero\n      tag_87\n      jumpi\n      tag_88\n      tag_58\n      jump\t// in\n    tag_88:\n    tag_87:\n      eq\n        /* \"escrow.sol\":2069:2198  require(... */\n      tag_89\n      jumpi\n      mload(0x40)\n      0x08c379a000000000000000000000000000000000000000000000000000000000\n      dup2\n      mstore\n      0x04\n      add\n      tag_90\n      swap1\n      tag_91\n      jump\t// in\n    tag_90:\n      mload(0x40)\n      dup1\n      swap2\n      sub\n      swap1\n      revert\n    tag_89:\n        /* \"escrow.sol\":2217:2227  msg.sender */\n      caller\n        /* \"escrow.sol\":2209:2237  payable(msg.sender).transfer */\n      0xffffffffffffffffffffffffffffffffffffffff\n      and\n        /* \"escrow.sol\":2209:2244  payable(msg.sender).transfer(price) */\n      0x08fc\n        /* \"escrow.sol\":2238:2243  price */\n      sload(0x03)\n        /* \"escrow.sol\":2209:2244  payable(msg.sender).transfer(price) */\n      swap1\n      dup2\n      iszero\n      mul\n      swap1\n      mload(0x40)\n      0x00\n      mload(0x40)\n      dup1\n      dup4\n      sub\n      dup2\n      dup6\n      dup9\n      dup9\n      call\n      swap4\n      pop\n      pop\n      pop\n      pop\n      iszero\n      dup1\n      iszero\n      tag_93\n      jumpi\n      returndatasize\n      0x00\n      dup1\n      returndatacopy\n      revert(0x00, returndatasize)\n    tag_93:\n      pop\n        /* \"escrow.sol\":2270:2295  transactionState.COMPLETE */\n      0x03\n        /* \"escrow.sol\":2255:2267  currentState */\n      0x04\n      0x00\n        /* \"escrow.sol\":2255:2295  currentState = transactionState.COMPLETE */\n      0x0100\n      exp\n      dup2\n      sload\n      dup2\n      0xff\n      mul\n      not\n      and\n      swap1\n      dup4\n      0x03\n      dup2\n      gt\n      iszero\n      tag_94\n      jumpi\n      tag_95\n      tag_58\n      jump\t// in\n    tag_95:\n    tag_94:\n      mul\n      or\n      swap1\n      sstore\n      pop\n        /* \"escrow.sol\":2008:2303  function returnDeposit() public payable buyerOnly {... */\n      jump\t// out\n        /* \"escrow.sol\":424:446  bool public isSellerIn */\n    tag_37:\n      0x04\n      0x02\n      swap1\n      sload\n      swap1\n      0x0100\n      exp\n      swap1\n      div\n      0xff\n      and\n      dup2\n      jump\t// out\n        /* \"escrow.sol\":193:213  uint256 public price */\n    tag_42:\n      sload(0x03)\n      dup2\n      jump\t// out\n        /* \"escrow.sol\":396:417  bool public isBuyerIn */\n    tag_47:\n      0x04\n      0x01\n      swap1\n      sload\n      swap1\n      0x0100\n      exp\n      swap1\n      div\n      0xff\n      and\n      dup2\n      jump\t// out\n        /* \"escrow.sol\":1469:1714  function deposit() public payable buyerOnly {... */\n    tag_50:\n        /* \"escrow.sol\":528:533  buyer */\n      0x00\n      dup1\n      sload\n      swap1\n      0x0100\n      exp\n      swap1\n      div\n      0xffffffffffffffffffffffffffffffffffffffff\n      and\n        /* \"escrow.sol\":514:533  msg.sender == buyer */\n      0xffffffffffffffffffffffffffffffffffffffff\n      and\n        /* \"escrow.sol\":514:524  msg.sender */\n      caller\n        /* \"escrow.sol\":514:533  msg.sender == buyer */\n      0xffffffffffffffffffffffffffffffffffffffff\n      and\n      eq\n        /* \"escrow.sol\":506:565  require(msg.sender == buyer, \"Only buyer can call message\") */\n      tag_97\n      jumpi\n      mload(0x40)\n      0x08c379a000000000000000000000000000000000000000000000000000000000\n      dup2\n      mstore\n      0x04\n      add\n      tag_98\n      swap1\n      tag_54\n      jump\t// in\n    tag_98:\n      mload(0x40)\n      dup1\n      swap2\n      sub\n      swap1\n      revert\n    tag_97:\n        /* \"escrow.sol\":1548:1581  transactionState.AWAITING_PAYMENT */\n      0x01\n        /* \"escrow.sol\":1532:1581  currentState == transactionState.AWAITING_PAYMENT */\n      0x03\n      dup2\n      gt\n      iszero\n      tag_100\n      jumpi\n      tag_101\n      tag_58\n      jump\t// in\n    tag_101:\n    tag_100:\n        /* \"escrow.sol\":1532:1544  currentState */\n      0x04\n      0x00\n      swap1\n      sload\n      swap1\n      0x0100\n      exp\n      swap1\n      div\n      0xff\n      and\n        /* \"escrow.sol\":1532:1581  currentState == transactionState.AWAITING_PAYMENT */\n      0x03\n      dup2\n      gt\n      iszero\n      tag_102\n      jumpi\n      tag_103\n      tag_58\n      jump\t// in\n    tag_103:\n    tag_102:\n      eq\n        /* \"escrow.sol\":1524:1582  require(currentState == transactionState.AWAITING_PAYMENT) */\n      tag_104\n      jumpi\n      0x00\n      dup1\n      revert\n    tag_104:\n        /* \"escrow.sol\":1614:1619  price */\n      sload(0x03)\n        /* \"escrow.sol\":1601:1610  msg.value */\n      callvalue\n        /* \"escrow.sol\":1601:1619  msg.value == price */\n      eq\n        /* \"escrow.sol\":1593:1646  require(msg.value == price, \"Wrong deposited amount\") */\n      tag_105\n      jumpi\n      mload(0x40)\n      0x08c379a000000000000000000000000000000000000000000000000000000000\n      dup2\n      mstore\n      0x04\n      add\n      tag_106\n      swap1\n      tag_107\n      jump\t// in\n    tag_106:\n      mload(0x40)\n      dup1\n      swap2\n      sub\n      swap1\n      revert\n    tag_105:\n        /* \"escrow.sol\":1672:1706  transactionState.AWAITING_DELIVERY */\n      0x02\n        /* \"escrow.sol\":1657:1669  currentState */\n      0x04\n      0x00\n        /* \"escrow.sol\":1657:1706  currentState = transactionState.AWAITING_DELIVERY */\n      0x0100\n      exp\n      dup2\n      sload\n      dup2\n      0xff\n      mul\n      not\n      and\n      swap1\n      dup4\n      0x03\n      dup2\n      gt\n      iszero\n      tag_108\n      jumpi\n      tag_109\n      tag_58\n      jump\t// in\n    tag_109:\n    tag_108:\n      mul\n      or\n      swap1\n      sstore\n      pop\n        /* \"escrow.sol\":1469:1714  function deposit() public payable buyerOnly {... */\n      jump\t// out\n        /* \"#utility.yul\":7:133   */\n    tag_110:\n        /* \"#utility.yul\":44:51   */\n      0x00\n        /* \"#utility.yul\":84:126   */\n      0xffffffffffffffffffffffffffffffffffffffff\n        /* \"#utility.yul\":77:82   */\n      dup3\n        /* \"#utility.yul\":73:127   */\n      and\n        /* \"#utility.yul\":62:127   */\n      swap1\n      pop\n        /* \"#utility.yul\":7:133   */\n      swap2\n      swap1\n      pop\n      jump\t// out\n        /* \"#utility.yul\":139:243   */\n    tag_111:\n        /* \"#utility.yul\":184:191   */\n      0x00\n        /* \"#utility.yul\":213:237   */\n      tag_135\n        /* \"#utility.yul\":231:236   */\n      dup3\n        /* \"#utility.yul\":213:237   */\n      tag_110\n      jump\t// in\n    tag_135:\n        /* \"#utility.yul\":202:237   */\n      swap1\n      pop\n        /* \"#utility.yul\":139:243   */\n      swap2\n      swap1\n      pop\n      jump\t// out\n        /* \"#utility.yul\":249:391   */\n    tag_112:\n        /* \"#utility.yul\":352:384   */\n      tag_137\n        /* \"#utility.yul\":378:383   */\n      dup2\n        /* \"#utility.yul\":352:384   */\n      tag_111\n      jump\t// in\n    tag_137:\n        /* \"#utility.yul\":347:350   */\n      dup3\n        /* \"#utility.yul\":340:385   */\n      mstore\n        /* \"#utility.yul\":249:391   */\n      pop\n      pop\n      jump\t// out\n        /* \"#utility.yul\":397:651   */\n    tag_17:\n        /* \"#utility.yul\":506:510   */\n      0x00\n        /* \"#utility.yul\":544:546   */\n      0x20\n        /* \"#utility.yul\":533:542   */\n      dup3\n        /* \"#utility.yul\":529:547   */\n      add\n        /* \"#utility.yul\":521:547   */\n      swap1\n      pop\n        /* \"#utility.yul\":557:644   */\n      tag_139\n        /* \"#utility.yul\":641:642   */\n      0x00\n        /* \"#utility.yul\":630:639   */\n      dup4\n        /* \"#utility.yul\":626:643   */\n      add\n        /* \"#utility.yul\":617:623   */\n      dup5\n        /* \"#utility.yul\":557:644   */\n      tag_112\n      jump\t// in\n    tag_139:\n        /* \"#utility.yul\":397:651   */\n      swap3\n      swap2\n      pop\n      pop\n      jump\t// out\n        /* \"#utility.yul\":657:837   */\n    tag_58:\n        /* \"#utility.yul\":705:782   */\n      0x4e487b7100000000000000000000000000000000000000000000000000000000\n        /* \"#utility.yul\":702:703   */\n      0x00\n        /* \"#utility.yul\":695:783   */\n      mstore\n        /* \"#utility.yul\":802:806   */\n      0x21\n        /* \"#utility.yul\":799:800   */\n      0x04\n        /* \"#utility.yul\":792:807   */\n      mstore\n        /* \"#utility.yul\":826:830   */\n      0x24\n        /* \"#utility.yul\":823:824   */\n      0x00\n        /* \"#utility.yul\":816:831   */\n      revert\n        /* \"#utility.yul\":843:967   */\n    tag_113:\n        /* \"#utility.yul\":935:936   */\n      0x04\n        /* \"#utility.yul\":928:933   */\n      dup2\n        /* \"#utility.yul\":925:937   */\n      lt\n        /* \"#utility.yul\":915:961   */\n      tag_142\n      jumpi\n        /* \"#utility.yul\":941:959   */\n      tag_143\n      tag_58\n      jump\t// in\n    tag_143:\n        /* \"#utility.yul\":915:961   */\n    tag_142:\n        /* \"#utility.yul\":843:967   */\n      pop\n      jump\t// out\n        /* \"#utility.yul\":973:1122   */\n    tag_114:\n        /* \"#utility.yul\":1029:1036   */\n      0x00\n        /* \"#utility.yul\":1058:1063   */\n      dup2\n        /* \"#utility.yul\":1047:1063   */\n      swap1\n      pop\n        /* \"#utility.yul\":1064:1116   */\n      tag_145\n        /* \"#utility.yul\":1110:1115   */\n      dup3\n        /* \"#utility.yul\":1064:1116   */\n      tag_113\n      jump\t// in\n    tag_145:\n        /* \"#utility.yul\":973:1122   */\n      swap2\n      swap1\n      pop\n      jump\t// out\n        /* \"#utility.yul\":1128:1277   */\n    tag_115:\n        /* \"#utility.yul\":1195:1204   */\n      0x00\n        /* \"#utility.yul\":1228:1271   */\n      tag_147\n        /* \"#utility.yul\":1265:1270   */\n      dup3\n        /* \"#utility.yul\":1228:1271   */\n      tag_114\n      jump\t// in\n    tag_147:\n        /* \"#utility.yul\":1215:1271   */\n      swap1\n      pop\n        /* \"#utility.yul\":1128:1277   */\n      swap2\n      swap1\n      pop\n      jump\t// out\n        /* \"#utility.yul\":1283:1448   */\n    tag_116:\n        /* \"#utility.yul\":1387:1441   */\n      tag_149\n        /* \"#utility.yul\":1435:1440   */\n      dup2\n        /* \"#utility.yul\":1387:1441   */\n      tag_115\n      jump\t// in\n    tag_149:\n        /* \"#utility.yul\":1382:1385   */\n      dup3\n        /* \"#utility.yul\":1375:1442   */\n      mstore\n        /* \"#utility.yul\":1283:1448   */\n      pop\n      pop\n      jump\t// out\n        /* \"#utility.yul\":1454:1710   */\n    tag_22:\n        /* \"#utility.yul\":1564:1568   */\n      0x00\n        /* \"#utility.yul\":1602:1604   */\n      0x20\n        /* \"#utility.yul\":1591:1600   */\n      dup3\n        /* \"#utility.yul\":1587:1605   */\n      add\n        /* \"#utility.yul\":1579:1605   */\n      swap1\n      pop\n        /* \"#utility.yul\":1615:1703   */\n      tag_151\n        /* \"#utility.yul\":1700:1701   */\n      0x00\n        /* \"#utility.yul\":1689:1698   */\n      dup4\n        /* \"#utility.yul\":1685:1702   */\n      add\n        /* \"#utility.yul\":1676:1682   */\n      dup5\n        /* \"#utility.yul\":1615:1703   */\n      tag_116\n      jump\t// in\n    tag_151:\n        /* \"#utility.yul\":1454:1710   */\n      swap3\n      swap2\n      pop\n      pop\n      jump\t// out\n        /* \"#utility.yul\":1716:1812   */\n    tag_117:\n        /* \"#utility.yul\":1753:1760   */\n      0x00\n        /* \"#utility.yul\":1782:1806   */\n      tag_153\n        /* \"#utility.yul\":1800:1805   */\n      dup3\n        /* \"#utility.yul\":1782:1806   */\n      tag_110\n      jump\t// in\n    tag_153:\n        /* \"#utility.yul\":1771:1806   */\n      swap1\n      pop\n        /* \"#utility.yul\":1716:1812   */\n      swap2\n      swap1\n      pop\n      jump\t// out\n        /* \"#utility.yul\":1818:1936   */\n    tag_118:\n        /* \"#utility.yul\":1905:1929   */\n      tag_155\n        /* \"#utility.yul\":1923:1928   */\n      dup2\n        /* \"#utility.yul\":1905:1929   */\n      tag_117\n      jump\t// in\n    tag_155:\n        /* \"#utility.yul\":1900:1903   */\n      dup3\n        /* \"#utility.yul\":1893:1930   */\n      mstore\n        /* \"#utility.yul\":1818:1936   */\n      pop\n      pop\n      jump\t// out\n        /* \"#utility.yul\":1942:2164   */\n    tag_32:\n        /* \"#utility.yul\":2035:2039   */\n      0x00\n        /* \"#utility.yul\":2073:2075   */\n      0x20\n        /* \"#utility.yul\":2062:2071   */\n      dup3\n        /* \"#utility.yul\":2058:2076   */\n      add\n        /* \"#utility.yul\":2050:2076   */\n      swap1\n      pop\n        /* \"#utility.yul\":2086:2157   */\n      tag_157\n        /* \"#utility.yul\":2154:2155   */\n      0x00\n        /* \"#utility.yul\":2143:2152   */\n      dup4\n        /* \"#utility.yul\":2139:2156   */\n      add\n        /* \"#utility.yul\":2130:2136   */\n      dup5\n        /* \"#utility.yul\":2086:2157   */\n      tag_118\n      jump\t// in\n    tag_157:\n        /* \"#utility.yul\":1942:2164   */\n      swap3\n      swap2\n      pop\n      pop\n      jump\t// out\n        /* \"#utility.yul\":2170:2260   */\n    tag_119:\n        /* \"#utility.yul\":2204:2211   */\n      0x00\n        /* \"#utility.yul\":2247:2252   */\n      dup2\n        /* \"#utility.yul\":2240:2253   */\n      iszero\n        /* \"#utility.yul\":2233:2254   */\n      iszero\n        /* \"#utility.yul\":2222:2254   */\n      swap1\n      pop\n        /* \"#utility.yul\":2170:2260   */\n      swap2\n      swap1\n      pop\n      jump\t// out\n        /* \"#utility.yul\":2266:2375   */\n    tag_120:\n        /* \"#utility.yul\":2347:2368   */\n      tag_160\n        /* \"#utility.yul\":2362:2367   */\n      dup2\n        /* \"#utility.yul\":2347:2368   */\n      tag_119\n      jump\t// in\n    tag_160:\n        /* \"#utility.yul\":2342:2345   */\n      dup3\n        /* \"#utility.yul\":2335:2369   */\n      mstore\n        /* \"#utility.yul\":2266:2375   */\n      pop\n      pop\n      jump\t// out\n        /* \"#utility.yul\":2381:2591   */\n    tag_39:\n        /* \"#utility.yul\":2468:2472   */\n      0x00\n        /* \"#utility.yul\":2506:2508   */\n      0x20\n        /* \"#utility.yul\":2495:2504   */\n      dup3\n        /* \"#utility.yul\":2491:2509   */\n      add\n        /* \"#utility.yul\":2483:2509   */\n      swap1\n      pop\n        /* \"#utility.yul\":2519:2584   */\n      tag_162\n        /* \"#utility.yul\":2581:2582   */\n      0x00\n        /* \"#utility.yul\":2570:2579   */\n      dup4\n        /* \"#utility.yul\":2566:2583   */\n      add\n        /* \"#utility.yul\":2557:2563   */\n      dup5\n        /* \"#utility.yul\":2519:2584   */\n      tag_120\n      jump\t// in\n    tag_162:\n        /* \"#utility.yul\":2381:2591   */\n      swap3\n      swap2\n      pop\n      pop\n      jump\t// out\n        /* \"#utility.yul\":2597:2674   */\n    tag_121:\n        /* \"#utility.yul\":2634:2641   */\n      0x00\n        /* \"#utility.yul\":2663:2668   */\n      dup2\n        /* \"#utility.yul\":2652:2668   */\n      swap1\n      pop\n        /* \"#utility.yul\":2597:2674   */\n      swap2\n      swap1\n      pop\n      jump\t// out\n        /* \"#utility.yul\":2680:2798   */\n    tag_122:\n        /* \"#utility.yul\":2767:2791   */\n      tag_165\n        /* \"#utility.yul\":2785:2790   */\n      dup2\n        /* \"#utility.yul\":2767:2791   */\n      tag_121\n      jump\t// in\n    tag_165:\n        /* \"#utility.yul\":2762:2765   */\n      dup3\n        /* \"#utility.yul\":2755:2792   */\n      mstore\n        /* \"#utility.yul\":2680:2798   */\n      pop\n      pop\n      jump\t// out\n        /* \"#utility.yul\":2804:3026   */\n    tag_44:\n        /* \"#utility.yul\":2897:2901   */\n      0x00\n        /* \"#utility.yul\":2935:2937   */\n      0x20\n        /* \"#utility.yul\":2924:2933   */\n      dup3\n        /* \"#utility.yul\":2920:2938   */\n      add\n        /* \"#utility.yul\":2912:2938   */\n      swap1\n      pop\n        /* \"#utility.yul\":2948:3019   */\n      tag_167\n        /* \"#utility.yul\":3016:3017   */\n      0x00\n        /* \"#utility.yul\":3005:3014   */\n      dup4\n        /* \"#utility.yul\":3001:3018   */\n      add\n        /* \"#utility.yul\":2992:2998   */\n      dup5\n        /* \"#utility.yul\":2948:3019   */\n      tag_122\n      jump\t// in\n    tag_167:\n        /* \"#utility.yul\":2804:3026   */\n      swap3\n      swap2\n      pop\n      pop\n      jump\t// out\n        /* \"#utility.yul\":3032:3201   */\n    tag_123:\n        /* \"#utility.yul\":3116:3127   */\n      0x00\n        /* \"#utility.yul\":3150:3156   */\n      dup3\n        /* \"#utility.yul\":3145:3148   */\n      dup3\n        /* \"#utility.yul\":3138:3157   */\n      mstore\n        /* \"#utility.yul\":3190:3194   */\n      0x20\n        /* \"#utility.yul\":3185:3188   */\n      dup3\n        /* \"#utility.yul\":3181:3195   */\n      add\n        /* \"#utility.yul\":3166:3195   */\n      swap1\n      pop\n        /* \"#utility.yul\":3032:3201   */\n      swap3\n      swap2\n      pop\n      pop\n      jump\t// out\n        /* \"#utility.yul\":3207:3384   */\n    tag_124:\n        /* \"#utility.yul\":3347:3376   */\n      0x4f6e6c792062757965722063616e2063616c6c206d6573736167650000000000\n        /* \"#utility.yul\":3343:3344   */\n      0x00\n        /* \"#utility.yul\":3335:3341   */\n      dup3\n        /* \"#utility.yul\":3331:3345   */\n      add\n        /* \"#utility.yul\":3324:3377   */\n      mstore\n        /* \"#utility.yul\":3207:3384   */\n      pop\n      jump\t// out\n        /* \"#utility.yul\":3390:3756   */\n    tag_125:\n        /* \"#utility.yul\":3532:3535   */\n      0x00\n        /* \"#utility.yul\":3553:3620   */\n      tag_171\n        /* \"#utility.yul\":3617:3619   */\n      0x1b\n        /* \"#utility.yul\":3612:3615   */\n      dup4\n        /* \"#utility.yul\":3553:3620   */\n      tag_123\n      jump\t// in\n    tag_171:\n        /* \"#utility.yul\":3546:3620   */\n      swap2\n      pop\n        /* \"#utility.yul\":3629:3722   */\n      tag_172\n        /* \"#utility.yul\":3718:3721   */\n      dup3\n        /* \"#utility.yul\":3629:3722   */\n      tag_124\n      jump\t// in\n    tag_172:\n        /* \"#utility.yul\":3747:3749   */\n      0x20\n        /* \"#utility.yul\":3742:3745   */\n      dup3\n        /* \"#utility.yul\":3738:3750   */\n      add\n        /* \"#utility.yul\":3731:3750   */\n      swap1\n      pop\n        /* \"#utility.yul\":3390:3756   */\n      swap2\n      swap1\n      pop\n      jump\t// out\n        /* \"#utility.yul\":3762:4181   */\n    tag_54:\n        /* \"#utility.yul\":3928:3932   */\n      0x00\n        /* \"#utility.yul\":3966:3968   */\n      0x20\n        /* \"#utility.yul\":3955:3964   */\n      dup3\n        /* \"#utility.yul\":3951:3969   */\n      add\n        /* \"#utility.yul\":3943:3969   */\n      swap1\n      pop\n        /* \"#utility.yul\":4015:4024   */\n      dup2\n        /* \"#utility.yul\":4009:4013   */\n      dup2\n        /* \"#utility.yul\":4005:4025   */\n      sub\n        /* \"#utility.yul\":4001:4002   */\n      0x00\n        /* \"#utility.yul\":3990:3999   */\n      dup4\n        /* \"#utility.yul\":3986:4003   */\n      add\n        /* \"#utility.yul\":3979:4026   */\n      mstore\n        /* \"#utility.yul\":4043:4174   */\n      tag_174\n        /* \"#utility.yul\":4169:4173   */\n      dup2\n        /* \"#utility.yul\":4043:4174   */\n      tag_125\n      jump\t// in\n    tag_174:\n        /* \"#utility.yul\":4035:4174   */\n      swap1\n      pop\n        /* \"#utility.yul\":3762:4181   */\n      swap2\n      swap1\n      pop\n      jump\t// out\n        /* \"#utility.yul\":4187:4360   */\n    tag_126:\n        /* \"#utility.yul\":4327:4352   */\n      0x43616e6e6f7420636f6e6669726d2064656c6976657279000000000000000000\n        /* \"#utility.yul\":4323:4324   */\n      0x00\n        /* \"#utility.yul\":4315:4321   */\n      dup3\n        /* \"#utility.yul\":4311:4325   */\n      add\n        /* \"#utility.yul\":4304:4353   */\n      mstore\n        /* \"#utility.yul\":4187:4360   */\n      pop\n      jump\t// out\n        /* \"#utility.yul\":4366:4732   */\n    tag_127:\n        /* \"#utility.yul\":4508:4511   */\n      0x00\n        /* \"#utility.yul\":4529:4596   */\n      tag_177\n        /* \"#utility.yul\":4593:4595   */\n      0x17\n        /* \"#utility.yul\":4588:4591   */\n      dup4\n        /* \"#utility.yul\":4529:4596   */\n      tag_123\n      jump\t// in\n    tag_177:\n        /* \"#utility.yul\":4522:4596   */\n      swap2\n      pop\n        /* \"#utility.yul\":4605:4698   */\n      tag_178\n        /* \"#utility.yul\":4694:4697   */\n      dup3\n        /* \"#utility.yul\":4605:4698   */\n      tag_126\n      jump\t// in\n    tag_178:\n        /* \"#utility.yul\":4723:4725   */\n      0x20\n        /* \"#utility.yul\":4718:4721   */\n      dup3\n        /* \"#utility.yul\":4714:4726   */\n      add\n        /* \"#utility.yul\":4707:4726   */\n      swap1\n      pop\n        /* \"#utility.yul\":4366:4732   */\n      swap2\n      swap1\n      pop\n      jump\t// out\n        /* \"#utility.yul\":4738:5157   */\n    tag_63:\n        /* \"#utility.yul\":4904:4908   */\n      0x00\n        /* \"#utility.yul\":4942:4944   */\n      0x20\n        /* \"#utility.yul\":4931:4940   */\n      dup3\n        /* \"#utility.yul\":4927:4945   */\n      add\n        /* \"#utility.yul\":4919:4945   */\n      swap1\n      pop\n        /* \"#utility.yul\":4991:5000   */\n      dup2\n        /* \"#utility.yul\":4985:4989   */\n      dup2\n        /* \"#utility.yul\":4981:5001   */\n      sub\n        /* \"#utility.yul\":4977:4978   */\n      0x00\n        /* \"#utility.yul\":4966:4975   */\n      dup4\n        /* \"#utility.yul\":4962:4979   */\n      add\n        /* \"#utility.yul\":4955:5002   */\n      mstore\n        /* \"#utility.yul\":5019:5150   */\n      tag_180\n        /* \"#utility.yul\":5145:5149   */\n      dup2\n        /* \"#utility.yul\":5019:5150   */\n      tag_127\n      jump\t// in\n    tag_180:\n        /* \"#utility.yul\":5011:5150   */\n      swap1\n      pop\n        /* \"#utility.yul\":4738:5157   */\n      swap2\n      swap1\n      pop\n      jump\t// out\n        /* \"#utility.yul\":5163:5342   */\n    tag_128:\n        /* \"#utility.yul\":5303:5334   */\n      0x43616e6e6f742077697468647261772061742074686973207374616765000000\n        /* \"#utility.yul\":5299:5300   */\n      0x00\n        /* \"#utility.yul\":5291:5297   */\n      dup3\n        /* \"#utility.yul\":5287:5301   */\n      add\n        /* \"#utility.yul\":5280:5335   */\n      mstore\n        /* \"#utility.yul\":5163:5342   */\n      pop\n      jump\t// out\n        /* \"#utility.yul\":5348:5714   */\n    tag_129:\n        /* \"#utility.yul\":5490:5493   */\n      0x00\n        /* \"#utility.yul\":5511:5578   */\n      tag_183\n        /* \"#utility.yul\":5575:5577   */\n      0x1d\n        /* \"#utility.yul\":5570:5573   */\n      dup4\n        /* \"#utility.yul\":5511:5578   */\n      tag_123\n      jump\t// in\n    tag_183:\n        /* \"#utility.yul\":5504:5578   */\n      swap2\n      pop\n        /* \"#utility.yul\":5587:5680   */\n      tag_184\n        /* \"#utility.yul\":5676:5679   */\n      dup3\n        /* \"#utility.yul\":5587:5680   */\n      tag_128\n      jump\t// in\n    tag_184:\n        /* \"#utility.yul\":5705:5707   */\n      0x20\n        /* \"#utility.yul\":5700:5703   */\n      dup3\n        /* \"#utility.yul\":5696:5708   */\n      add\n        /* \"#utility.yul\":5689:5708   */\n      swap1\n      pop\n        /* \"#utility.yul\":5348:5714   */\n      swap2\n      swap1\n      pop\n      jump\t// out\n        /* \"#utility.yul\":5720:6139   */\n    tag_91:\n        /* \"#utility.yul\":5886:5890   */\n      0x00\n        /* \"#utility.yul\":5924:5926   */\n      0x20\n        /* \"#utility.yul\":5913:5922   */\n      dup3\n        /* \"#utility.yul\":5909:5927   */\n      add\n        /* \"#utility.yul\":5901:5927   */\n      swap1\n      pop\n        /* \"#utility.yul\":5973:5982   */\n      dup2\n        /* \"#utility.yul\":5967:5971   */\n      dup2\n        /* \"#utility.yul\":5963:5983   */\n      sub\n        /* \"#utility.yul\":5959:5960   */\n      0x00\n        /* \"#utility.yul\":5948:5957   */\n      dup4\n        /* \"#utility.yul\":5944:5961   */\n      add\n        /* \"#utility.yul\":5937:5984   */\n      mstore\n        /* \"#utility.yul\":6001:6132   */\n      tag_186\n        /* \"#utility.yul\":6127:6131   */\n      dup2\n        /* \"#utility.yul\":6001:6132   */\n      tag_129\n      jump\t// in\n    tag_186:\n        /* \"#utility.yul\":5993:6132   */\n      swap1\n      pop\n        /* \"#utility.yul\":5720:6139   */\n      swap2\n      swap1\n      pop\n      jump\t// out\n        /* \"#utility.yul\":6145:6317   */\n    tag_130:\n        /* \"#utility.yul\":6285:6309   */\n      0x57726f6e67206465706f736974656420616d6f756e7400000000000000000000\n        /* \"#utility.yul\":6281:6282   */\n      0x00\n        /* \"#utility.yul\":6273:6279   */\n      dup3\n        /* \"#utility.yul\":6269:6283   */\n      add\n        /* \"#utility.yul\":6262:6310   */\n      mstore\n        /* \"#utility.yul\":6145:6317   */\n      pop\n      jump\t// out\n        /* \"#utility.yul\":6323:6689   */\n    tag_131:\n        /* \"#utility.yul\":6465:6468   */\n      0x00\n        /* \"#utility.yul\":6486:6553   */\n      tag_189\n        /* \"#utility.yul\":6550:6552   */\n      0x16\n        /* \"#utility.yul\":6545:6548   */\n      dup4\n        /* \"#utility.yul\":6486:6553   */\n      tag_123\n      jump\t// in\n    tag_189:\n        /* \"#utility.yul\":6479:6553   */\n      swap2\n      pop\n        /* \"#utility.yul\":6562:6655   */\n      tag_190\n        /* \"#utility.yul\":6651:6654   */\n      dup3\n        /* \"#utility.yul\":6562:6655   */\n      tag_130\n      jump\t// in\n    tag_190:\n        /* \"#utility.yul\":6680:6682   */\n      0x20\n        /* \"#utility.yul\":6675:6678   */\n      dup3\n        /* \"#utility.yul\":6671:6683   */\n      add\n        /* \"#utility.yul\":6664:6683   */\n      swap1\n      pop\n        /* \"#utility.yul\":6323:6689   */\n      swap2\n      swap1\n      pop\n      jump\t// out\n        /* \"#utility.yul\":6695:7114   */\n    tag_107:\n        /* \"#utility.yul\":6861:6865   */\n      0x00\n        /* \"#utility.yul\":6899:6901   */\n      0x20\n        /* \"#utility.yul\":6888:6897   */\n      dup3\n        /* \"#utility.yul\":6884:6902   */\n      add\n        /* \"#utility.yul\":6876:6902   */\n      swap1\n      pop\n        /* \"#utility.yul\":6948:6957   */\n      dup2\n        /* \"#utility.yul\":6942:6946   */\n      dup2\n        /* \"#utility.yul\":6938:6958   */\n      sub\n        /* \"#utility.yul\":6934:6935   */\n      0x00\n        /* \"#utility.yul\":6923:6932   */\n      dup4\n        /* \"#utility.yul\":6919:6936   */\n      add\n        /* \"#utility.yul\":6912:6959   */\n      mstore\n        /* \"#utility.yul\":6976:7107   */\n      tag_192\n        /* \"#utility.yul\":7102:7106   */\n      dup2\n        /* \"#utility.yul\":6976:7107   */\n      tag_131\n      jump\t// in\n    tag_192:\n        /* \"#utility.yul\":6968:7107   */\n      swap1\n      pop\n        /* \"#utility.yul\":6695:7114   */\n      swap2\n      swap1\n      pop\n      jump\t// out\n\n    auxdata: 0xa2646970667358221220ff2569783a90caf59654c099ea2467edb8d8b70cbd1698bd63e202041bf6767264736f6c634300080d0033\n}\n",
				"bytecode": {
					"linkReferences": {},
					"object": "60806040523480156200001157600080fd5b5060405162000ea238038062000ea28339818101604052810190620000379190620001c9565b846000806101000a81548173ffffffffffffffffffffffffffffffffffffffff021916908373ffffffffffffffffffffffffffffffffffffffff16021790555083600160006101000a81548173ffffffffffffffffffffffffffffffffffffffff021916908373ffffffffffffffffffffffffffffffffffffffff160217905550670de0b6b3a764000083620000ce919062000280565b6003819055505050505050620002e1565b600080fd5b600073ffffffffffffffffffffffffffffffffffffffff82169050919050565b60006200011182620000e4565b9050919050565b620001238162000104565b81146200012f57600080fd5b50565b600081519050620001438162000118565b92915050565b60006200015682620000e4565b9050919050565b620001688162000149565b81146200017457600080fd5b50565b60008151905062000188816200015d565b92915050565b6000819050919050565b620001a3816200018e565b8114620001af57600080fd5b50565b600081519050620001c38162000198565b92915050565b600080600080600060a08688031215620001e857620001e7620000df565b5b6000620001f88882890162000132565b95505060206200020b8882890162000177565b94505060406200021e88828901620001b2565b9350506060620002318882890162000132565b9250506080620002448882890162000132565b9150509295509295909350565b7f4e487b7100000000000000000000000000000000000000000000000000000000600052601160045260246000fd5b60006200028d826200018e565b91506200029a836200018e565b9250817fffffffffffffffffffffffffffffffffffffffffffffffffffffffffffffffff0483118215151615620002d657620002d562000251565b5b828202905092915050565b610bb180620002f16000396000f3fe6080604052600436106100915760003560e01c80637e88f603116100595780637e88f603146101385780639b3bcb3314610142578063a035b1fe1461016d578063c4bce18014610198578063d0e30db0146101c357610091565b806308551a53146100965780630c3f6acf146100c15780635e10177b146100ec5780636ce27b8e146100f65780637150d8ae1461010d575b600080fd5b3480156100a257600080fd5b506100ab6101cd565b6040516100b89190610867565b60405180910390f35b3480156100cd57600080fd5b506100d66101f3565b6040516100e391906108f9565b60405180910390f35b6100f4610206565b005b34801561010257600080fd5b5061010b6103a2565b005b34801561011957600080fd5b5061012261051d565b60405161012f9190610935565b60405180910390f35b610140610541565b005b34801561014e57600080fd5b506101576106bb565b604051610164919061096b565b60405180910390f35b34801561017957600080fd5b506101826106ce565b60405161018f919061099f565b60405180910390f35b3480156101a457600080fd5b506101ad6106d4565b6040516101ba919061096b565b60405180910390f35b6101cb6106e7565b005b600160009054906101000a900473ffffffffffffffffffffffffffffffffffffffff1681565b600460009054906101000a900460ff1681565b60008054906101000a900473ffffffffffffffffffffffffffffffffffffffff1673ffffffffffffffffffffffffffffffffffffffff163373ffffffffffffffffffffffffffffffffffffffff1614610294576040517f08c379a000000000000000000000000000000000000000000000000000000000815260040161028b90610a17565b60405180910390fd5b600260038111156102a8576102a7610882565b5b600460009054906101000a900460ff1660038111156102ca576102c9610882565b5b1461030a576040517f08c379a000000000000000000000000000000000000000000000000000000000815260040161030190610a83565b60405180910390fd5b600160009054906101000a900473ffffffffffffffffffffffffffffffffffffffff1673ffffffffffffffffffffffffffffffffffffffff166108fc6003549081150290604051600060405180830381858888f19350505050158015610374573d6000803e3d6000fd5b506003600460006101000a81548160ff0219169083600381111561039b5761039a610882565b5b0217905550565b600060038111156103b6576103b5610882565b5b600460009054906101000a900460ff1660038111156103d8576103d7610882565b5b146103e257600080fd5b60008054906101000a900473ffffffffffffffffffffffffffffffffffffffff1673ffffffffffffffffffffffffffffffffffffffff163373ffffffffffffffffffffffffffffffffffffffff1603610451576001600460016101000a81548160ff0219169083151502179055505b600160009054906101000a900473ffffffffffffffffffffffffffffffffffffffff1673ffffffffffffffffffffffffffffffffffffffff163373ffffffffffffffffffffffffffffffffffffffff16036104c2576001600460026101000a81548160ff0219169083151502179055505b600460019054906101000a900460ff1680156104ea5750600460029054906101000a900460ff165b1561051b576001600460006101000a81548160ff0219169083600381111561051557610514610882565b5b02179055505b565b60008054906101000a900473ffffffffffffffffffffffffffffffffffffffff1681565b60008054906101000a900473ffffffffffffffffffffffffffffffffffffffff1673ffffffffffffffffffffffffffffffffffffffff163373ffffffffffffffffffffffffffffffffffffffff16146105cf576040517f08c379a00000000000000000000000000000000000000000000000000000000081526004016105c690610a17565b60405180910390fd5b600260038111156105e3576105e2610882565b5b600460009054906101000a900460ff16600381111561060557610604610882565b5b14610645576040517f08c379a000000000000000000000000000000000000000000000000000000000815260040161063c90610aef565b60405180910390fd5b3373ffffffffffffffffffffffffffffffffffffffff166108fc6003549081150290604051600060405180830381858888f1935050505015801561068d573d6000803e3d6000fd5b506003600460006101000a81548160ff021916908360038111156106b4576106b3610882565b5b0217905550565b600460029054906101000a900460ff1681565b60035481565b600460019054906101000a900460ff1681565b60008054906101000a900473ffffffffffffffffffffffffffffffffffffffff1673ffffffffffffffffffffffffffffffffffffffff163373ffffffffffffffffffffffffffffffffffffffff1614610775576040517f08c379a000000000000000000000000000000000000000000000000000000000815260040161076c90610a17565b60405180910390fd5b6001600381111561078957610788610882565b5b600460009054906101000a900460ff1660038111156107ab576107aa610882565b5b146107b557600080fd5b60035434146107f9576040517f08c379a00000000000000000000000000000000000000000000000000000000081526004016107f090610b5b565b60405180910390fd5b6002600460006101000a81548160ff0219169083600381111561081f5761081e610882565b5b0217905550565b600073ffffffffffffffffffffffffffffffffffffffff82169050919050565b600061085182610826565b9050919050565b61086181610846565b82525050565b600060208201905061087c6000830184610858565b92915050565b7f4e487b7100000000000000000000000000000000000000000000000000000000600052602160045260246000fd5b600481106108c2576108c1610882565b5b50565b60008190506108d3826108b1565b919050565b60006108e3826108c5565b9050919050565b6108f3816108d8565b82525050565b600060208201905061090e60008301846108ea565b92915050565b600061091f82610826565b9050919050565b61092f81610914565b82525050565b600060208201905061094a6000830184610926565b92915050565b60008115159050919050565b61096581610950565b82525050565b6000602082019050610980600083018461095c565b92915050565b6000819050919050565b61099981610986565b82525050565b60006020820190506109b46000830184610990565b92915050565b600082825260208201905092915050565b7f4f6e6c792062757965722063616e2063616c6c206d6573736167650000000000600082015250565b6000610a01601b836109ba565b9150610a0c826109cb565b602082019050919050565b60006020820190508181036000830152610a30816109f4565b9050919050565b7f43616e6e6f7420636f6e6669726d2064656c6976657279000000000000000000600082015250565b6000610a6d6017836109ba565b9150610a7882610a37565b602082019050919050565b60006020820190508181036000830152610a9c81610a60565b9050919050565b7f43616e6e6f742077697468647261772061742074686973207374616765000000600082015250565b6000610ad9601d836109ba565b9150610ae482610aa3565b602082019050919050565b60006020820190508181036000830152610b0881610acc565b9050919050565b7f57726f6e67206465706f736974656420616d6f756e7400000000000000000000600082015250565b6000610b456016836109ba565b9150610b5082610b0f565b602082019050919050565b60006020820190508181036000830152610b7481610b38565b905091905056fea2646970667358221220ff2569783a90caf59654c099ea2467edb8d8b70cbd1698bd63e202041bf6767264736f6c634300080d0033",
					"opcodes": "PUSH1 0x80 PUSH1 0x40 MSTORE CALLVALUE DUP1 ISZERO PUSH3 0x11 JUMPI PUSH1 0x0 DUP1 REVERT JUMPDEST POP PUSH1 0x40 MLOAD PUSH3 0xEA2 CODESIZE SUB DUP1 PUSH3 0xEA2 DUP4 CODECOPY DUP2 DUP2 ADD PUSH1 0x40 MSTORE DUP2 ADD SWAP1 PUSH3 0x37 SWAP2 SWAP1 PUSH3 0x1C9 JUMP JUMPDEST DUP5 PUSH1 0x0 DUP1 PUSH2 0x100 EXP DUP2 SLOAD DUP2 PUSH20 0xFFFFFFFFFFFFFFFFFFFFFFFFFFFFFFFFFFFFFFFF MUL NOT AND SWAP1 DUP4 PUSH20 0xFFFFFFFFFFFFFFFFFFFFFFFFFFFFFFFFFFFFFFFF AND MUL OR SWAP1 SSTORE POP DUP4 PUSH1 0x1 PUSH1 0x0 PUSH2 0x100 EXP DUP2 SLOAD DUP2 PUSH20 0xFFFFFFFFFFFFFFFFFFFFFFFFFFFFFFFFFFFFFFFF MUL NOT AND SWAP1 DUP4 PUSH20 0xFFFFFFFFFFFFFFFFFFFFFFFFFFFFFFFFFFFFFFFF AND MUL OR SWAP1 SSTORE POP PUSH8 0xDE0B6B3A7640000 DUP4 PUSH3 0xCE SWAP2 SWAP1 PUSH3 0x280 JUMP JUMPDEST PUSH1 0x3 DUP2 SWAP1 SSTORE POP POP POP POP POP POP PUSH3 0x2E1 JUMP JUMPDEST PUSH1 0x0 DUP1 REVERT JUMPDEST PUSH1 0x0 PUSH20 0xFFFFFFFFFFFFFFFFFFFFFFFFFFFFFFFFFFFFFFFF DUP3 AND SWAP1 POP SWAP2 SWAP1 POP JUMP JUMPDEST PUSH1 0x0 PUSH3 0x111 DUP3 PUSH3 0xE4 JUMP JUMPDEST SWAP1 POP SWAP2 SWAP1 POP JUMP JUMPDEST PUSH3 0x123 DUP2 PUSH3 0x104 JUMP JUMPDEST DUP2 EQ PUSH3 0x12F JUMPI PUSH1 0x0 DUP1 REVERT JUMPDEST POP JUMP JUMPDEST PUSH1 0x0 DUP2 MLOAD SWAP1 POP PUSH3 0x143 DUP2 PUSH3 0x118 JUMP JUMPDEST SWAP3 SWAP2 POP POP JUMP JUMPDEST PUSH1 0x0 PUSH3 0x156 DUP3 PUSH3 0xE4 JUMP JUMPDEST SWAP1 POP SWAP2 SWAP1 POP JUMP JUMPDEST PUSH3 0x168 DUP2 PUSH3 0x149 JUMP JUMPDEST DUP2 EQ PUSH3 0x174 JUMPI PUSH1 0x0 DUP1 REVERT JUMPDEST POP JUMP JUMPDEST PUSH1 0x0 DUP2 MLOAD SWAP1 POP PUSH3 0x188 DUP2 PUSH3 0x15D JUMP JUMPDEST SWAP3 SWAP2 POP POP JUMP JUMPDEST PUSH1 0x0 DUP2 SWAP1 POP SWAP2 SWAP1 POP JUMP JUMPDEST PUSH3 0x1A3 DUP2 PUSH3 0x18E JUMP JUMPDEST DUP2 EQ PUSH3 0x1AF JUMPI PUSH1 0x0 DUP1 REVERT JUMPDEST POP JUMP JUMPDEST PUSH1 0x0 DUP2 MLOAD SWAP1 POP PUSH3 0x1C3 DUP2 PUSH3 0x198 JUMP JUMPDEST SWAP3 SWAP2 POP POP JUMP JUMPDEST PUSH1 0x0 DUP1 PUSH1 0x0 DUP1 PUSH1 0x0 PUSH1 0xA0 DUP7 DUP9 SUB SLT ISZERO PUSH3 0x1E8 JUMPI PUSH3 0x1E7 PUSH3 0xDF JUMP JUMPDEST JUMPDEST PUSH1 0x0 PUSH3 0x1F8 DUP9 DUP3 DUP10 ADD PUSH3 0x132 JUMP JUMPDEST SWAP6 POP POP PUSH1 0x20 PUSH3 0x20B DUP9 DUP3 DUP10 ADD PUSH3 0x177 JUMP JUMPDEST SWAP5 POP POP PUSH1 0x40 PUSH3 0x21E DUP9 DUP3 DUP10 ADD PUSH3 0x1B2 JUMP JUMPDEST SWAP4 POP POP PUSH1 0x60 PUSH3 0x231 DUP9 DUP3 DUP10 ADD PUSH3 0x132 JUMP JUMPDEST SWAP3 POP POP PUSH1 0x80 PUSH3 0x244 DUP9 DUP3 DUP10 ADD PUSH3 0x132 JUMP JUMPDEST SWAP2 POP POP SWAP3 SWAP6 POP SWAP3 SWAP6 SWAP1 SWAP4 POP JUMP JUMPDEST PUSH32 0x4E487B7100000000000000000000000000000000000000000000000000000000 PUSH1 0x0 MSTORE PUSH1 0x11 PUSH1 0x4 MSTORE PUSH1 0x24 PUSH1 0x0 REVERT JUMPDEST PUSH1 0x0 PUSH3 0x28D DUP3 PUSH3 0x18E JUMP JUMPDEST SWAP2 POP PUSH3 0x29A DUP4 PUSH3 0x18E JUMP JUMPDEST SWAP3 POP DUP2 PUSH32 0xFFFFFFFFFFFFFFFFFFFFFFFFFFFFFFFFFFFFFFFFFFFFFFFFFFFFFFFFFFFFFFFF DIV DUP4 GT DUP3 ISZERO ISZERO AND ISZERO PUSH3 0x2D6 JUMPI PUSH3 0x2D5 PUSH3 0x251 JUMP JUMPDEST JUMPDEST DUP3 DUP3 MUL SWAP1 POP SWAP3 SWAP2 POP POP JUMP JUMPDEST PUSH2 0xBB1 DUP1 PUSH3 0x2F1 PUSH1 0x0 CODECOPY PUSH1 0x0 RETURN INVALID PUSH1 0x80 PUSH1 0x40 MSTORE PUSH1 0x4 CALLDATASIZE LT PUSH2 0x91 JUMPI PUSH1 0x0 CALLDATALOAD PUSH1 0xE0 SHR DUP1 PUSH4 0x7E88F603 GT PUSH2 0x59 JUMPI DUP1 PUSH4 0x7E88F603 EQ PUSH2 0x138 JUMPI DUP1 PUSH4 0x9B3BCB33 EQ PUSH2 0x142 JUMPI DUP1 PUSH4 0xA035B1FE EQ PUSH2 0x16D JUMPI DUP1 PUSH4 0xC4BCE180 EQ PUSH2 0x198 JUMPI DUP1 PUSH4 0xD0E30DB0 EQ PUSH2 0x1C3 JUMPI PUSH2 0x91 JUMP JUMPDEST DUP1 PUSH4 0x8551A53 EQ PUSH2 0x96 JUMPI DUP1 PUSH4 0xC3F6ACF EQ PUSH2 0xC1 JUMPI DUP1 PUSH4 0x5E10177B EQ PUSH2 0xEC JUMPI DUP1 PUSH4 0x6CE27B8E EQ PUSH2 0xF6 JUMPI DUP1 PUSH4 0x7150D8AE EQ PUSH2 0x10D JUMPI JUMPDEST PUSH1 0x0 DUP1 REVERT JUMPDEST CALLVALUE DUP1 ISZERO PUSH2 0xA2 JUMPI PUSH1 0x0 DUP1 REVERT JUMPDEST POP PUSH2 0xAB PUSH2 0x1CD JUMP JUMPDEST PUSH1 0x40 MLOAD PUSH2 0xB8 SWAP2 SWAP1 PUSH2 0x867 JUMP JUMPDEST PUSH1 0x40 MLOAD DUP1 SWAP2 SUB SWAP1 RETURN JUMPDEST CALLVALUE DUP1 ISZERO PUSH2 0xCD JUMPI PUSH1 0x0 DUP1 REVERT JUMPDEST POP PUSH2 0xD6 PUSH2 0x1F3 JUMP JUMPDEST PUSH1 0x40 MLOAD PUSH2 0xE3 SWAP2 SWAP1 PUSH2 0x8F9 JUMP JUMPDEST PUSH1 0x40 MLOAD DUP1 SWAP2 SUB SWAP1 RETURN JUMPDEST PUSH2 0xF4 PUSH2 0x206 JUMP JUMPDEST STOP JUMPDEST CALLVALUE DUP1 ISZERO PUSH2 0x102 JUMPI PUSH1 0x0 DUP1 REVERT JUMPDEST POP PUSH2 0x10B PUSH2 0x3A2 JUMP JUMPDEST STOP JUMPDEST CALLVALUE DUP1 ISZERO PUSH2 0x119 JUMPI PUSH1 0x0 DUP1 REVERT JUMPDEST POP PUSH2 0x122 PUSH2 0x51D JUMP JUMPDEST PUSH1 0x40 MLOAD PUSH2 0x12F SWAP2 SWAP1 PUSH2 0x935 JUMP JUMPDEST PUSH1 0x40 MLOAD DUP1 SWAP2 SUB SWAP1 RETURN JUMPDEST PUSH2 0x140 PUSH2 0x541 JUMP JUMPDEST STOP JUMPDEST CALLVALUE DUP1 ISZERO PUSH2 0x14E JUMPI PUSH1 0x0 DUP1 REVERT JUMPDEST POP PUSH2 0x157 PUSH2 0x6BB JUMP JUMPDEST PUSH1 0x40 MLOAD PUSH2 0x164 SWAP2 SWAP1 PUSH2 0x96B JUMP JUMPDEST PUSH1 0x40 MLOAD DUP1 SWAP2 SUB SWAP1 RETURN JUMPDEST CALLVALUE DUP1 ISZERO PUSH2 0x179 JUMPI PUSH1 0x0 DUP1 REVERT JUMPDEST POP PUSH2 0x182 PUSH2 0x6CE JUMP JUMPDEST PUSH1 0x40 MLOAD PUSH2 0x18F SWAP2 SWAP1 PUSH2 0x99F JUMP JUMPDEST PUSH1 0x40 MLOAD DUP1 SWAP2 SUB SWAP1 RETURN JUMPDEST CALLVALUE DUP1 ISZERO PUSH2 0x1A4 JUMPI PUSH1 0x0 DUP1 REVERT JUMPDEST POP PUSH2 0x1AD PUSH2 0x6D4 JUMP JUMPDEST PUSH1 0x40 MLOAD PUSH2 0x1BA SWAP2 SWAP1 PUSH2 0x96B JUMP JUMPDEST PUSH1 0x40 MLOAD DUP1 SWAP2 SUB SWAP1 RETURN JUMPDEST PUSH2 0x1CB PUSH2 0x6E7 JUMP JUMPDEST STOP JUMPDEST PUSH1 0x1 PUSH1 0x0 SWAP1 SLOAD SWAP1 PUSH2 0x100 EXP SWAP1 DIV PUSH20 0xFFFFFFFFFFFFFFFFFFFFFFFFFFFFFFFFFFFFFFFF AND DUP2 JUMP JUMPDEST PUSH1 0x4 PUSH1 0x0 SWAP1 SLOAD SWAP1 PUSH2 0x100 EXP SWAP1 DIV PUSH1 0xFF AND DUP2 JUMP JUMPDEST PUSH1 0x0 DUP1 SLOAD SWAP1 PUSH2 0x100 EXP SWAP1 DIV PUSH20 0xFFFFFFFFFFFFFFFFFFFFFFFFFFFFFFFFFFFFFFFF AND PUSH20 0xFFFFFFFFFFFFFFFFFFFFFFFFFFFFFFFFFFFFFFFF AND CALLER PUSH20 0xFFFFFFFFFFFFFFFFFFFFFFFFFFFFFFFFFFFFFFFF AND EQ PUSH2 0x294 JUMPI PUSH1 0x40 MLOAD PUSH32 0x8C379A000000000000000000000000000000000000000000000000000000000 DUP2 MSTORE PUSH1 0x4 ADD PUSH2 0x28B SWAP1 PUSH2 0xA17 JUMP JUMPDEST PUSH1 0x40 MLOAD DUP1 SWAP2 SUB SWAP1 REVERT JUMPDEST PUSH1 0x2 PUSH1 0x3 DUP2 GT ISZERO PUSH2 0x2A8 JUMPI PUSH2 0x2A7 PUSH2 0x882 JUMP JUMPDEST JUMPDEST PUSH1 0x4 PUSH1 0x0 SWAP1 SLOAD SWAP1 PUSH2 0x100 EXP SWAP1 DIV PUSH1 0xFF AND PUSH1 0x3 DUP2 GT ISZERO PUSH2 0x2CA JUMPI PUSH2 0x2C9 PUSH2 0x882 JUMP JUMPDEST JUMPDEST EQ PUSH2 0x30A JUMPI PUSH1 0x40 MLOAD PUSH32 0x8C379A000000000000000000000000000000000000000000000000000000000 DUP2 MSTORE PUSH1 0x4 ADD PUSH2 0x301 SWAP1 PUSH2 0xA83 JUMP JUMPDEST PUSH1 0x40 MLOAD DUP1 SWAP2 SUB SWAP1 REVERT JUMPDEST PUSH1 0x1 PUSH1 0x0 SWAP1 SLOAD SWAP1 PUSH2 0x100 EXP SWAP1 DIV PUSH20 0xFFFFFFFFFFFFFFFFFFFFFFFFFFFFFFFFFFFFFFFF AND PUSH20 0xFFFFFFFFFFFFFFFFFFFFFFFFFFFFFFFFFFFFFFFF AND PUSH2 0x8FC PUSH1 0x3 SLOAD SWAP1 DUP2 ISZERO MUL SWAP1 PUSH1 0x40 MLOAD PUSH1 0x0 PUSH1 0x40 MLOAD DUP1 DUP4 SUB DUP2 DUP6 DUP9 DUP9 CALL SWAP4 POP POP POP POP ISZERO DUP1 ISZERO PUSH2 0x374 JUMPI RETURNDATASIZE PUSH1 0x0 DUP1 RETURNDATACOPY RETURNDATASIZE PUSH1 0x0 REVERT JUMPDEST POP PUSH1 0x3 PUSH1 0x4 PUSH1 0x0 PUSH2 0x100 EXP DUP2 SLOAD DUP2 PUSH1 0xFF MUL NOT AND SWAP1 DUP4 PUSH1 0x3 DUP2 GT ISZERO PUSH2 0x39B JUMPI PUSH2 0x39A PUSH2 0x882 JUMP JUMPDEST JUMPDEST MUL OR SWAP1 SSTORE POP JUMP JUMPDEST PUSH1 0x0 PUSH1 0x3 DUP2 GT ISZERO PUSH2 0x3B6 JUMPI PUSH2 0x3B5 PUSH2 0x882 JUMP JUMPDEST JUMPDEST PUSH1 0x4 PUSH1 0x0 SWAP1 SLOAD SWAP1 PUSH2 0x100 EXP SWAP1 DIV PUSH1 0xFF AND PUSH1 0x3 DUP2 GT ISZERO PUSH2 0x3D8 JUMPI PUSH2 0x3D7 PUSH2 0x882 JUMP JUMPDEST JUMPDEST EQ PUSH2 0x3E2 JUMPI PUSH1 0x0 DUP1 REVERT JUMPDEST PUSH1 0x0 DUP1 SLOAD SWAP1 PUSH2 0x100 EXP SWAP1 DIV PUSH20 0xFFFFFFFFFFFFFFFFFFFFFFFFFFFFFFFFFFFFFFFF AND PUSH20 0xFFFFFFFFFFFFFFFFFFFFFFFFFFFFFFFFFFFFFFFF AND CALLER PUSH20 0xFFFFFFFFFFFFFFFFFFFFFFFFFFFFFFFFFFFFFFFF AND SUB PUSH2 0x451 JUMPI PUSH1 0x1 PUSH1 0x4 PUSH1 0x1 PUSH2 0x100 EXP DUP2 SLOAD DUP2 PUSH1 0xFF MUL NOT AND SWAP1 DUP4 ISZERO ISZERO MUL OR SWAP1 SSTORE POP JUMPDEST PUSH1 0x1 PUSH1 0x0 SWAP1 SLOAD SWAP1 PUSH2 0x100 EXP SWAP1 DIV PUSH20 0xFFFFFFFFFFFFFFFFFFFFFFFFFFFFFFFFFFFFFFFF AND PUSH20 0xFFFFFFFFFFFFFFFFFFFFFFFFFFFFFFFFFFFFFFFF AND CALLER PUSH20 0xFFFFFFFFFFFFFFFFFFFFFFFFFFFFFFFFFFFFFFFF AND SUB PUSH2 0x4C2 JUMPI PUSH1 0x1 PUSH1 0x4 PUSH1 0x2 PUSH2 0x100 EXP DUP2 SLOAD DUP2 PUSH1 0xFF MUL NOT AND SWAP1 DUP4 ISZERO ISZERO MUL OR SWAP1 SSTORE POP JUMPDEST PUSH1 0x4 PUSH1 0x1 SWAP1 SLOAD SWAP1 PUSH2 0x100 EXP SWAP1 DIV PUSH1 0xFF AND DUP1 ISZERO PUSH2 0x4EA JUMPI POP PUSH1 0x4 PUSH1 0x2 SWAP1 SLOAD SWAP1 PUSH2 0x100 EXP SWAP1 DIV PUSH1 0xFF AND JUMPDEST ISZERO PUSH2 0x51B JUMPI PUSH1 0x1 PUSH1 0x4 PUSH1 0x0 PUSH2 0x100 EXP DUP2 SLOAD DUP2 PUSH1 0xFF MUL NOT AND SWAP1 DUP4 PUSH1 0x3 DUP2 GT ISZERO PUSH2 0x515 JUMPI PUSH2 0x514 PUSH2 0x882 JUMP JUMPDEST JUMPDEST MUL OR SWAP1 SSTORE POP JUMPDEST JUMP JUMPDEST PUSH1 0x0 DUP1 SLOAD SWAP1 PUSH2 0x100 EXP SWAP1 DIV PUSH20 0xFFFFFFFFFFFFFFFFFFFFFFFFFFFFFFFFFFFFFFFF AND DUP2 JUMP JUMPDEST PUSH1 0x0 DUP1 SLOAD SWAP1 PUSH2 0x100 EXP SWAP1 DIV PUSH20 0xFFFFFFFFFFFFFFFFFFFFFFFFFFFFFFFFFFFFFFFF AND PUSH20 0xFFFFFFFFFFFFFFFFFFFFFFFFFFFFFFFFFFFFFFFF AND CALLER PUSH20 0xFFFFFFFFFFFFFFFFFFFFFFFFFFFFFFFFFFFFFFFF AND EQ PUSH2 0x5CF JUMPI PUSH1 0x40 MLOAD PUSH32 0x8C379A000000000000000000000000000000000000000000000000000000000 DUP2 MSTORE PUSH1 0x4 ADD PUSH2 0x5C6 SWAP1 PUSH2 0xA17 JUMP JUMPDEST PUSH1 0x40 MLOAD DUP1 SWAP2 SUB SWAP1 REVERT JUMPDEST PUSH1 0x2 PUSH1 0x3 DUP2 GT ISZERO PUSH2 0x5E3 JUMPI PUSH2 0x5E2 PUSH2 0x882 JUMP JUMPDEST JUMPDEST PUSH1 0x4 PUSH1 0x0 SWAP1 SLOAD SWAP1 PUSH2 0x100 EXP SWAP1 DIV PUSH1 0xFF AND PUSH1 0x3 DUP2 GT ISZERO PUSH2 0x605 JUMPI PUSH2 0x604 PUSH2 0x882 JUMP JUMPDEST JUMPDEST EQ PUSH2 0x645 JUMPI PUSH1 0x40 MLOAD PUSH32 0x8C379A000000000000000000000000000000000000000000000000000000000 DUP2 MSTORE PUSH1 0x4 ADD PUSH2 0x63C SWAP1 PUSH2 0xAEF JUMP JUMPDEST PUSH1 0x40 MLOAD DUP1 SWAP2 SUB SWAP1 REVERT JUMPDEST CALLER PUSH20 0xFFFFFFFFFFFFFFFFFFFFFFFFFFFFFFFFFFFFFFFF AND PUSH2 0x8FC PUSH1 0x3 SLOAD SWAP1 DUP2 ISZERO MUL SWAP1 PUSH1 0x40 MLOAD PUSH1 0x0 PUSH1 0x40 MLOAD DUP1 DUP4 SUB DUP2 DUP6 DUP9 DUP9 CALL SWAP4 POP POP POP POP ISZERO DUP1 ISZERO PUSH2 0x68D JUMPI RETURNDATASIZE PUSH1 0x0 DUP1 RETURNDATACOPY RETURNDATASIZE PUSH1 0x0 REVERT JUMPDEST POP PUSH1 0x3 PUSH1 0x4 PUSH1 0x0 PUSH2 0x100 EXP DUP2 SLOAD DUP2 PUSH1 0xFF MUL NOT AND SWAP1 DUP4 PUSH1 0x3 DUP2 GT ISZERO PUSH2 0x6B4 JUMPI PUSH2 0x6B3 PUSH2 0x882 JUMP JUMPDEST JUMPDEST MUL OR SWAP1 SSTORE POP JUMP JUMPDEST PUSH1 0x4 PUSH1 0x2 SWAP1 SLOAD SWAP1 PUSH2 0x100 EXP SWAP1 DIV PUSH1 0xFF AND DUP2 JUMP JUMPDEST PUSH1 0x3 SLOAD DUP2 JUMP JUMPDEST PUSH1 0x4 PUSH1 0x1 SWAP1 SLOAD SWAP1 PUSH2 0x100 EXP SWAP1 DIV PUSH1 0xFF AND DUP2 JUMP JUMPDEST PUSH1 0x0 DUP1 SLOAD SWAP1 PUSH2 0x100 EXP SWAP1 DIV PUSH20 0xFFFFFFFFFFFFFFFFFFFFFFFFFFFFFFFFFFFFFFFF AND PUSH20 0xFFFFFFFFFFFFFFFFFFFFFFFFFFFFFFFFFFFFFFFF AND CALLER PUSH20 0xFFFFFFFFFFFFFFFFFFFFFFFFFFFFFFFFFFFFFFFF AND EQ PUSH2 0x775 JUMPI PUSH1 0x40 MLOAD PUSH32 0x8C379A000000000000000000000000000000000000000000000000000000000 DUP2 MSTORE PUSH1 0x4 ADD PUSH2 0x76C SWAP1 PUSH2 0xA17 JUMP JUMPDEST PUSH1 0x40 MLOAD DUP1 SWAP2 SUB SWAP1 REVERT JUMPDEST PUSH1 0x1 PUSH1 0x3 DUP2 GT ISZERO PUSH2 0x789 JUMPI PUSH2 0x788 PUSH2 0x882 JUMP JUMPDEST JUMPDEST PUSH1 0x4 PUSH1 0x0 SWAP1 SLOAD SWAP1 PUSH2 0x100 EXP SWAP1 DIV PUSH1 0xFF AND PUSH1 0x3 DUP2 GT ISZERO PUSH2 0x7AB JUMPI PUSH2 0x7AA PUSH2 0x882 JUMP JUMPDEST JUMPDEST EQ PUSH2 0x7B5 JUMPI PUSH1 0x0 DUP1 REVERT JUMPDEST PUSH1 0x3 SLOAD CALLVALUE EQ PUSH2 0x7F9 JUMPI PUSH1 0x40 MLOAD PUSH32 0x8C379A000000000000000000000000000000000000000000000000000000000 DUP2 MSTORE PUSH1 0x4 ADD PUSH2 0x7F0 SWAP1 PUSH2 0xB5B JUMP JUMPDEST PUSH1 0x40 MLOAD DUP1 SWAP2 SUB SWAP1 REVERT JUMPDEST PUSH1 0x2 PUSH1 0x4 PUSH1 0x0 PUSH2 0x100 EXP DUP2 SLOAD DUP2 PUSH1 0xFF MUL NOT AND SWAP1 DUP4 PUSH1 0x3 DUP2 GT ISZERO PUSH2 0x81F JUMPI PUSH2 0x81E PUSH2 0x882 JUMP JUMPDEST JUMPDEST MUL OR SWAP1 SSTORE POP JUMP JUMPDEST PUSH1 0x0 PUSH20 0xFFFFFFFFFFFFFFFFFFFFFFFFFFFFFFFFFFFFFFFF DUP3 AND SWAP1 POP SWAP2 SWAP1 POP JUMP JUMPDEST PUSH1 0x0 PUSH2 0x851 DUP3 PUSH2 0x826 JUMP JUMPDEST SWAP1 POP SWAP2 SWAP1 POP JUMP JUMPDEST PUSH2 0x861 DUP2 PUSH2 0x846 JUMP JUMPDEST DUP3 MSTORE POP POP JUMP JUMPDEST PUSH1 0x0 PUSH1 0x20 DUP3 ADD SWAP1 POP PUSH2 0x87C PUSH1 0x0 DUP4 ADD DUP5 PUSH2 0x858 JUMP JUMPDEST SWAP3 SWAP2 POP POP JUMP JUMPDEST PUSH32 0x4E487B7100000000000000000000000000000000000000000000000000000000 PUSH1 0x0 MSTORE PUSH1 0x21 PUSH1 0x4 MSTORE PUSH1 0x24 PUSH1 0x0 REVERT JUMPDEST PUSH1 0x4 DUP2 LT PUSH2 0x8C2 JUMPI PUSH2 0x8C1 PUSH2 0x882 JUMP JUMPDEST JUMPDEST POP JUMP JUMPDEST PUSH1 0x0 DUP2 SWAP1 POP PUSH2 0x8D3 DUP3 PUSH2 0x8B1 JUMP JUMPDEST SWAP2 SWAP1 POP JUMP JUMPDEST PUSH1 0x0 PUSH2 0x8E3 DUP3 PUSH2 0x8C5 JUMP JUMPDEST SWAP1 POP SWAP2 SWAP1 POP JUMP JUMPDEST PUSH2 0x8F3 DUP2 PUSH2 0x8D8 JUMP JUMPDEST DUP3 MSTORE POP POP JUMP JUMPDEST PUSH1 0x0 PUSH1 0x20 DUP3 ADD SWAP1 POP PUSH2 0x90E PUSH1 0x0 DUP4 ADD DUP5 PUSH2 0x8EA JUMP JUMPDEST SWAP3 SWAP2 POP POP JUMP JUMPDEST PUSH1 0x0 PUSH2 0x91F DUP3 PUSH2 0x826 JUMP JUMPDEST SWAP1 POP SWAP2 SWAP1 POP JUMP JUMPDEST PUSH2 0x92F DUP2 PUSH2 0x914 JUMP JUMPDEST DUP3 MSTORE POP POP JUMP JUMPDEST PUSH1 0x0 PUSH1 0x20 DUP3 ADD SWAP1 POP PUSH2 0x94A PUSH1 0x0 DUP4 ADD DUP5 PUSH2 0x926 JUMP JUMPDEST SWAP3 SWAP2 POP POP JUMP JUMPDEST PUSH1 0x0 DUP2 ISZERO ISZERO SWAP1 POP SWAP2 SWAP1 POP JUMP JUMPDEST PUSH2 0x965 DUP2 PUSH2 0x950 JUMP JUMPDEST DUP3 MSTORE POP POP JUMP JUMPDEST PUSH1 0x0 PUSH1 0x20 DUP3 ADD SWAP1 POP PUSH2 0x980 PUSH1 0x0 DUP4 ADD DUP5 PUSH2 0x95C JUMP JUMPDEST SWAP3 SWAP2 POP POP JUMP JUMPDEST PUSH1 0x0 DUP2 SWAP1 POP SWAP2 SWAP1 POP JUMP JUMPDEST PUSH2 0x999 DUP2 PUSH2 0x986 JUMP JUMPDEST DUP3 MSTORE POP POP JUMP JUMPDEST PUSH1 0x0 PUSH1 0x20 DUP3 ADD SWAP1 POP PUSH2 0x9B4 PUSH1 0x0 DUP4 ADD DUP5 PUSH2 0x990 JUMP JUMPDEST SWAP3 SWAP2 POP POP JUMP JUMPDEST PUSH1 0x0 DUP3 DUP3 MSTORE PUSH1 0x20 DUP3 ADD SWAP1 POP SWAP3 SWAP2 POP POP JUMP JUMPDEST PUSH32 0x4F6E6C792062757965722063616E2063616C6C206D6573736167650000000000 PUSH1 0x0 DUP3 ADD MSTORE POP JUMP JUMPDEST PUSH1 0x0 PUSH2 0xA01 PUSH1 0x1B DUP4 PUSH2 0x9BA JUMP JUMPDEST SWAP2 POP PUSH2 0xA0C DUP3 PUSH2 0x9CB JUMP JUMPDEST PUSH1 0x20 DUP3 ADD SWAP1 POP SWAP2 SWAP1 POP JUMP JUMPDEST PUSH1 0x0 PUSH1 0x20 DUP3 ADD SWAP1 POP DUP2 DUP2 SUB PUSH1 0x0 DUP4 ADD MSTORE PUSH2 0xA30 DUP2 PUSH2 0x9F4 JUMP JUMPDEST SWAP1 POP SWAP2 SWAP1 POP JUMP JUMPDEST PUSH32 0x43616E6E6F7420636F6E6669726D2064656C6976657279000000000000000000 PUSH1 0x0 DUP3 ADD MSTORE POP JUMP JUMPDEST PUSH1 0x0 PUSH2 0xA6D PUSH1 0x17 DUP4 PUSH2 0x9BA JUMP JUMPDEST SWAP2 POP PUSH2 0xA78 DUP3 PUSH2 0xA37 JUMP JUMPDEST PUSH1 0x20 DUP3 ADD SWAP1 POP SWAP2 SWAP1 POP JUMP JUMPDEST PUSH1 0x0 PUSH1 0x20 DUP3 ADD SWAP1 POP DUP2 DUP2 SUB PUSH1 0x0 DUP4 ADD MSTORE PUSH2 0xA9C DUP2 PUSH2 0xA60 JUMP JUMPDEST SWAP1 POP SWAP2 SWAP1 POP JUMP JUMPDEST PUSH32 0x43616E6E6F742077697468647261772061742074686973207374616765000000 PUSH1 0x0 DUP3 ADD MSTORE POP JUMP JUMPDEST PUSH1 0x0 PUSH2 0xAD9 PUSH1 0x1D DUP4 PUSH2 0x9BA JUMP JUMPDEST SWAP2 POP PUSH2 0xAE4 DUP3 PUSH2 0xAA3 JUMP JUMPDEST PUSH1 0x20 DUP3 ADD SWAP1 POP SWAP2 SWAP1 POP JUMP JUMPDEST PUSH1 0x0 PUSH1 0x20 DUP3 ADD SWAP1 POP DUP2 DUP2 SUB PUSH1 0x0 DUP4 ADD MSTORE PUSH2 0xB08 DUP2 PUSH2 0xACC JUMP JUMPDEST SWAP1 POP SWAP2 SWAP1 POP JUMP JUMPDEST PUSH32 0x57726F6E67206465706F736974656420616D6F756E7400000000000000000000 PUSH1 0x0 DUP3 ADD MSTORE POP JUMP JUMPDEST PUSH1 0x0 PUSH2 0xB45 PUSH1 0x16 DUP4 PUSH2 0x9BA JUMP JUMPDEST SWAP2 POP PUSH2 0xB50 DUP3 PUSH2 0xB0F JUMP JUMPDEST PUSH1 0x20 DUP3 ADD SWAP1 POP SWAP2 SWAP1 POP JUMP JUMPDEST PUSH1 0x0 PUSH1 0x20 DUP3 ADD SWAP1 POP DUP2 DUP2 SUB PUSH1 0x0 DUP4 ADD MSTORE PUSH2 0xB74 DUP2 PUSH2 0xB38 JUMP JUMPDEST SWAP1 POP SWAP2 SWAP1 POP JUMP INVALID LOG2 PUSH5 0x6970667358 0x22 SLT KECCAK256 SELFDESTRUCT 0x25 PUSH10 0x783A90CAF59654C099EA 0x24 PUSH8 0xEDB8D8B70CBD1698 0xBD PUSH4 0xE202041B 0xF6 PUSH23 0x7264736F6C634300080D00330000000000000000000000 "
				},
				"gasEstimates": {
					"creation": {
						"codeDepositCost": "598600",
						"executionCost": "infinite",
						"totalCost": "infinite"
					},
					"external": {
						"buyer()": "2600",
						"confirmDelivery()": "infinite",
						"currentState()": "2583",
						"deposit()": "30995",
						"initEscrow()": "84097",
						"isBuyerIn()": "2587",
						"isSellerIn()": "2543",
						"price()": "2473",
						"returnDeposit()": "infinite",
						"seller()": "2515"
					}
				},
				"methodIdentifiers": {
					"buyer()": "7150d8ae",
					"confirmDelivery()": "5e10177b",
					"currentState()": "0c3f6acf",
					"deposit()": "d0e30db0",
					"initEscrow()": "6ce27b8e",
					"isBuyerIn()": "c4bce180",
					"isSellerIn()": "9b3bcb33",
					"price()": "a035b1fe",
					"returnDeposit()": "7e88f603",
					"seller()": "08551a53"
				}
			},
			"storageLayout": {
				"storage": [
					{
						"astId": 3,
						"contract": "escrow.sol:Escrow",
						"label": "buyer",
						"offset": 0,
						"slot": "0",
						"type": "t_address"
					},
					{
						"astId": 5,
						"contract": "escrow.sol:Escrow",
						"label": "seller",
						"offset": 0,
						"slot": "1",
						"type": "t_address_payable"
					},
					{
						"astId": 7,
						"contract": "escrow.sol:Escrow",
						"label": "amountDeposited",
						"offset": 0,
						"slot": "2",
						"type": "t_uint256"
					},
					{
						"astId": 9,
						"contract": "escrow.sol:Escrow",
						"label": "price",
						"offset": 0,
						"slot": "3",
						"type": "t_uint256"
					},
					{
						"astId": 17,
						"contract": "escrow.sol:Escrow",
						"label": "currentState",
						"offset": 0,
						"slot": "4",
						"type": "t_enum(transactionState)14"
					},
					{
						"astId": 19,
						"contract": "escrow.sol:Escrow",
						"label": "isBuyerIn",
						"offset": 1,
						"slot": "4",
						"type": "t_bool"
					},
					{
						"astId": 21,
						"contract": "escrow.sol:Escrow",
						"label": "isSellerIn",
						"offset": 2,
						"slot": "4",
						"type": "t_bool"
					}
				],
				"types": {
					"t_address": {
						"encoding": "inplace",
						"label": "address",
						"numberOfBytes": "20"
					},
					"t_address_payable": {
						"encoding": "inplace",
						"label": "address payable",
						"numberOfBytes": "20"
					},
					"t_bool": {
						"encoding": "inplace",
						"label": "bool",
						"numberOfBytes": "1"
					},
					"t_enum(transactionState)14": {
						"encoding": "inplace",
						"label": "enum Escrow.transactionState",
						"numberOfBytes": "1"
					},
					"t_uint256": {
						"encoding": "inplace",
						"label": "uint256",
						"numberOfBytes": "32"
					}
				}
			},
			"userdoc": {
				"kind": "user",
				"methods": {},
				"version": 1
			}
		}
	}
}