{
	"escrow.sol": {
		"Escrow": {
			"abi": [
				{
					"inputs": [
						{
							"internalType": "address",
							"name": "_buyer",
							"type": "address"
						},
						{
							"internalType": "address payable",
							"name": "_seller",
							"type": "address"
						},
						{
							"internalType": "uint256",
							"name": "_price",
							"type": "uint256"
						},
						{
							"internalType": "address",
							"name": "_dispute1",
							"type": "address"
						},
						{
							"internalType": "address",
							"name": "_dispute2",
							"type": "address"
						}
					],
					"stateMutability": "nonpayable",
					"type": "constructor"
				},
				{
					"inputs": [],
					"name": "buyer",
					"outputs": [
						{
							"internalType": "address",
							"name": "",
							"type": "address"
						}
					],
					"stateMutability": "view",
					"type": "function"
				},
				{
					"inputs": [],
					"name": "confirmDelivery",
					"outputs": [],
					"stateMutability": "payable",
					"type": "function"
				},
				{
					"inputs": [],
					"name": "currentState",
					"outputs": [
						{
							"internalType": "enum Escrow.transactionState",
							"name": "",
							"type": "uint8"
						}
					],
					"stateMutability": "view",
					"type": "function"
				},
				{
					"inputs": [],
					"name": "deposit",
					"outputs": [],
					"stateMutability": "payable",
					"type": "function"
				},
				{
					"inputs": [],
					"name": "dispute1",
					"outputs": [
						{
							"internalType": "address",
							"name": "",
							"type": "address"
						}
					],
					"stateMutability": "view",
					"type": "function"
				},
				{
					"inputs": [],
					"name": "dispute2",
					"outputs": [
						{
							"internalType": "address",
							"name": "",
							"type": "address"
						}
					],
					"stateMutability": "view",
					"type": "function"
				},
				{
					"inputs": [],
					"name": "initEscrow",
					"outputs": [],
					"stateMutability": "nonpayable",
					"type": "function"
				},
				{
					"inputs": [],
					"name": "isBuyerIn",
					"outputs": [
						{
							"internalType": "bool",
							"name": "",
							"type": "bool"
						}
					],
					"stateMutability": "view",
					"type": "function"
				},
				{
					"inputs": [],
					"name": "isSellerIn",
					"outputs": [
						{
							"internalType": "bool",
							"name": "",
							"type": "bool"
						}
					],
					"stateMutability": "view",
					"type": "function"
				},
				{
					"inputs": [],
					"name": "price",
					"outputs": [
						{
							"internalType": "uint256",
							"name": "",
							"type": "uint256"
						}
					],
					"stateMutability": "view",
					"type": "function"
				},
				{
					"inputs": [],
					"name": "returnDeposit",
					"outputs": [],
					"stateMutability": "payable",
					"type": "function"
				},
				{
					"inputs": [],
					"name": "seller",
					"outputs": [
						{
							"internalType": "address payable",
							"name": "",
							"type": "address"
						}
					],
					"stateMutability": "view",
					"type": "function"
				}
			],
			"devdoc": {
				"kind": "dev",
				"methods": {},
				"version": 1
			},
			"evm": {
				"assembly": "    /* \"escrow.sol\":60:2368  contract Escrow {... */\n  mstore(0x40, 0x80)\n    /* \"escrow.sol\":917:1173  constructor(... */\n  callvalue\n  dup1\n  iszero\n  tag_1\n  jumpi\n  0x00\n  dup1\n  revert\ntag_1:\n  pop\n  mload(0x40)\n  sub(codesize, bytecodeSize)\n  dup1\n  bytecodeSize\n  dup4\n  codecopy\n  dup2\n  dup2\n  add\n  0x40\n  mstore\n  dup2\n  add\n  swap1\n  tag_2\n  swap2\n  swap1\n  tag_3\n  jump\t// in\ntag_2:\n    /* \"escrow.sol\":1095:1101  _buyer */\n  dup5\n    /* \"escrow.sol\":1087:1092  buyer */\n  0x00\n  dup1\n    /* \"escrow.sol\":1087:1101  buyer = _buyer */\n  0x0100\n  exp\n  dup2\n  sload\n  dup2\n  0xffffffffffffffffffffffffffffffffffffffff\n  mul\n  not\n  and\n  swap1\n  dup4\n  0xffffffffffffffffffffffffffffffffffffffff\n  and\n  mul\n  or\n  swap1\n  sstore\n  pop\n    /* \"escrow.sol\":1121:1128  _seller */\n  dup4\n    /* \"escrow.sol\":1112:1118  seller */\n  0x01\n  0x00\n    /* \"escrow.sol\":1112:1128  seller = _seller */\n  0x0100\n  exp\n  dup2\n  sload\n  dup2\n  0xffffffffffffffffffffffffffffffffffffffff\n  mul\n  not\n  and\n  swap1\n  dup4\n  0xffffffffffffffffffffffffffffffffffffffff\n  and\n  mul\n  or\n  swap1\n  sstore\n  pop\n    /* \"escrow.sol\":1157:1164  1 ether */\n  0x0de0b6b3a7640000\n    /* \"escrow.sol\":1147:1153  _price */\n  dup4\n    /* \"escrow.sol\":1147:1165  _price * (1 ether) */\n  tag_6\n  swap2\n  swap1\n  tag_7\n  jump\t// in\ntag_6:\n    /* \"escrow.sol\":1139:1144  price */\n  0x03\n    /* \"escrow.sol\":1139:1165  price = _price * (1 ether) */\n  dup2\n  swap1\n  sstore\n  pop\n    /* \"escrow.sol\":917:1173  constructor(... */\n  pop\n  pop\n  pop\n  pop\n  pop\n    /* \"escrow.sol\":60:2368  contract Escrow {... */\n  jump(tag_8)\n    /* \"#utility.yul\":88:205   */\ntag_10:\n    /* \"#utility.yul\":197:198   */\n  0x00\n    /* \"#utility.yul\":194:195   */\n  dup1\n    /* \"#utility.yul\":187:199   */\n  revert\n    /* \"#utility.yul\":334:460   */\ntag_12:\n    /* \"#utility.yul\":371:378   */\n  0x00\n    /* \"#utility.yul\":411:453   */\n  0xffffffffffffffffffffffffffffffffffffffff\n    /* \"#utility.yul\":404:409   */\n  dup3\n    /* \"#utility.yul\":400:454   */\n  and\n    /* \"#utility.yul\":389:454   */\n  swap1\n  pop\n    /* \"#utility.yul\":334:460   */\n  swap2\n  swap1\n  pop\n  jump\t// out\n    /* \"#utility.yul\":466:562   */\ntag_13:\n    /* \"#utility.yul\":503:510   */\n  0x00\n    /* \"#utility.yul\":532:556   */\n  tag_29\n    /* \"#utility.yul\":550:555   */\n  dup3\n    /* \"#utility.yul\":532:556   */\n  tag_12\n  jump\t// in\ntag_29:\n    /* \"#utility.yul\":521:556   */\n  swap1\n  pop\n    /* \"#utility.yul\":466:562   */\n  swap2\n  swap1\n  pop\n  jump\t// out\n    /* \"#utility.yul\":568:690   */\ntag_14:\n    /* \"#utility.yul\":641:665   */\n  tag_31\n    /* \"#utility.yul\":659:664   */\n  dup2\n    /* \"#utility.yul\":641:665   */\n  tag_13\n  jump\t// in\ntag_31:\n    /* \"#utility.yul\":634:639   */\n  dup2\n    /* \"#utility.yul\":631:666   */\n  eq\n    /* \"#utility.yul\":621:684   */\n  tag_32\n  jumpi\n    /* \"#utility.yul\":680:681   */\n  0x00\n    /* \"#utility.yul\":677:678   */\n  dup1\n    /* \"#utility.yul\":670:682   */\n  revert\n    /* \"#utility.yul\":621:684   */\ntag_32:\n    /* \"#utility.yul\":568:690   */\n  pop\n  jump\t// out\n    /* \"#utility.yul\":696:839   */\ntag_15:\n    /* \"#utility.yul\":753:758   */\n  0x00\n    /* \"#utility.yul\":784:790   */\n  dup2\n    /* \"#utility.yul\":778:791   */\n  mload\n    /* \"#utility.yul\":769:791   */\n  swap1\n  pop\n    /* \"#utility.yul\":800:833   */\n  tag_34\n    /* \"#utility.yul\":827:832   */\n  dup2\n    /* \"#utility.yul\":800:833   */\n  tag_14\n  jump\t// in\ntag_34:\n    /* \"#utility.yul\":696:839   */\n  swap3\n  swap2\n  pop\n  pop\n  jump\t// out\n    /* \"#utility.yul\":845:949   */\ntag_16:\n    /* \"#utility.yul\":890:897   */\n  0x00\n    /* \"#utility.yul\":919:943   */\n  tag_36\n    /* \"#utility.yul\":937:942   */\n  dup3\n    /* \"#utility.yul\":919:943   */\n  tag_12\n  jump\t// in\ntag_36:\n    /* \"#utility.yul\":908:943   */\n  swap1\n  pop\n    /* \"#utility.yul\":845:949   */\n  swap2\n  swap1\n  pop\n  jump\t// out\n    /* \"#utility.yul\":955:1093   */\ntag_17:\n    /* \"#utility.yul\":1036:1068   */\n  tag_38\n    /* \"#utility.yul\":1062:1067   */\n  dup2\n    /* \"#utility.yul\":1036:1068   */\n  tag_16\n  jump\t// in\ntag_38:\n    /* \"#utility.yul\":1029:1034   */\n  dup2\n    /* \"#utility.yul\":1026:1069   */\n  eq\n    /* \"#utility.yul\":1016:1087   */\n  tag_39\n  jumpi\n    /* \"#utility.yul\":1083:1084   */\n  0x00\n    /* \"#utility.yul\":1080:1081   */\n  dup1\n    /* \"#utility.yul\":1073:1085   */\n  revert\n    /* \"#utility.yul\":1016:1087   */\ntag_39:\n    /* \"#utility.yul\":955:1093   */\n  pop\n  jump\t// out\n    /* \"#utility.yul\":1099:1258   */\ntag_18:\n    /* \"#utility.yul\":1164:1169   */\n  0x00\n    /* \"#utility.yul\":1195:1201   */\n  dup2\n    /* \"#utility.yul\":1189:1202   */\n  mload\n    /* \"#utility.yul\":1180:1202   */\n  swap1\n  pop\n    /* \"#utility.yul\":1211:1252   */\n  tag_41\n    /* \"#utility.yul\":1246:1251   */\n  dup2\n    /* \"#utility.yul\":1211:1252   */\n  tag_17\n  jump\t// in\ntag_41:\n    /* \"#utility.yul\":1099:1258   */\n  swap3\n  swap2\n  pop\n  pop\n  jump\t// out\n    /* \"#utility.yul\":1264:1341   */\ntag_19:\n    /* \"#utility.yul\":1301:1308   */\n  0x00\n    /* \"#utility.yul\":1330:1335   */\n  dup2\n    /* \"#utility.yul\":1319:1335   */\n  swap1\n  pop\n    /* \"#utility.yul\":1264:1341   */\n  swap2\n  swap1\n  pop\n  jump\t// out\n    /* \"#utility.yul\":1347:1469   */\ntag_20:\n    /* \"#utility.yul\":1420:1444   */\n  tag_44\n    /* \"#utility.yul\":1438:1443   */\n  dup2\n    /* \"#utility.yul\":1420:1444   */\n  tag_19\n  jump\t// in\ntag_44:\n    /* \"#utility.yul\":1413:1418   */\n  dup2\n    /* \"#utility.yul\":1410:1445   */\n  eq\n    /* \"#utility.yul\":1400:1463   */\n  tag_45\n  jumpi\n    /* \"#utility.yul\":1459:1460   */\n  0x00\n    /* \"#utility.yul\":1456:1457   */\n  dup1\n    /* \"#utility.yul\":1449:1461   */\n  revert\n    /* \"#utility.yul\":1400:1463   */\ntag_45:\n    /* \"#utility.yul\":1347:1469   */\n  pop\n  jump\t// out\n    /* \"#utility.yul\":1475:1618   */\ntag_21:\n    /* \"#utility.yul\":1532:1537   */\n  0x00\n    /* \"#utility.yul\":1563:1569   */\n  dup2\n    /* \"#utility.yul\":1557:1570   */\n  mload\n    /* \"#utility.yul\":1548:1570   */\n  swap1\n  pop\n    /* \"#utility.yul\":1579:1612   */\n  tag_47\n    /* \"#utility.yul\":1606:1611   */\n  dup2\n    /* \"#utility.yul\":1579:1612   */\n  tag_20\n  jump\t// in\ntag_47:\n    /* \"#utility.yul\":1475:1618   */\n  swap3\n  swap2\n  pop\n  pop\n  jump\t// out\n    /* \"#utility.yul\":1624:2617   */\ntag_3:\n    /* \"#utility.yul\":1738:1744   */\n  0x00\n    /* \"#utility.yul\":1746:1752   */\n  dup1\n    /* \"#utility.yul\":1754:1760   */\n  0x00\n    /* \"#utility.yul\":1762:1768   */\n  dup1\n    /* \"#utility.yul\":1770:1776   */\n  0x00\n    /* \"#utility.yul\":1819:1822   */\n  0xa0\n    /* \"#utility.yul\":1807:1816   */\n  dup7\n    /* \"#utility.yul\":1798:1805   */\n  dup9\n    /* \"#utility.yul\":1794:1817   */\n  sub\n    /* \"#utility.yul\":1790:1823   */\n  slt\n    /* \"#utility.yul\":1787:1907   */\n  iszero\n  tag_49\n  jumpi\n    /* \"#utility.yul\":1826:1905   */\n  tag_50\n  tag_10\n  jump\t// in\ntag_50:\n    /* \"#utility.yul\":1787:1907   */\ntag_49:\n    /* \"#utility.yul\":1946:1947   */\n  0x00\n    /* \"#utility.yul\":1971:2035   */\n  tag_51\n    /* \"#utility.yul\":2027:2034   */\n  dup9\n    /* \"#utility.yul\":2018:2024   */\n  dup3\n    /* \"#utility.yul\":2007:2016   */\n  dup10\n    /* \"#utility.yul\":2003:2025   */\n  add\n    /* \"#utility.yul\":1971:2035   */\n  tag_15\n  jump\t// in\ntag_51:\n    /* \"#utility.yul\":1961:2035   */\n  swap6\n  pop\n    /* \"#utility.yul\":1917:2045   */\n  pop\n    /* \"#utility.yul\":2084:2086   */\n  0x20\n    /* \"#utility.yul\":2110:2182   */\n  tag_52\n    /* \"#utility.yul\":2174:2181   */\n  dup9\n    /* \"#utility.yul\":2165:2171   */\n  dup3\n    /* \"#utility.yul\":2154:2163   */\n  dup10\n    /* \"#utility.yul\":2150:2172   */\n  add\n    /* \"#utility.yul\":2110:2182   */\n  tag_18\n  jump\t// in\ntag_52:\n    /* \"#utility.yul\":2100:2182   */\n  swap5\n  pop\n    /* \"#utility.yul\":2055:2192   */\n  pop\n    /* \"#utility.yul\":2231:2233   */\n  0x40\n    /* \"#utility.yul\":2257:2321   */\n  tag_53\n    /* \"#utility.yul\":2313:2320   */\n  dup9\n    /* \"#utility.yul\":2304:2310   */\n  dup3\n    /* \"#utility.yul\":2293:2302   */\n  dup10\n    /* \"#utility.yul\":2289:2311   */\n  add\n    /* \"#utility.yul\":2257:2321   */\n  tag_21\n  jump\t// in\ntag_53:\n    /* \"#utility.yul\":2247:2321   */\n  swap4\n  pop\n    /* \"#utility.yul\":2202:2331   */\n  pop\n    /* \"#utility.yul\":2370:2372   */\n  0x60\n    /* \"#utility.yul\":2396:2460   */\n  tag_54\n    /* \"#utility.yul\":2452:2459   */\n  dup9\n    /* \"#utility.yul\":2443:2449   */\n  dup3\n    /* \"#utility.yul\":2432:2441   */\n  dup10\n    /* \"#utility.yul\":2428:2450   */\n  add\n    /* \"#utility.yul\":2396:2460   */\n  tag_15\n  jump\t// in\ntag_54:\n    /* \"#utility.yul\":2386:2460   */\n  swap3\n  pop\n    /* \"#utility.yul\":2341:2470   */\n  pop\n    /* \"#utility.yul\":2509:2512   */\n  0x80\n    /* \"#utility.yul\":2536:2600   */\n  tag_55\n    /* \"#utility.yul\":2592:2599   */\n  dup9\n    /* \"#utility.yul\":2583:2589   */\n  dup3\n    /* \"#utility.yul\":2572:2581   */\n  dup10\n    /* \"#utility.yul\":2568:2590   */\n  add\n    /* \"#utility.yul\":2536:2600   */\n  tag_15\n  jump\t// in\ntag_55:\n    /* \"#utility.yul\":2526:2600   */\n  swap2\n  pop\n    /* \"#utility.yul\":2480:2610   */\n  pop\n    /* \"#utility.yul\":1624:2617   */\n  swap3\n  swap6\n  pop\n  swap3\n  swap6\n  swap1\n  swap4\n  pop\n  jump\t// out\n    /* \"#utility.yul\":2623:2803   */\ntag_22:\n    /* \"#utility.yul\":2671:2748   */\n  0x4e487b7100000000000000000000000000000000000000000000000000000000\n    /* \"#utility.yul\":2668:2669   */\n  0x00\n    /* \"#utility.yul\":2661:2749   */\n  mstore\n    /* \"#utility.yul\":2768:2772   */\n  0x11\n    /* \"#utility.yul\":2765:2766   */\n  0x04\n    /* \"#utility.yul\":2758:2773   */\n  mstore\n    /* \"#utility.yul\":2792:2796   */\n  0x24\n    /* \"#utility.yul\":2789:2790   */\n  0x00\n    /* \"#utility.yul\":2782:2797   */\n  revert\n    /* \"#utility.yul\":2809:3157   */\ntag_7:\n    /* \"#utility.yul\":2849:2856   */\n  0x00\n    /* \"#utility.yul\":2872:2892   */\n  tag_58\n    /* \"#utility.yul\":2890:2891   */\n  dup3\n    /* \"#utility.yul\":2872:2892   */\n  tag_19\n  jump\t// in\ntag_58:\n    /* \"#utility.yul\":2867:2892   */\n  swap2\n  pop\n    /* \"#utility.yul\":2906:2926   */\n  tag_59\n    /* \"#utility.yul\":2924:2925   */\n  dup4\n    /* \"#utility.yul\":2906:2926   */\n  tag_19\n  jump\t// in\ntag_59:\n    /* \"#utility.yul\":2901:2926   */\n  swap3\n  pop\n    /* \"#utility.yul\":3094:3095   */\n  dup2\n    /* \"#utility.yul\":3026:3092   */\n  0xffffffffffffffffffffffffffffffffffffffffffffffffffffffffffffffff\n    /* \"#utility.yul\":3022:3096   */\n  div\n    /* \"#utility.yul\":3019:3020   */\n  dup4\n    /* \"#utility.yul\":3016:3097   */\n  gt\n    /* \"#utility.yul\":3011:3012   */\n  dup3\n    /* \"#utility.yul\":3004:3013   */\n  iszero\n    /* \"#utility.yul\":2997:3014   */\n  iszero\n    /* \"#utility.yul\":2993:3098   */\n  and\n    /* \"#utility.yul\":2990:3121   */\n  iszero\n  tag_60\n  jumpi\n    /* \"#utility.yul\":3101:3119   */\n  tag_61\n  tag_22\n  jump\t// in\ntag_61:\n    /* \"#utility.yul\":2990:3121   */\ntag_60:\n    /* \"#utility.yul\":3149:3150   */\n  dup3\n    /* \"#utility.yul\":3146:3147   */\n  dup3\n    /* \"#utility.yul\":3142:3151   */\n  mul\n    /* \"#utility.yul\":3131:3151   */\n  swap1\n  pop\n    /* \"#utility.yul\":2809:3157   */\n  swap3\n  swap2\n  pop\n  pop\n  jump\t// out\n    /* \"escrow.sol\":60:2368  contract Escrow {... */\ntag_8:\n  dataSize(sub_0)\n  dup1\n  dataOffset(sub_0)\n  0x00\n  codecopy\n  0x00\n  return\nstop\n\nsub_0: assembly {\n        /* \"escrow.sol\":60:2368  contract Escrow {... */\n      mstore(0x40, 0x80)\n      jumpi(tag_1, lt(calldatasize, 0x04))\n      shr(0xe0, calldataload(0x00))\n      dup1\n      0x976ef7e0\n      gt\n      tag_14\n      jumpi\n      dup1\n      0x976ef7e0\n      eq\n      tag_8\n      jumpi\n      dup1\n      0x9b3bcb33\n      eq\n      tag_9\n      jumpi\n      dup1\n      0xa035b1fe\n      eq\n      tag_10\n      jumpi\n      dup1\n      0xc4bce180\n      eq\n      tag_11\n      jumpi\n      dup1\n      0xd0e30db0\n      eq\n      tag_12\n      jumpi\n      dup1\n      0xed1a98fa\n      eq\n      tag_13\n      jumpi\n      jump(tag_1)\n    tag_14:\n      dup1\n      0x08551a53\n      eq\n      tag_2\n      jumpi\n      dup1\n      0x0c3f6acf\n      eq\n      tag_3\n      jumpi\n      dup1\n      0x5e10177b\n      eq\n      tag_4\n      jumpi\n      dup1\n      0x6ce27b8e\n      eq\n      tag_5\n      jumpi\n      dup1\n      0x7150d8ae\n      eq\n      tag_6\n      jumpi\n      dup1\n      0x7e88f603\n      eq\n      tag_7\n      jumpi\n    tag_1:\n      0x00\n      dup1\n      revert\n        /* \"escrow.sol\":127:156  address payable public seller */\n    tag_2:\n      callvalue\n      dup1\n      iszero\n      tag_15\n      jumpi\n      0x00\n      dup1\n      revert\n    tag_15:\n      pop\n      tag_16\n      tag_17\n      jump\t// in\n    tag_16:\n      mload(0x40)\n      tag_18\n      swap2\n      swap1\n      tag_19\n      jump\t// in\n    tag_18:\n      mload(0x40)\n      dup1\n      swap2\n      sub\n      swap1\n      return\n        /* \"escrow.sol\":413:449  transactionState public currentState */\n    tag_3:\n      callvalue\n      dup1\n      iszero\n      tag_20\n      jumpi\n      0x00\n      dup1\n      revert\n    tag_20:\n      pop\n      tag_21\n      tag_22\n      jump\t// in\n    tag_21:\n      mload(0x40)\n      tag_23\n      swap2\n      swap1\n      tag_24\n      jump\t// in\n    tag_23:\n      mload(0x40)\n      dup1\n      swap2\n      sub\n      swap1\n      return\n        /* \"escrow.sol\":1784:2062  function confirmDelivery() public payable buyerOnly {... */\n    tag_4:\n      tag_25\n      tag_26\n      jump\t// in\n    tag_25:\n      stop\n        /* \"escrow.sol\":1200:1523  function initEscrow() public escrowNotInit {... */\n    tag_5:\n      callvalue\n      dup1\n      iszero\n      tag_27\n      jumpi\n      0x00\n      dup1\n      revert\n    tag_27:\n      pop\n      tag_28\n      tag_29\n      jump\t// in\n    tag_28:\n      stop\n        /* \"escrow.sol\":100:120  address public buyer */\n    tag_6:\n      callvalue\n      dup1\n      iszero\n      tag_30\n      jumpi\n      0x00\n      dup1\n      revert\n    tag_30:\n      pop\n      tag_31\n      tag_32\n      jump\t// in\n    tag_31:\n      mload(0x40)\n      tag_33\n      swap2\n      swap1\n      tag_34\n      jump\t// in\n    tag_33:\n      mload(0x40)\n      dup1\n      swap2\n      sub\n      swap1\n      return\n        /* \"escrow.sol\":2070:2365  function returnDeposit() public payable buyerOnly {... */\n    tag_7:\n      tag_35\n      tag_36\n      jump\t// in\n    tag_35:\n      stop\n        /* \"escrow.sol\":250:273  address public dispute2 */\n    tag_8:\n      callvalue\n      dup1\n      iszero\n      tag_37\n      jumpi\n      0x00\n      dup1\n      revert\n    tag_37:\n      pop\n      tag_38\n      tag_39\n      jump\t// in\n    tag_38:\n      mload(0x40)\n      tag_40\n      swap2\n      swap1\n      tag_34\n      jump\t// in\n    tag_40:\n      mload(0x40)\n      dup1\n      swap2\n      sub\n      swap1\n      return\n        /* \"escrow.sol\":484:506  bool public isSellerIn */\n    tag_9:\n      callvalue\n      dup1\n      iszero\n      tag_41\n      jumpi\n      0x00\n      dup1\n      revert\n    tag_41:\n      pop\n      tag_42\n      tag_43\n      jump\t// in\n    tag_42:\n      mload(0x40)\n      tag_44\n      swap2\n      swap1\n      tag_45\n      jump\t// in\n    tag_44:\n      mload(0x40)\n      dup1\n      swap2\n      sub\n      swap1\n      return\n        /* \"escrow.sol\":193:213  uint256 public price */\n    tag_10:\n      callvalue\n      dup1\n      iszero\n      tag_46\n      jumpi\n      0x00\n      dup1\n      revert\n    tag_46:\n      pop\n      tag_47\n      tag_48\n      jump\t// in\n    tag_47:\n      mload(0x40)\n      tag_49\n      swap2\n      swap1\n      tag_50\n      jump\t// in\n    tag_49:\n      mload(0x40)\n      dup1\n      swap2\n      sub\n      swap1\n      return\n        /* \"escrow.sol\":456:477  bool public isBuyerIn */\n    tag_11:\n      callvalue\n      dup1\n      iszero\n      tag_51\n      jumpi\n      0x00\n      dup1\n      revert\n    tag_51:\n      pop\n      tag_52\n      tag_53\n      jump\t// in\n    tag_52:\n      mload(0x40)\n      tag_54\n      swap2\n      swap1\n      tag_45\n      jump\t// in\n    tag_54:\n      mload(0x40)\n      dup1\n      swap2\n      sub\n      swap1\n      return\n        /* \"escrow.sol\":1531:1776  function deposit() public payable buyerOnly {... */\n    tag_12:\n      tag_55\n      tag_56\n      jump\t// in\n    tag_55:\n      stop\n        /* \"escrow.sol\":220:243  address public dispute1 */\n    tag_13:\n      callvalue\n      dup1\n      iszero\n      tag_57\n      jumpi\n      0x00\n      dup1\n      revert\n    tag_57:\n      pop\n      tag_58\n      tag_59\n      jump\t// in\n    tag_58:\n      mload(0x40)\n      tag_60\n      swap2\n      swap1\n      tag_34\n      jump\t// in\n    tag_60:\n      mload(0x40)\n      dup1\n      swap2\n      sub\n      swap1\n      return\n        /* \"escrow.sol\":127:156  address payable public seller */\n    tag_17:\n      0x01\n      0x00\n      swap1\n      sload\n      swap1\n      0x0100\n      exp\n      swap1\n      div\n      0xffffffffffffffffffffffffffffffffffffffff\n      and\n      dup2\n      jump\t// out\n        /* \"escrow.sol\":413:449  transactionState public currentState */\n    tag_22:\n      0x05\n      0x14\n      swap1\n      sload\n      swap1\n      0x0100\n      exp\n      swap1\n      div\n      0xff\n      and\n      dup2\n      jump\t// out\n        /* \"escrow.sol\":1784:2062  function confirmDelivery() public payable buyerOnly {... */\n    tag_26:\n        /* \"escrow.sol\":588:593  buyer */\n      0x00\n      dup1\n      sload\n      swap1\n      0x0100\n      exp\n      swap1\n      div\n      0xffffffffffffffffffffffffffffffffffffffff\n      and\n        /* \"escrow.sol\":574:593  msg.sender == buyer */\n      0xffffffffffffffffffffffffffffffffffffffff\n      and\n        /* \"escrow.sol\":574:584  msg.sender */\n      caller\n        /* \"escrow.sol\":574:593  msg.sender == buyer */\n      0xffffffffffffffffffffffffffffffffffffffff\n      and\n      eq\n        /* \"escrow.sol\":566:625  require(msg.sender == buyer, \"Only buyer can call message\") */\n      tag_62\n      jumpi\n      mload(0x40)\n      0x08c379a000000000000000000000000000000000000000000000000000000000\n      dup2\n      mstore\n      0x04\n      add\n      tag_63\n      swap1\n      tag_64\n      jump\t// in\n    tag_63:\n      mload(0x40)\n      dup1\n      swap2\n      sub\n      swap1\n      revert\n    tag_62:\n        /* \"escrow.sol\":1885:1919  transactionState.AWAITING_DELIVERY */\n      0x02\n        /* \"escrow.sol\":1869:1919  currentState == transactionState.AWAITING_DELIVERY */\n      0x03\n      dup2\n      gt\n      iszero\n      tag_66\n      jumpi\n      tag_67\n      tag_68\n      jump\t// in\n    tag_67:\n    tag_66:\n        /* \"escrow.sol\":1869:1881  currentState */\n      0x05\n      0x14\n      swap1\n      sload\n      swap1\n      0x0100\n      exp\n      swap1\n      div\n      0xff\n      and\n        /* \"escrow.sol\":1869:1919  currentState == transactionState.AWAITING_DELIVERY */\n      0x03\n      dup2\n      gt\n      iszero\n      tag_69\n      jumpi\n      tag_70\n      tag_68\n      jump\t// in\n    tag_70:\n    tag_69:\n      eq\n        /* \"escrow.sol\":1847:1970  require(... */\n      tag_71\n      jumpi\n      mload(0x40)\n      0x08c379a000000000000000000000000000000000000000000000000000000000\n      dup2\n      mstore\n      0x04\n      add\n      tag_72\n      swap1\n      tag_73\n      jump\t// in\n    tag_72:\n      mload(0x40)\n      dup1\n      swap2\n      sub\n      swap1\n      revert\n    tag_71:\n        /* \"escrow.sol\":1981:1987  seller */\n      0x01\n      0x00\n      swap1\n      sload\n      swap1\n      0x0100\n      exp\n      swap1\n      div\n      0xffffffffffffffffffffffffffffffffffffffff\n      and\n        /* \"escrow.sol\":1981:1996  seller.transfer */\n      0xffffffffffffffffffffffffffffffffffffffff\n      and\n        /* \"escrow.sol\":1981:2003  seller.transfer(price) */\n      0x08fc\n        /* \"escrow.sol\":1997:2002  price */\n      sload(0x03)\n        /* \"escrow.sol\":1981:2003  seller.transfer(price) */\n      swap1\n      dup2\n      iszero\n      mul\n      swap1\n      mload(0x40)\n      0x00\n      mload(0x40)\n      dup1\n      dup4\n      sub\n      dup2\n      dup6\n      dup9\n      dup9\n      call\n      swap4\n      pop\n      pop\n      pop\n      pop\n      iszero\n      dup1\n      iszero\n      tag_75\n      jumpi\n      returndatasize\n      0x00\n      dup1\n      returndatacopy\n      revert(0x00, returndatasize)\n    tag_75:\n      pop\n        /* \"escrow.sol\":2029:2054  transactionState.COMPLETE */\n      0x03\n        /* \"escrow.sol\":2014:2026  currentState */\n      0x05\n      0x14\n        /* \"escrow.sol\":2014:2054  currentState = transactionState.COMPLETE */\n      0x0100\n      exp\n      dup2\n      sload\n      dup2\n      0xff\n      mul\n      not\n      and\n      swap1\n      dup4\n      0x03\n      dup2\n      gt\n      iszero\n      tag_76\n      jumpi\n      tag_77\n      tag_68\n      jump\t// in\n    tag_77:\n    tag_76:\n      mul\n      or\n      swap1\n      sstore\n      pop\n        /* \"escrow.sol\":1784:2062  function confirmDelivery() public payable buyerOnly {... */\n      jump\t// out\n        /* \"escrow.sol\":1200:1523  function initEscrow() public escrowNotInit {... */\n    tag_29:\n        /* \"escrow.sol\":839:869  transactionState.NOT_INITIATED */\n      0x00\n        /* \"escrow.sol\":823:869  currentState == transactionState.NOT_INITIATED */\n      0x03\n      dup2\n      gt\n      iszero\n      tag_79\n      jumpi\n      tag_80\n      tag_68\n      jump\t// in\n    tag_80:\n    tag_79:\n        /* \"escrow.sol\":823:835  currentState */\n      0x05\n      0x14\n      swap1\n      sload\n      swap1\n      0x0100\n      exp\n      swap1\n      div\n      0xff\n      and\n        /* \"escrow.sol\":823:869  currentState == transactionState.NOT_INITIATED */\n      0x03\n      dup2\n      gt\n      iszero\n      tag_81\n      jumpi\n      tag_82\n      tag_68\n      jump\t// in\n    tag_82:\n    tag_81:\n      eq\n        /* \"escrow.sol\":815:870  require(currentState == transactionState.NOT_INITIATED) */\n      tag_83\n      jumpi\n      0x00\n      dup1\n      revert\n    tag_83:\n        /* \"escrow.sol\":1272:1277  buyer */\n      0x00\n      dup1\n      sload\n      swap1\n      0x0100\n      exp\n      swap1\n      div\n      0xffffffffffffffffffffffffffffffffffffffff\n      and\n        /* \"escrow.sol\":1258:1277  msg.sender == buyer */\n      0xffffffffffffffffffffffffffffffffffffffff\n      and\n        /* \"escrow.sol\":1258:1268  msg.sender */\n      caller\n        /* \"escrow.sol\":1258:1277  msg.sender == buyer */\n      0xffffffffffffffffffffffffffffffffffffffff\n      and\n      sub\n        /* \"escrow.sol\":1254:1322  if (msg.sender == buyer) {... */\n      tag_85\n      jumpi\n        /* \"escrow.sol\":1306:1310  true */\n      0x01\n        /* \"escrow.sol\":1294:1303  isBuyerIn */\n      0x05\n      0x15\n        /* \"escrow.sol\":1294:1310  isBuyerIn = true */\n      0x0100\n      exp\n      dup2\n      sload\n      dup2\n      0xff\n      mul\n      not\n      and\n      swap1\n      dup4\n      iszero\n      iszero\n      mul\n      or\n      swap1\n      sstore\n      pop\n        /* \"escrow.sol\":1254:1322  if (msg.sender == buyer) {... */\n    tag_85:\n        /* \"escrow.sol\":1350:1356  seller */\n      0x01\n      0x00\n      swap1\n      sload\n      swap1\n      0x0100\n      exp\n      swap1\n      div\n      0xffffffffffffffffffffffffffffffffffffffff\n      and\n        /* \"escrow.sol\":1336:1356  msg.sender == seller */\n      0xffffffffffffffffffffffffffffffffffffffff\n      and\n        /* \"escrow.sol\":1336:1346  msg.sender */\n      caller\n        /* \"escrow.sol\":1336:1356  msg.sender == seller */\n      0xffffffffffffffffffffffffffffffffffffffff\n      and\n      sub\n        /* \"escrow.sol\":1332:1402  if (msg.sender == seller) {... */\n      tag_86\n      jumpi\n        /* \"escrow.sol\":1386:1390  true */\n      0x01\n        /* \"escrow.sol\":1373:1383  isSellerIn */\n      0x05\n      0x16\n        /* \"escrow.sol\":1373:1390  isSellerIn = true */\n      0x0100\n      exp\n      dup2\n      sload\n      dup2\n      0xff\n      mul\n      not\n      and\n      swap1\n      dup4\n      iszero\n      iszero\n      mul\n      or\n      swap1\n      sstore\n      pop\n        /* \"escrow.sol\":1332:1402  if (msg.sender == seller) {... */\n    tag_86:\n        /* \"escrow.sol\":1416:1425  isBuyerIn */\n      0x05\n      0x15\n      swap1\n      sload\n      swap1\n      0x0100\n      exp\n      swap1\n      div\n      0xff\n      and\n        /* \"escrow.sol\":1416:1439  isBuyerIn && isSellerIn */\n      dup1\n      iszero\n      tag_87\n      jumpi\n      pop\n        /* \"escrow.sol\":1429:1439  isSellerIn */\n      0x05\n      0x16\n      swap1\n      sload\n      swap1\n      0x0100\n      exp\n      swap1\n      div\n      0xff\n      and\n        /* \"escrow.sol\":1416:1439  isBuyerIn && isSellerIn */\n    tag_87:\n        /* \"escrow.sol\":1412:1516  if (isBuyerIn && isSellerIn) {... */\n      iszero\n      tag_88\n      jumpi\n        /* \"escrow.sol\":1471:1504  transactionState.AWAITING_PAYMENT */\n      0x01\n        /* \"escrow.sol\":1456:1468  currentState */\n      0x05\n      0x14\n        /* \"escrow.sol\":1456:1504  currentState = transactionState.AWAITING_PAYMENT */\n      0x0100\n      exp\n      dup2\n      sload\n      dup2\n      0xff\n      mul\n      not\n      and\n      swap1\n      dup4\n      0x03\n      dup2\n      gt\n      iszero\n      tag_89\n      jumpi\n      tag_90\n      tag_68\n      jump\t// in\n    tag_90:\n    tag_89:\n      mul\n      or\n      swap1\n      sstore\n      pop\n        /* \"escrow.sol\":1412:1516  if (isBuyerIn && isSellerIn) {... */\n    tag_88:\n        /* \"escrow.sol\":1200:1523  function initEscrow() public escrowNotInit {... */\n      jump\t// out\n        /* \"escrow.sol\":100:120  address public buyer */\n    tag_32:\n      0x00\n      dup1\n      sload\n      swap1\n      0x0100\n      exp\n      swap1\n      div\n      0xffffffffffffffffffffffffffffffffffffffff\n      and\n      dup2\n      jump\t// out\n        /* \"escrow.sol\":2070:2365  function returnDeposit() public payable buyerOnly {... */\n    tag_36:\n        /* \"escrow.sol\":588:593  buyer */\n      0x00\n      dup1\n      sload\n      swap1\n      0x0100\n      exp\n      swap1\n      div\n      0xffffffffffffffffffffffffffffffffffffffff\n      and\n        /* \"escrow.sol\":574:593  msg.sender == buyer */\n      0xffffffffffffffffffffffffffffffffffffffff\n      and\n        /* \"escrow.sol\":574:584  msg.sender */\n      caller\n        /* \"escrow.sol\":574:593  msg.sender == buyer */\n      0xffffffffffffffffffffffffffffffffffffffff\n      and\n      eq\n        /* \"escrow.sol\":566:625  require(msg.sender == buyer, \"Only buyer can call message\") */\n      tag_92\n      jumpi\n      mload(0x40)\n      0x08c379a000000000000000000000000000000000000000000000000000000000\n      dup2\n      mstore\n      0x04\n      add\n      tag_93\n      swap1\n      tag_64\n      jump\t// in\n    tag_93:\n      mload(0x40)\n      dup1\n      swap2\n      sub\n      swap1\n      revert\n    tag_92:\n        /* \"escrow.sol\":2169:2203  transactionState.AWAITING_DELIVERY */\n      0x02\n        /* \"escrow.sol\":2153:2203  currentState == transactionState.AWAITING_DELIVERY */\n      0x03\n      dup2\n      gt\n      iszero\n      tag_95\n      jumpi\n      tag_96\n      tag_68\n      jump\t// in\n    tag_96:\n    tag_95:\n        /* \"escrow.sol\":2153:2165  currentState */\n      0x05\n      0x14\n      swap1\n      sload\n      swap1\n      0x0100\n      exp\n      swap1\n      div\n      0xff\n      and\n        /* \"escrow.sol\":2153:2203  currentState == transactionState.AWAITING_DELIVERY */\n      0x03\n      dup2\n      gt\n      iszero\n      tag_97\n      jumpi\n      tag_98\n      tag_68\n      jump\t// in\n    tag_98:\n    tag_97:\n      eq\n        /* \"escrow.sol\":2131:2260  require(... */\n      tag_99\n      jumpi\n      mload(0x40)\n      0x08c379a000000000000000000000000000000000000000000000000000000000\n      dup2\n      mstore\n      0x04\n      add\n      tag_100\n      swap1\n      tag_101\n      jump\t// in\n    tag_100:\n      mload(0x40)\n      dup1\n      swap2\n      sub\n      swap1\n      revert\n    tag_99:\n        /* \"escrow.sol\":2279:2289  msg.sender */\n      caller\n        /* \"escrow.sol\":2271:2299  payable(msg.sender).transfer */\n      0xffffffffffffffffffffffffffffffffffffffff\n      and\n        /* \"escrow.sol\":2271:2306  payable(msg.sender).transfer(price) */\n      0x08fc\n        /* \"escrow.sol\":2300:2305  price */\n      sload(0x03)\n        /* \"escrow.sol\":2271:2306  payable(msg.sender).transfer(price) */\n      swap1\n      dup2\n      iszero\n      mul\n      swap1\n      mload(0x40)\n      0x00\n      mload(0x40)\n      dup1\n      dup4\n      sub\n      dup2\n      dup6\n      dup9\n      dup9\n      call\n      swap4\n      pop\n      pop\n      pop\n      pop\n      iszero\n      dup1\n      iszero\n      tag_103\n      jumpi\n      returndatasize\n      0x00\n      dup1\n      returndatacopy\n      revert(0x00, returndatasize)\n    tag_103:\n      pop\n        /* \"escrow.sol\":2332:2357  transactionState.COMPLETE */\n      0x03\n        /* \"escrow.sol\":2317:2329  currentState */\n      0x05\n      0x14\n        /* \"escrow.sol\":2317:2357  currentState = transactionState.COMPLETE */\n      0x0100\n      exp\n      dup2\n      sload\n      dup2\n      0xff\n      mul\n      not\n      and\n      swap1\n      dup4\n      0x03\n      dup2\n      gt\n      iszero\n      tag_104\n      jumpi\n      tag_105\n      tag_68\n      jump\t// in\n    tag_105:\n    tag_104:\n      mul\n      or\n      swap1\n      sstore\n      pop\n        /* \"escrow.sol\":2070:2365  function returnDeposit() public payable buyerOnly {... */\n      jump\t// out\n        /* \"escrow.sol\":250:273  address public dispute2 */\n    tag_39:\n      0x05\n      0x00\n      swap1\n      sload\n      swap1\n      0x0100\n      exp\n      swap1\n      div\n      0xffffffffffffffffffffffffffffffffffffffff\n      and\n      dup2\n      jump\t// out\n        /* \"escrow.sol\":484:506  bool public isSellerIn */\n    tag_43:\n      0x05\n      0x16\n      swap1\n      sload\n      swap1\n      0x0100\n      exp\n      swap1\n      div\n      0xff\n      and\n      dup2\n      jump\t// out\n        /* \"escrow.sol\":193:213  uint256 public price */\n    tag_48:\n      sload(0x03)\n      dup2\n      jump\t// out\n        /* \"escrow.sol\":456:477  bool public isBuyerIn */\n    tag_53:\n      0x05\n      0x15\n      swap1\n      sload\n      swap1\n      0x0100\n      exp\n      swap1\n      div\n      0xff\n      and\n      dup2\n      jump\t// out\n        /* \"escrow.sol\":1531:1776  function deposit() public payable buyerOnly {... */\n    tag_56:\n        /* \"escrow.sol\":588:593  buyer */\n      0x00\n      dup1\n      sload\n      swap1\n      0x0100\n      exp\n      swap1\n      div\n      0xffffffffffffffffffffffffffffffffffffffff\n      and\n        /* \"escrow.sol\":574:593  msg.sender == buyer */\n      0xffffffffffffffffffffffffffffffffffffffff\n      and\n        /* \"escrow.sol\":574:584  msg.sender */\n      caller\n        /* \"escrow.sol\":574:593  msg.sender == buyer */\n      0xffffffffffffffffffffffffffffffffffffffff\n      and\n      eq\n        /* \"escrow.sol\":566:625  require(msg.sender == buyer, \"Only buyer can call message\") */\n      tag_107\n      jumpi\n      mload(0x40)\n      0x08c379a000000000000000000000000000000000000000000000000000000000\n      dup2\n      mstore\n      0x04\n      add\n      tag_108\n      swap1\n      tag_64\n      jump\t// in\n    tag_108:\n      mload(0x40)\n      dup1\n      swap2\n      sub\n      swap1\n      revert\n    tag_107:\n        /* \"escrow.sol\":1610:1643  transactionState.AWAITING_PAYMENT */\n      0x01\n        /* \"escrow.sol\":1594:1643  currentState == transactionState.AWAITING_PAYMENT */\n      0x03\n      dup2\n      gt\n      iszero\n      tag_110\n      jumpi\n      tag_111\n      tag_68\n      jump\t// in\n    tag_111:\n    tag_110:\n        /* \"escrow.sol\":1594:1606  currentState */\n      0x05\n      0x14\n      swap1\n      sload\n      swap1\n      0x0100\n      exp\n      swap1\n      div\n      0xff\n      and\n        /* \"escrow.sol\":1594:1643  currentState == transactionState.AWAITING_PAYMENT */\n      0x03\n      dup2\n      gt\n      iszero\n      tag_112\n      jumpi\n      tag_113\n      tag_68\n      jump\t// in\n    tag_113:\n    tag_112:\n      eq\n        /* \"escrow.sol\":1586:1644  require(currentState == transactionState.AWAITING_PAYMENT) */\n      tag_114\n      jumpi\n      0x00\n      dup1\n      revert\n    tag_114:\n        /* \"escrow.sol\":1676:1681  price */\n      sload(0x03)\n        /* \"escrow.sol\":1663:1672  msg.value */\n      callvalue\n        /* \"escrow.sol\":1663:1681  msg.value == price */\n      eq\n        /* \"escrow.sol\":1655:1708  require(msg.value == price, \"Wrong deposited amount\") */\n      tag_115\n      jumpi\n      mload(0x40)\n      0x08c379a000000000000000000000000000000000000000000000000000000000\n      dup2\n      mstore\n      0x04\n      add\n      tag_116\n      swap1\n      tag_117\n      jump\t// in\n    tag_116:\n      mload(0x40)\n      dup1\n      swap2\n      sub\n      swap1\n      revert\n    tag_115:\n        /* \"escrow.sol\":1734:1768  transactionState.AWAITING_DELIVERY */\n      0x02\n        /* \"escrow.sol\":1719:1731  currentState */\n      0x05\n      0x14\n        /* \"escrow.sol\":1719:1768  currentState = transactionState.AWAITING_DELIVERY */\n      0x0100\n      exp\n      dup2\n      sload\n      dup2\n      0xff\n      mul\n      not\n      and\n      swap1\n      dup4\n      0x03\n      dup2\n      gt\n      iszero\n      tag_118\n      jumpi\n      tag_119\n      tag_68\n      jump\t// in\n    tag_119:\n    tag_118:\n      mul\n      or\n      swap1\n      sstore\n      pop\n        /* \"escrow.sol\":1531:1776  function deposit() public payable buyerOnly {... */\n      jump\t// out\n        /* \"escrow.sol\":220:243  address public dispute1 */\n    tag_59:\n      0x04\n      0x00\n      swap1\n      sload\n      swap1\n      0x0100\n      exp\n      swap1\n      div\n      0xffffffffffffffffffffffffffffffffffffffff\n      and\n      dup2\n      jump\t// out\n        /* \"#utility.yul\":7:133   */\n    tag_120:\n        /* \"#utility.yul\":44:51   */\n      0x00\n        /* \"#utility.yul\":84:126   */\n      0xffffffffffffffffffffffffffffffffffffffff\n        /* \"#utility.yul\":77:82   */\n      dup3\n        /* \"#utility.yul\":73:127   */\n      and\n        /* \"#utility.yul\":62:127   */\n      swap1\n      pop\n        /* \"#utility.yul\":7:133   */\n      swap2\n      swap1\n      pop\n      jump\t// out\n        /* \"#utility.yul\":139:243   */\n    tag_121:\n        /* \"#utility.yul\":184:191   */\n      0x00\n        /* \"#utility.yul\":213:237   */\n      tag_145\n        /* \"#utility.yul\":231:236   */\n      dup3\n        /* \"#utility.yul\":213:237   */\n      tag_120\n      jump\t// in\n    tag_145:\n        /* \"#utility.yul\":202:237   */\n      swap1\n      pop\n        /* \"#utility.yul\":139:243   */\n      swap2\n      swap1\n      pop\n      jump\t// out\n        /* \"#utility.yul\":249:391   */\n    tag_122:\n        /* \"#utility.yul\":352:384   */\n      tag_147\n        /* \"#utility.yul\":378:383   */\n      dup2\n        /* \"#utility.yul\":352:384   */\n      tag_121\n      jump\t// in\n    tag_147:\n        /* \"#utility.yul\":347:350   */\n      dup3\n        /* \"#utility.yul\":340:385   */\n      mstore\n        /* \"#utility.yul\":249:391   */\n      pop\n      pop\n      jump\t// out\n        /* \"#utility.yul\":397:651   */\n    tag_19:\n        /* \"#utility.yul\":506:510   */\n      0x00\n        /* \"#utility.yul\":544:546   */\n      0x20\n        /* \"#utility.yul\":533:542   */\n      dup3\n        /* \"#utility.yul\":529:547   */\n      add\n        /* \"#utility.yul\":521:547   */\n      swap1\n      pop\n        /* \"#utility.yul\":557:644   */\n      tag_149\n        /* \"#utility.yul\":641:642   */\n      0x00\n        /* \"#utility.yul\":630:639   */\n      dup4\n        /* \"#utility.yul\":626:643   */\n      add\n        /* \"#utility.yul\":617:623   */\n      dup5\n        /* \"#utility.yul\":557:644   */\n      tag_122\n      jump\t// in\n    tag_149:\n        /* \"#utility.yul\":397:651   */\n      swap3\n      swap2\n      pop\n      pop\n      jump\t// out\n        /* \"#utility.yul\":657:837   */\n    tag_68:\n        /* \"#utility.yul\":705:782   */\n      0x4e487b7100000000000000000000000000000000000000000000000000000000\n        /* \"#utility.yul\":702:703   */\n      0x00\n        /* \"#utility.yul\":695:783   */\n      mstore\n        /* \"#utility.yul\":802:806   */\n      0x21\n        /* \"#utility.yul\":799:800   */\n      0x04\n        /* \"#utility.yul\":792:807   */\n      mstore\n        /* \"#utility.yul\":826:830   */\n      0x24\n        /* \"#utility.yul\":823:824   */\n      0x00\n        /* \"#utility.yul\":816:831   */\n      revert\n        /* \"#utility.yul\":843:967   */\n    tag_123:\n        /* \"#utility.yul\":935:936   */\n      0x04\n        /* \"#utility.yul\":928:933   */\n      dup2\n        /* \"#utility.yul\":925:937   */\n      lt\n        /* \"#utility.yul\":915:961   */\n      tag_152\n      jumpi\n        /* \"#utility.yul\":941:959   */\n      tag_153\n      tag_68\n      jump\t// in\n    tag_153:\n        /* \"#utility.yul\":915:961   */\n    tag_152:\n        /* \"#utility.yul\":843:967   */\n      pop\n      jump\t// out\n        /* \"#utility.yul\":973:1122   */\n    tag_124:\n        /* \"#utility.yul\":1029:1036   */\n      0x00\n        /* \"#utility.yul\":1058:1063   */\n      dup2\n        /* \"#utility.yul\":1047:1063   */\n      swap1\n      pop\n        /* \"#utility.yul\":1064:1116   */\n      tag_155\n        /* \"#utility.yul\":1110:1115   */\n      dup3\n        /* \"#utility.yul\":1064:1116   */\n      tag_123\n      jump\t// in\n    tag_155:\n        /* \"#utility.yul\":973:1122   */\n      swap2\n      swap1\n      pop\n      jump\t// out\n        /* \"#utility.yul\":1128:1277   */\n    tag_125:\n        /* \"#utility.yul\":1195:1204   */\n      0x00\n        /* \"#utility.yul\":1228:1271   */\n      tag_157\n        /* \"#utility.yul\":1265:1270   */\n      dup3\n        /* \"#utility.yul\":1228:1271   */\n      tag_124\n      jump\t// in\n    tag_157:\n        /* \"#utility.yul\":1215:1271   */\n      swap1\n      pop\n        /* \"#utility.yul\":1128:1277   */\n      swap2\n      swap1\n      pop\n      jump\t// out\n        /* \"#utility.yul\":1283:1448   */\n    tag_126:\n        /* \"#utility.yul\":1387:1441   */\n      tag_159\n        /* \"#utility.yul\":1435:1440   */\n      dup2\n        /* \"#utility.yul\":1387:1441   */\n      tag_125\n      jump\t// in\n    tag_159:\n        /* \"#utility.yul\":1382:1385   */\n      dup3\n        /* \"#utility.yul\":1375:1442   */\n      mstore\n        /* \"#utility.yul\":1283:1448   */\n      pop\n      pop\n      jump\t// out\n        /* \"#utility.yul\":1454:1710   */\n    tag_24:\n        /* \"#utility.yul\":1564:1568   */\n      0x00\n        /* \"#utility.yul\":1602:1604   */\n      0x20\n        /* \"#utility.yul\":1591:1600   */\n      dup3\n        /* \"#utility.yul\":1587:1605   */\n      add\n        /* \"#utility.yul\":1579:1605   */\n      swap1\n      pop\n        /* \"#utility.yul\":1615:1703   */\n      tag_161\n        /* \"#utility.yul\":1700:1701   */\n      0x00\n        /* \"#utility.yul\":1689:1698   */\n      dup4\n        /* \"#utility.yul\":1685:1702   */\n      add\n        /* \"#utility.yul\":1676:1682   */\n      dup5\n        /* \"#utility.yul\":1615:1703   */\n      tag_126\n      jump\t// in\n    tag_161:\n        /* \"#utility.yul\":1454:1710   */\n      swap3\n      swap2\n      pop\n      pop\n      jump\t// out\n        /* \"#utility.yul\":1716:1812   */\n    tag_127:\n        /* \"#utility.yul\":1753:1760   */\n      0x00\n        /* \"#utility.yul\":1782:1806   */\n      tag_163\n        /* \"#utility.yul\":1800:1805   */\n      dup3\n        /* \"#utility.yul\":1782:1806   */\n      tag_120\n      jump\t// in\n    tag_163:\n        /* \"#utility.yul\":1771:1806   */\n      swap1\n      pop\n        /* \"#utility.yul\":1716:1812   */\n      swap2\n      swap1\n      pop\n      jump\t// out\n        /* \"#utility.yul\":1818:1936   */\n    tag_128:\n        /* \"#utility.yul\":1905:1929   */\n      tag_165\n        /* \"#utility.yul\":1923:1928   */\n      dup2\n        /* \"#utility.yul\":1905:1929   */\n      tag_127\n      jump\t// in\n    tag_165:\n        /* \"#utility.yul\":1900:1903   */\n      dup3\n        /* \"#utility.yul\":1893:1930   */\n      mstore\n        /* \"#utility.yul\":1818:1936   */\n      pop\n      pop\n      jump\t// out\n        /* \"#utility.yul\":1942:2164   */\n    tag_34:\n        /* \"#utility.yul\":2035:2039   */\n      0x00\n        /* \"#utility.yul\":2073:2075   */\n      0x20\n        /* \"#utility.yul\":2062:2071   */\n      dup3\n        /* \"#utility.yul\":2058:2076   */\n      add\n        /* \"#utility.yul\":2050:2076   */\n      swap1\n      pop\n        /* \"#utility.yul\":2086:2157   */\n      tag_167\n        /* \"#utility.yul\":2154:2155   */\n      0x00\n        /* \"#utility.yul\":2143:2152   */\n      dup4\n        /* \"#utility.yul\":2139:2156   */\n      add\n        /* \"#utility.yul\":2130:2136   */\n      dup5\n        /* \"#utility.yul\":2086:2157   */\n      tag_128\n      jump\t// in\n    tag_167:\n        /* \"#utility.yul\":1942:2164   */\n      swap3\n      swap2\n      pop\n      pop\n      jump\t// out\n        /* \"#utility.yul\":2170:2260   */\n    tag_129:\n        /* \"#utility.yul\":2204:2211   */\n      0x00\n        /* \"#utility.yul\":2247:2252   */\n      dup2\n        /* \"#utility.yul\":2240:2253   */\n      iszero\n        /* \"#utility.yul\":2233:2254   */\n      iszero\n        /* \"#utility.yul\":2222:2254   */\n      swap1\n      pop\n        /* \"#utility.yul\":2170:2260   */\n      swap2\n      swap1\n      pop\n      jump\t// out\n        /* \"#utility.yul\":2266:2375   */\n    tag_130:\n        /* \"#utility.yul\":2347:2368   */\n      tag_170\n        /* \"#utility.yul\":2362:2367   */\n      dup2\n        /* \"#utility.yul\":2347:2368   */\n      tag_129\n      jump\t// in\n    tag_170:\n        /* \"#utility.yul\":2342:2345   */\n      dup3\n        /* \"#utility.yul\":2335:2369   */\n      mstore\n        /* \"#utility.yul\":2266:2375   */\n      pop\n      pop\n      jump\t// out\n        /* \"#utility.yul\":2381:2591   */\n    tag_45:\n        /* \"#utility.yul\":2468:2472   */\n      0x00\n        /* \"#utility.yul\":2506:2508   */\n      0x20\n        /* \"#utility.yul\":2495:2504   */\n      dup3\n        /* \"#utility.yul\":2491:2509   */\n      add\n        /* \"#utility.yul\":2483:2509   */\n      swap1\n      pop\n        /* \"#utility.yul\":2519:2584   */\n      tag_172\n        /* \"#utility.yul\":2581:2582   */\n      0x00\n        /* \"#utility.yul\":2570:2579   */\n      dup4\n        /* \"#utility.yul\":2566:2583   */\n      add\n        /* \"#utility.yul\":2557:2563   */\n      dup5\n        /* \"#utility.yul\":2519:2584   */\n      tag_130\n      jump\t// in\n    tag_172:\n        /* \"#utility.yul\":2381:2591   */\n      swap3\n      swap2\n      pop\n      pop\n      jump\t// out\n        /* \"#utility.yul\":2597:2674   */\n    tag_131:\n        /* \"#utility.yul\":2634:2641   */\n      0x00\n        /* \"#utility.yul\":2663:2668   */\n      dup2\n        /* \"#utility.yul\":2652:2668   */\n      swap1\n      pop\n        /* \"#utility.yul\":2597:2674   */\n      swap2\n      swap1\n      pop\n      jump\t// out\n        /* \"#utility.yul\":2680:2798   */\n    tag_132:\n        /* \"#utility.yul\":2767:2791   */\n      tag_175\n        /* \"#utility.yul\":2785:2790   */\n      dup2\n        /* \"#utility.yul\":2767:2791   */\n      tag_131\n      jump\t// in\n    tag_175:\n        /* \"#utility.yul\":2762:2765   */\n      dup3\n        /* \"#utility.yul\":2755:2792   */\n      mstore\n        /* \"#utility.yul\":2680:2798   */\n      pop\n      pop\n      jump\t// out\n        /* \"#utility.yul\":2804:3026   */\n    tag_50:\n        /* \"#utility.yul\":2897:2901   */\n      0x00\n        /* \"#utility.yul\":2935:2937   */\n      0x20\n        /* \"#utility.yul\":2924:2933   */\n      dup3\n        /* \"#utility.yul\":2920:2938   */\n      add\n        /* \"#utility.yul\":2912:2938   */\n      swap1\n      pop\n        /* \"#utility.yul\":2948:3019   */\n      tag_177\n        /* \"#utility.yul\":3016:3017   */\n      0x00\n        /* \"#utility.yul\":3005:3014   */\n      dup4\n        /* \"#utility.yul\":3001:3018   */\n      add\n        /* \"#utility.yul\":2992:2998   */\n      dup5\n        /* \"#utility.yul\":2948:3019   */\n      tag_132\n      jump\t// in\n    tag_177:\n        /* \"#utility.yul\":2804:3026   */\n      swap3\n      swap2\n      pop\n      pop\n      jump\t// out\n        /* \"#utility.yul\":3032:3201   */\n    tag_133:\n        /* \"#utility.yul\":3116:3127   */\n      0x00\n        /* \"#utility.yul\":3150:3156   */\n      dup3\n        /* \"#utility.yul\":3145:3148   */\n      dup3\n        /* \"#utility.yul\":3138:3157   */\n      mstore\n        /* \"#utility.yul\":3190:3194   */\n      0x20\n        /* \"#utility.yul\":3185:3188   */\n      dup3\n        /* \"#utility.yul\":3181:3195   */\n      add\n        /* \"#utility.yul\":3166:3195   */\n      swap1\n      pop\n        /* \"#utility.yul\":3032:3201   */\n      swap3\n      swap2\n      pop\n      pop\n      jump\t// out\n        /* \"#utility.yul\":3207:3384   */\n    tag_134:\n        /* \"#utility.yul\":3347:3376   */\n      0x4f6e6c792062757965722063616e2063616c6c206d6573736167650000000000\n        /* \"#utility.yul\":3343:3344   */\n      0x00\n        /* \"#utility.yul\":3335:3341   */\n      dup3\n        /* \"#utility.yul\":3331:3345   */\n      add\n        /* \"#utility.yul\":3324:3377   */\n      mstore\n        /* \"#utility.yul\":3207:3384   */\n      pop\n      jump\t// out\n        /* \"#utility.yul\":3390:3756   */\n    tag_135:\n        /* \"#utility.yul\":3532:3535   */\n      0x00\n        /* \"#utility.yul\":3553:3620   */\n      tag_181\n        /* \"#utility.yul\":3617:3619   */\n      0x1b\n        /* \"#utility.yul\":3612:3615   */\n      dup4\n        /* \"#utility.yul\":3553:3620   */\n      tag_133\n      jump\t// in\n    tag_181:\n        /* \"#utility.yul\":3546:3620   */\n      swap2\n      pop\n        /* \"#utility.yul\":3629:3722   */\n      tag_182\n        /* \"#utility.yul\":3718:3721   */\n      dup3\n        /* \"#utility.yul\":3629:3722   */\n      tag_134\n      jump\t// in\n    tag_182:\n        /* \"#utility.yul\":3747:3749   */\n      0x20\n        /* \"#utility.yul\":3742:3745   */\n      dup3\n        /* \"#utility.yul\":3738:3750   */\n      add\n        /* \"#utility.yul\":3731:3750   */\n      swap1\n      pop\n        /* \"#utility.yul\":3390:3756   */\n      swap2\n      swap1\n      pop\n      jump\t// out\n        /* \"#utility.yul\":3762:4181   */\n    tag_64:\n        /* \"#utility.yul\":3928:3932   */\n      0x00\n        /* \"#utility.yul\":3966:3968   */\n      0x20\n        /* \"#utility.yul\":3955:3964   */\n      dup3\n        /* \"#utility.yul\":3951:3969   */\n      add\n        /* \"#utility.yul\":3943:3969   */\n      swap1\n      pop\n        /* \"#utility.yul\":4015:4024   */\n      dup2\n        /* \"#utility.yul\":4009:4013   */\n      dup2\n        /* \"#utility.yul\":4005:4025   */\n      sub\n        /* \"#utility.yul\":4001:4002   */\n      0x00\n        /* \"#utility.yul\":3990:3999   */\n      dup4\n        /* \"#utility.yul\":3986:4003   */\n      add\n        /* \"#utility.yul\":3979:4026   */\n      mstore\n        /* \"#utility.yul\":4043:4174   */\n      tag_184\n        /* \"#utility.yul\":4169:4173   */\n      dup2\n        /* \"#utility.yul\":4043:4174   */\n      tag_135\n      jump\t// in\n    tag_184:\n        /* \"#utility.yul\":4035:4174   */\n      swap1\n      pop\n        /* \"#utility.yul\":3762:4181   */\n      swap2\n      swap1\n      pop\n      jump\t// out\n        /* \"#utility.yul\":4187:4360   */\n    tag_136:\n        /* \"#utility.yul\":4327:4352   */\n      0x43616e6e6f7420636f6e6669726d2064656c6976657279000000000000000000\n        /* \"#utility.yul\":4323:4324   */\n      0x00\n        /* \"#utility.yul\":4315:4321   */\n      dup3\n        /* \"#utility.yul\":4311:4325   */\n      add\n        /* \"#utility.yul\":4304:4353   */\n      mstore\n        /* \"#utility.yul\":4187:4360   */\n      pop\n      jump\t// out\n        /* \"#utility.yul\":4366:4732   */\n    tag_137:\n        /* \"#utility.yul\":4508:4511   */\n      0x00\n        /* \"#utility.yul\":4529:4596   */\n      tag_187\n        /* \"#utility.yul\":4593:4595   */\n      0x17\n        /* \"#utility.yul\":4588:4591   */\n      dup4\n        /* \"#utility.yul\":4529:4596   */\n      tag_133\n      jump\t// in\n    tag_187:\n        /* \"#utility.yul\":4522:4596   */\n      swap2\n      pop\n        /* \"#utility.yul\":4605:4698   */\n      tag_188\n        /* \"#utility.yul\":4694:4697   */\n      dup3\n        /* \"#utility.yul\":4605:4698   */\n      tag_136\n      jump\t// in\n    tag_188:\n        /* \"#utility.yul\":4723:4725   */\n      0x20\n        /* \"#utility.yul\":4718:4721   */\n      dup3\n        /* \"#utility.yul\":4714:4726   */\n      add\n        /* \"#utility.yul\":4707:4726   */\n      swap1\n      pop\n        /* \"#utility.yul\":4366:4732   */\n      swap2\n      swap1\n      pop\n      jump\t// out\n        /* \"#utility.yul\":4738:5157   */\n    tag_73:\n        /* \"#utility.yul\":4904:4908   */\n      0x00\n        /* \"#utility.yul\":4942:4944   */\n      0x20\n        /* \"#utility.yul\":4931:4940   */\n      dup3\n        /* \"#utility.yul\":4927:4945   */\n      add\n        /* \"#utility.yul\":4919:4945   */\n      swap1\n      pop\n        /* \"#utility.yul\":4991:5000   */\n      dup2\n        /* \"#utility.yul\":4985:4989   */\n      dup2\n        /* \"#utility.yul\":4981:5001   */\n      sub\n        /* \"#utility.yul\":4977:4978   */\n      0x00\n        /* \"#utility.yul\":4966:4975   */\n      dup4\n        /* \"#utility.yul\":4962:4979   */\n      add\n        /* \"#utility.yul\":4955:5002   */\n      mstore\n        /* \"#utility.yul\":5019:5150   */\n      tag_190\n        /* \"#utility.yul\":5145:5149   */\n      dup2\n        /* \"#utility.yul\":5019:5150   */\n      tag_137\n      jump\t// in\n    tag_190:\n        /* \"#utility.yul\":5011:5150   */\n      swap1\n      pop\n        /* \"#utility.yul\":4738:5157   */\n      swap2\n      swap1\n      pop\n      jump\t// out\n        /* \"#utility.yul\":5163:5342   */\n    tag_138:\n        /* \"#utility.yul\":5303:5334   */\n      0x43616e6e6f742077697468647261772061742074686973207374616765000000\n        /* \"#utility.yul\":5299:5300   */\n      0x00\n        /* \"#utility.yul\":5291:5297   */\n      dup3\n        /* \"#utility.yul\":5287:5301   */\n      add\n        /* \"#utility.yul\":5280:5335   */\n      mstore\n        /* \"#utility.yul\":5163:5342   */\n      pop\n      jump\t// out\n        /* \"#utility.yul\":5348:5714   */\n    tag_139:\n        /* \"#utility.yul\":5490:5493   */\n      0x00\n        /* \"#utility.yul\":5511:5578   */\n      tag_193\n        /* \"#utility.yul\":5575:5577   */\n      0x1d\n        /* \"#utility.yul\":5570:5573   */\n      dup4\n        /* \"#utility.yul\":5511:5578   */\n      tag_133\n      jump\t// in\n    tag_193:\n        /* \"#utility.yul\":5504:5578   */\n      swap2\n      pop\n        /* \"#utility.yul\":5587:5680   */\n      tag_194\n        /* \"#utility.yul\":5676:5679   */\n      dup3\n        /* \"#utility.yul\":5587:5680   */\n      tag_138\n      jump\t// in\n    tag_194:\n        /* \"#utility.yul\":5705:5707   */\n      0x20\n        /* \"#utility.yul\":5700:5703   */\n      dup3\n        /* \"#utility.yul\":5696:5708   */\n      add\n        /* \"#utility.yul\":5689:5708   */\n      swap1\n      pop\n        /* \"#utility.yul\":5348:5714   */\n      swap2\n      swap1\n      pop\n      jump\t// out\n        /* \"#utility.yul\":5720:6139   */\n    tag_101:\n        /* \"#utility.yul\":5886:5890   */\n      0x00\n        /* \"#utility.yul\":5924:5926   */\n      0x20\n        /* \"#utility.yul\":5913:5922   */\n      dup3\n        /* \"#utility.yul\":5909:5927   */\n      add\n        /* \"#utility.yul\":5901:5927   */\n      swap1\n      pop\n        /* \"#utility.yul\":5973:5982   */\n      dup2\n        /* \"#utility.yul\":5967:5971   */\n      dup2\n        /* \"#utility.yul\":5963:5983   */\n      sub\n        /* \"#utility.yul\":5959:5960   */\n      0x00\n        /* \"#utility.yul\":5948:5957   */\n      dup4\n        /* \"#utility.yul\":5944:5961   */\n      add\n        /* \"#utility.yul\":5937:5984   */\n      mstore\n        /* \"#utility.yul\":6001:6132   */\n      tag_196\n        /* \"#utility.yul\":6127:6131   */\n      dup2\n        /* \"#utility.yul\":6001:6132   */\n      tag_139\n      jump\t// in\n    tag_196:\n        /* \"#utility.yul\":5993:6132   */\n      swap1\n      pop\n        /* \"#utility.yul\":5720:6139   */\n      swap2\n      swap1\n      pop\n      jump\t// out\n        /* \"#utility.yul\":6145:6317   */\n    tag_140:\n        /* \"#utility.yul\":6285:6309   */\n      0x57726f6e67206465706f736974656420616d6f756e7400000000000000000000\n        /* \"#utility.yul\":6281:6282   */\n      0x00\n        /* \"#utility.yul\":6273:6279   */\n      dup3\n        /* \"#utility.yul\":6269:6283   */\n      add\n        /* \"#utility.yul\":6262:6310   */\n      mstore\n        /* \"#utility.yul\":6145:6317   */\n      pop\n      jump\t// out\n        /* \"#utility.yul\":6323:6689   */\n    tag_141:\n        /* \"#utility.yul\":6465:6468   */\n      0x00\n        /* \"#utility.yul\":6486:6553   */\n      tag_199\n        /* \"#utility.yul\":6550:6552   */\n      0x16\n        /* \"#utility.yul\":6545:6548   */\n      dup4\n        /* \"#utility.yul\":6486:6553   */\n      tag_133\n      jump\t// in\n    tag_199:\n        /* \"#utility.yul\":6479:6553   */\n      swap2\n      pop\n        /* \"#utility.yul\":6562:6655   */\n      tag_200\n        /* \"#utility.yul\":6651:6654   */\n      dup3\n        /* \"#utility.yul\":6562:6655   */\n      tag_140\n      jump\t// in\n    tag_200:\n        /* \"#utility.yul\":6680:6682   */\n      0x20\n        /* \"#utility.yul\":6675:6678   */\n      dup3\n        /* \"#utility.yul\":6671:6683   */\n      add\n        /* \"#utility.yul\":6664:6683   */\n      swap1\n      pop\n        /* \"#utility.yul\":6323:6689   */\n      swap2\n      swap1\n      pop\n      jump\t// out\n        /* \"#utility.yul\":6695:7114   */\n    tag_117:\n        /* \"#utility.yul\":6861:6865   */\n      0x00\n        /* \"#utility.yul\":6899:6901   */\n      0x20\n        /* \"#utility.yul\":6888:6897   */\n      dup3\n        /* \"#utility.yul\":6884:6902   */\n      add\n        /* \"#utility.yul\":6876:6902   */\n      swap1\n      pop\n        /* \"#utility.yul\":6948:6957   */\n      dup2\n        /* \"#utility.yul\":6942:6946   */\n      dup2\n        /* \"#utility.yul\":6938:6958   */\n      sub\n        /* \"#utility.yul\":6934:6935   */\n      0x00\n        /* \"#utility.yul\":6923:6932   */\n      dup4\n        /* \"#utility.yul\":6919:6936   */\n      add\n        /* \"#utility.yul\":6912:6959   */\n      mstore\n        /* \"#utility.yul\":6976:7107   */\n      tag_202\n        /* \"#utility.yul\":7102:7106   */\n      dup2\n        /* \"#utility.yul\":6976:7107   */\n      tag_141\n      jump\t// in\n    tag_202:\n        /* \"#utility.yul\":6968:7107   */\n      swap1\n      pop\n        /* \"#utility.yul\":6695:7114   */\n      swap2\n      swap1\n      pop\n      jump\t// out\n\n    auxdata: 0xa2646970667358221220baf2ff2ba674a3f6e6fbd6988da263fa7a75f9d0bf029881b3682cd72b6b39cb64736f6c634300080d0033\n}\n",
				"bytecode": {
					"linkReferences": {},
					"object": "60806040523480156200001157600080fd5b5060405162000f5a38038062000f5a8339818101604052810190620000379190620001c9565b846000806101000a81548173ffffffffffffffffffffffffffffffffffffffff021916908373ffffffffffffffffffffffffffffffffffffffff16021790555083600160006101000a81548173ffffffffffffffffffffffffffffffffffffffff021916908373ffffffffffffffffffffffffffffffffffffffff160217905550670de0b6b3a764000083620000ce919062000280565b6003819055505050505050620002e1565b600080fd5b600073ffffffffffffffffffffffffffffffffffffffff82169050919050565b60006200011182620000e4565b9050919050565b620001238162000104565b81146200012f57600080fd5b50565b600081519050620001438162000118565b92915050565b60006200015682620000e4565b9050919050565b620001688162000149565b81146200017457600080fd5b50565b60008151905062000188816200015d565b92915050565b6000819050919050565b620001a3816200018e565b8114620001af57600080fd5b50565b600081519050620001c38162000198565b92915050565b600080600080600060a08688031215620001e857620001e7620000df565b5b6000620001f88882890162000132565b95505060206200020b8882890162000177565b94505060406200021e88828901620001b2565b9350506060620002318882890162000132565b9250506080620002448882890162000132565b9150509295509295909350565b7f4e487b7100000000000000000000000000000000000000000000000000000000600052601160045260246000fd5b60006200028d826200018e565b91506200029a836200018e565b9250817fffffffffffffffffffffffffffffffffffffffffffffffffffffffffffffffff0483118215151615620002d657620002d562000251565b5b828202905092915050565b610c6980620002f16000396000f3fe6080604052600436106100a75760003560e01c8063976ef7e011610064578063976ef7e0146101585780639b3bcb3314610183578063a035b1fe146101ae578063c4bce180146101d9578063d0e30db014610204578063ed1a98fa1461020e576100a7565b806308551a53146100ac5780630c3f6acf146100d75780635e10177b146101025780636ce27b8e1461010c5780637150d8ae146101235780637e88f6031461014e575b600080fd5b3480156100b857600080fd5b506100c1610239565b6040516100ce919061091f565b60405180910390f35b3480156100e357600080fd5b506100ec61025f565b6040516100f991906109b1565b60405180910390f35b61010a610272565b005b34801561011857600080fd5b5061012161040e565b005b34801561012f57600080fd5b50610138610589565b60405161014591906109ed565b60405180910390f35b6101566105ad565b005b34801561016457600080fd5b5061016d610727565b60405161017a91906109ed565b60405180910390f35b34801561018f57600080fd5b5061019861074d565b6040516101a59190610a23565b60405180910390f35b3480156101ba57600080fd5b506101c3610760565b6040516101d09190610a57565b60405180910390f35b3480156101e557600080fd5b506101ee610766565b6040516101fb9190610a23565b60405180910390f35b61020c610779565b005b34801561021a57600080fd5b506102236108b8565b60405161023091906109ed565b60405180910390f35b600160009054906101000a900473ffffffffffffffffffffffffffffffffffffffff1681565b600560149054906101000a900460ff1681565b60008054906101000a900473ffffffffffffffffffffffffffffffffffffffff1673ffffffffffffffffffffffffffffffffffffffff163373ffffffffffffffffffffffffffffffffffffffff1614610300576040517f08c379a00000000000000000000000000000000000000000000000000000000081526004016102f790610acf565b60405180910390fd5b600260038111156103145761031361093a565b5b600560149054906101000a900460ff1660038111156103365761033561093a565b5b14610376576040517f08c379a000000000000000000000000000000000000000000000000000000000815260040161036d90610b3b565b60405180910390fd5b600160009054906101000a900473ffffffffffffffffffffffffffffffffffffffff1673ffffffffffffffffffffffffffffffffffffffff166108fc6003549081150290604051600060405180830381858888f193505050501580156103e0573d6000803e3d6000fd5b506003600560146101000a81548160ff021916908360038111156104075761040661093a565b5b0217905550565b600060038111156104225761042161093a565b5b600560149054906101000a900460ff1660038111156104445761044361093a565b5b1461044e57600080fd5b60008054906101000a900473ffffffffffffffffffffffffffffffffffffffff1673ffffffffffffffffffffffffffffffffffffffff163373ffffffffffffffffffffffffffffffffffffffff16036104bd576001600560156101000a81548160ff0219169083151502179055505b600160009054906101000a900473ffffffffffffffffffffffffffffffffffffffff1673ffffffffffffffffffffffffffffffffffffffff163373ffffffffffffffffffffffffffffffffffffffff160361052e576001600560166101000a81548160ff0219169083151502179055505b600560159054906101000a900460ff1680156105565750600560169054906101000a900460ff165b15610587576001600560146101000a81548160ff021916908360038111156105815761058061093a565b5b02179055505b565b60008054906101000a900473ffffffffffffffffffffffffffffffffffffffff1681565b60008054906101000a900473ffffffffffffffffffffffffffffffffffffffff1673ffffffffffffffffffffffffffffffffffffffff163373ffffffffffffffffffffffffffffffffffffffff161461063b576040517f08c379a000000000000000000000000000000000000000000000000000000000815260040161063290610acf565b60405180910390fd5b6002600381111561064f5761064e61093a565b5b600560149054906101000a900460ff1660038111156106715761067061093a565b5b146106b1576040517f08c379a00000000000000000000000000000000000000000000000000000000081526004016106a890610ba7565b60405180910390fd5b3373ffffffffffffffffffffffffffffffffffffffff166108fc6003549081150290604051600060405180830381858888f193505050501580156106f9573d6000803e3d6000fd5b506003600560146101000a81548160ff021916908360038111156107205761071f61093a565b5b0217905550565b600560009054906101000a900473ffffffffffffffffffffffffffffffffffffffff1681565b600560169054906101000a900460ff1681565b60035481565b600560159054906101000a900460ff1681565b60008054906101000a900473ffffffffffffffffffffffffffffffffffffffff1673ffffffffffffffffffffffffffffffffffffffff163373ffffffffffffffffffffffffffffffffffffffff1614610807576040517f08c379a00000000000000000000000000000000000000000000000000000000081526004016107fe90610acf565b60405180910390fd5b6001600381111561081b5761081a61093a565b5b600560149054906101000a900460ff16600381111561083d5761083c61093a565b5b1461084757600080fd5b600354341461088b576040517f08c379a000000000000000000000000000000000000000000000000000000000815260040161088290610c13565b60405180910390fd5b6002600560146101000a81548160ff021916908360038111156108b1576108b061093a565b5b0217905550565b600460009054906101000a900473ffffffffffffffffffffffffffffffffffffffff1681565b600073ffffffffffffffffffffffffffffffffffffffff82169050919050565b6000610909826108de565b9050919050565b610919816108fe565b82525050565b60006020820190506109346000830184610910565b92915050565b7f4e487b7100000000000000000000000000000000000000000000000000000000600052602160045260246000fd5b6004811061097a5761097961093a565b5b50565b600081905061098b82610969565b919050565b600061099b8261097d565b9050919050565b6109ab81610990565b82525050565b60006020820190506109c660008301846109a2565b92915050565b60006109d7826108de565b9050919050565b6109e7816109cc565b82525050565b6000602082019050610a0260008301846109de565b92915050565b60008115159050919050565b610a1d81610a08565b82525050565b6000602082019050610a386000830184610a14565b92915050565b6000819050919050565b610a5181610a3e565b82525050565b6000602082019050610a6c6000830184610a48565b92915050565b600082825260208201905092915050565b7f4f6e6c792062757965722063616e2063616c6c206d6573736167650000000000600082015250565b6000610ab9601b83610a72565b9150610ac482610a83565b602082019050919050565b60006020820190508181036000830152610ae881610aac565b9050919050565b7f43616e6e6f7420636f6e6669726d2064656c6976657279000000000000000000600082015250565b6000610b25601783610a72565b9150610b3082610aef565b602082019050919050565b60006020820190508181036000830152610b5481610b18565b9050919050565b7f43616e6e6f742077697468647261772061742074686973207374616765000000600082015250565b6000610b91601d83610a72565b9150610b9c82610b5b565b602082019050919050565b60006020820190508181036000830152610bc081610b84565b9050919050565b7f57726f6e67206465706f736974656420616d6f756e7400000000000000000000600082015250565b6000610bfd601683610a72565b9150610c0882610bc7565b602082019050919050565b60006020820190508181036000830152610c2c81610bf0565b905091905056fea2646970667358221220baf2ff2ba674a3f6e6fbd6988da263fa7a75f9d0bf029881b3682cd72b6b39cb64736f6c634300080d0033",
					"opcodes": "PUSH1 0x80 PUSH1 0x40 MSTORE CALLVALUE DUP1 ISZERO PUSH3 0x11 JUMPI PUSH1 0x0 DUP1 REVERT JUMPDEST POP PUSH1 0x40 MLOAD PUSH3 0xF5A CODESIZE SUB DUP1 PUSH3 0xF5A DUP4 CODECOPY DUP2 DUP2 ADD PUSH1 0x40 MSTORE DUP2 ADD SWAP1 PUSH3 0x37 SWAP2 SWAP1 PUSH3 0x1C9 JUMP JUMPDEST DUP5 PUSH1 0x0 DUP1 PUSH2 0x100 EXP DUP2 SLOAD DUP2 PUSH20 0xFFFFFFFFFFFFFFFFFFFFFFFFFFFFFFFFFFFFFFFF MUL NOT AND SWAP1 DUP4 PUSH20 0xFFFFFFFFFFFFFFFFFFFFFFFFFFFFFFFFFFFFFFFF AND MUL OR SWAP1 SSTORE POP DUP4 PUSH1 0x1 PUSH1 0x0 PUSH2 0x100 EXP DUP2 SLOAD DUP2 PUSH20 0xFFFFFFFFFFFFFFFFFFFFFFFFFFFFFFFFFFFFFFFF MUL NOT AND SWAP1 DUP4 PUSH20 0xFFFFFFFFFFFFFFFFFFFFFFFFFFFFFFFFFFFFFFFF AND MUL OR SWAP1 SSTORE POP PUSH8 0xDE0B6B3A7640000 DUP4 PUSH3 0xCE SWAP2 SWAP1 PUSH3 0x280 JUMP JUMPDEST PUSH1 0x3 DUP2 SWAP1 SSTORE POP POP POP POP POP POP PUSH3 0x2E1 JUMP JUMPDEST PUSH1 0x0 DUP1 REVERT JUMPDEST PUSH1 0x0 PUSH20 0xFFFFFFFFFFFFFFFFFFFFFFFFFFFFFFFFFFFFFFFF DUP3 AND SWAP1 POP SWAP2 SWAP1 POP JUMP JUMPDEST PUSH1 0x0 PUSH3 0x111 DUP3 PUSH3 0xE4 JUMP JUMPDEST SWAP1 POP SWAP2 SWAP1 POP JUMP JUMPDEST PUSH3 0x123 DUP2 PUSH3 0x104 JUMP JUMPDEST DUP2 EQ PUSH3 0x12F JUMPI PUSH1 0x0 DUP1 REVERT JUMPDEST POP JUMP JUMPDEST PUSH1 0x0 DUP2 MLOAD SWAP1 POP PUSH3 0x143 DUP2 PUSH3 0x118 JUMP JUMPDEST SWAP3 SWAP2 POP POP JUMP JUMPDEST PUSH1 0x0 PUSH3 0x156 DUP3 PUSH3 0xE4 JUMP JUMPDEST SWAP1 POP SWAP2 SWAP1 POP JUMP JUMPDEST PUSH3 0x168 DUP2 PUSH3 0x149 JUMP JUMPDEST DUP2 EQ PUSH3 0x174 JUMPI PUSH1 0x0 DUP1 REVERT JUMPDEST POP JUMP JUMPDEST PUSH1 0x0 DUP2 MLOAD SWAP1 POP PUSH3 0x188 DUP2 PUSH3 0x15D JUMP JUMPDEST SWAP3 SWAP2 POP POP JUMP JUMPDEST PUSH1 0x0 DUP2 SWAP1 POP SWAP2 SWAP1 POP JUMP JUMPDEST PUSH3 0x1A3 DUP2 PUSH3 0x18E JUMP JUMPDEST DUP2 EQ PUSH3 0x1AF JUMPI PUSH1 0x0 DUP1 REVERT JUMPDEST POP JUMP JUMPDEST PUSH1 0x0 DUP2 MLOAD SWAP1 POP PUSH3 0x1C3 DUP2 PUSH3 0x198 JUMP JUMPDEST SWAP3 SWAP2 POP POP JUMP JUMPDEST PUSH1 0x0 DUP1 PUSH1 0x0 DUP1 PUSH1 0x0 PUSH1 0xA0 DUP7 DUP9 SUB SLT ISZERO PUSH3 0x1E8 JUMPI PUSH3 0x1E7 PUSH3 0xDF JUMP JUMPDEST JUMPDEST PUSH1 0x0 PUSH3 0x1F8 DUP9 DUP3 DUP10 ADD PUSH3 0x132 JUMP JUMPDEST SWAP6 POP POP PUSH1 0x20 PUSH3 0x20B DUP9 DUP3 DUP10 ADD PUSH3 0x177 JUMP JUMPDEST SWAP5 POP POP PUSH1 0x40 PUSH3 0x21E DUP9 DUP3 DUP10 ADD PUSH3 0x1B2 JUMP JUMPDEST SWAP4 POP POP PUSH1 0x60 PUSH3 0x231 DUP9 DUP3 DUP10 ADD PUSH3 0x132 JUMP JUMPDEST SWAP3 POP POP PUSH1 0x80 PUSH3 0x244 DUP9 DUP3 DUP10 ADD PUSH3 0x132 JUMP JUMPDEST SWAP2 POP POP SWAP3 SWAP6 POP SWAP3 SWAP6 SWAP1 SWAP4 POP JUMP JUMPDEST PUSH32 0x4E487B7100000000000000000000000000000000000000000000000000000000 PUSH1 0x0 MSTORE PUSH1 0x11 PUSH1 0x4 MSTORE PUSH1 0x24 PUSH1 0x0 REVERT JUMPDEST PUSH1 0x0 PUSH3 0x28D DUP3 PUSH3 0x18E JUMP JUMPDEST SWAP2 POP PUSH3 0x29A DUP4 PUSH3 0x18E JUMP JUMPDEST SWAP3 POP DUP2 PUSH32 0xFFFFFFFFFFFFFFFFFFFFFFFFFFFFFFFFFFFFFFFFFFFFFFFFFFFFFFFFFFFFFFFF DIV DUP4 GT DUP3 ISZERO ISZERO AND ISZERO PUSH3 0x2D6 JUMPI PUSH3 0x2D5 PUSH3 0x251 JUMP JUMPDEST JUMPDEST DUP3 DUP3 MUL SWAP1 POP SWAP3 SWAP2 POP POP JUMP JUMPDEST PUSH2 0xC69 DUP1 PUSH3 0x2F1 PUSH1 0x0 CODECOPY PUSH1 0x0 RETURN INVALID PUSH1 0x80 PUSH1 0x40 MSTORE PUSH1 0x4 CALLDATASIZE LT PUSH2 0xA7 JUMPI PUSH1 0x0 CALLDATALOAD PUSH1 0xE0 SHR DUP1 PUSH4 0x976EF7E0 GT PUSH2 0x64 JUMPI DUP1 PUSH4 0x976EF7E0 EQ PUSH2 0x158 JUMPI DUP1 PUSH4 0x9B3BCB33 EQ PUSH2 0x183 JUMPI DUP1 PUSH4 0xA035B1FE EQ PUSH2 0x1AE JUMPI DUP1 PUSH4 0xC4BCE180 EQ PUSH2 0x1D9 JUMPI DUP1 PUSH4 0xD0E30DB0 EQ PUSH2 0x204 JUMPI DUP1 PUSH4 0xED1A98FA EQ PUSH2 0x20E JUMPI PUSH2 0xA7 JUMP JUMPDEST DUP1 PUSH4 0x8551A53 EQ PUSH2 0xAC JUMPI DUP1 PUSH4 0xC3F6ACF EQ PUSH2 0xD7 JUMPI DUP1 PUSH4 0x5E10177B EQ PUSH2 0x102 JUMPI DUP1 PUSH4 0x6CE27B8E EQ PUSH2 0x10C JUMPI DUP1 PUSH4 0x7150D8AE EQ PUSH2 0x123 JUMPI DUP1 PUSH4 0x7E88F603 EQ PUSH2 0x14E JUMPI JUMPDEST PUSH1 0x0 DUP1 REVERT JUMPDEST CALLVALUE DUP1 ISZERO PUSH2 0xB8 JUMPI PUSH1 0x0 DUP1 REVERT JUMPDEST POP PUSH2 0xC1 PUSH2 0x239 JUMP JUMPDEST PUSH1 0x40 MLOAD PUSH2 0xCE SWAP2 SWAP1 PUSH2 0x91F JUMP JUMPDEST PUSH1 0x40 MLOAD DUP1 SWAP2 SUB SWAP1 RETURN JUMPDEST CALLVALUE DUP1 ISZERO PUSH2 0xE3 JUMPI PUSH1 0x0 DUP1 REVERT JUMPDEST POP PUSH2 0xEC PUSH2 0x25F JUMP JUMPDEST PUSH1 0x40 MLOAD PUSH2 0xF9 SWAP2 SWAP1 PUSH2 0x9B1 JUMP JUMPDEST PUSH1 0x40 MLOAD DUP1 SWAP2 SUB SWAP1 RETURN JUMPDEST PUSH2 0x10A PUSH2 0x272 JUMP JUMPDEST STOP JUMPDEST CALLVALUE DUP1 ISZERO PUSH2 0x118 JUMPI PUSH1 0x0 DUP1 REVERT JUMPDEST POP PUSH2 0x121 PUSH2 0x40E JUMP JUMPDEST STOP JUMPDEST CALLVALUE DUP1 ISZERO PUSH2 0x12F JUMPI PUSH1 0x0 DUP1 REVERT JUMPDEST POP PUSH2 0x138 PUSH2 0x589 JUMP JUMPDEST PUSH1 0x40 MLOAD PUSH2 0x145 SWAP2 SWAP1 PUSH2 0x9ED JUMP JUMPDEST PUSH1 0x40 MLOAD DUP1 SWAP2 SUB SWAP1 RETURN JUMPDEST PUSH2 0x156 PUSH2 0x5AD JUMP JUMPDEST STOP JUMPDEST CALLVALUE DUP1 ISZERO PUSH2 0x164 JUMPI PUSH1 0x0 DUP1 REVERT JUMPDEST POP PUSH2 0x16D PUSH2 0x727 JUMP JUMPDEST PUSH1 0x40 MLOAD PUSH2 0x17A SWAP2 SWAP1 PUSH2 0x9ED JUMP JUMPDEST PUSH1 0x40 MLOAD DUP1 SWAP2 SUB SWAP1 RETURN JUMPDEST CALLVALUE DUP1 ISZERO PUSH2 0x18F JUMPI PUSH1 0x0 DUP1 REVERT JUMPDEST POP PUSH2 0x198 PUSH2 0x74D JUMP JUMPDEST PUSH1 0x40 MLOAD PUSH2 0x1A5 SWAP2 SWAP1 PUSH2 0xA23 JUMP JUMPDEST PUSH1 0x40 MLOAD DUP1 SWAP2 SUB SWAP1 RETURN JUMPDEST CALLVALUE DUP1 ISZERO PUSH2 0x1BA JUMPI PUSH1 0x0 DUP1 REVERT JUMPDEST POP PUSH2 0x1C3 PUSH2 0x760 JUMP JUMPDEST PUSH1 0x40 MLOAD PUSH2 0x1D0 SWAP2 SWAP1 PUSH2 0xA57 JUMP JUMPDEST PUSH1 0x40 MLOAD DUP1 SWAP2 SUB SWAP1 RETURN JUMPDEST CALLVALUE DUP1 ISZERO PUSH2 0x1E5 JUMPI PUSH1 0x0 DUP1 REVERT JUMPDEST POP PUSH2 0x1EE PUSH2 0x766 JUMP JUMPDEST PUSH1 0x40 MLOAD PUSH2 0x1FB SWAP2 SWAP1 PUSH2 0xA23 JUMP JUMPDEST PUSH1 0x40 MLOAD DUP1 SWAP2 SUB SWAP1 RETURN JUMPDEST PUSH2 0x20C PUSH2 0x779 JUMP JUMPDEST STOP JUMPDEST CALLVALUE DUP1 ISZERO PUSH2 0x21A JUMPI PUSH1 0x0 DUP1 REVERT JUMPDEST POP PUSH2 0x223 PUSH2 0x8B8 JUMP JUMPDEST PUSH1 0x40 MLOAD PUSH2 0x230 SWAP2 SWAP1 PUSH2 0x9ED JUMP JUMPDEST PUSH1 0x40 MLOAD DUP1 SWAP2 SUB SWAP1 RETURN JUMPDEST PUSH1 0x1 PUSH1 0x0 SWAP1 SLOAD SWAP1 PUSH2 0x100 EXP SWAP1 DIV PUSH20 0xFFFFFFFFFFFFFFFFFFFFFFFFFFFFFFFFFFFFFFFF AND DUP2 JUMP JUMPDEST PUSH1 0x5 PUSH1 0x14 SWAP1 SLOAD SWAP1 PUSH2 0x100 EXP SWAP1 DIV PUSH1 0xFF AND DUP2 JUMP JUMPDEST PUSH1 0x0 DUP1 SLOAD SWAP1 PUSH2 0x100 EXP SWAP1 DIV PUSH20 0xFFFFFFFFFFFFFFFFFFFFFFFFFFFFFFFFFFFFFFFF AND PUSH20 0xFFFFFFFFFFFFFFFFFFFFFFFFFFFFFFFFFFFFFFFF AND CALLER PUSH20 0xFFFFFFFFFFFFFFFFFFFFFFFFFFFFFFFFFFFFFFFF AND EQ PUSH2 0x300 JUMPI PUSH1 0x40 MLOAD PUSH32 0x8C379A000000000000000000000000000000000000000000000000000000000 DUP2 MSTORE PUSH1 0x4 ADD PUSH2 0x2F7 SWAP1 PUSH2 0xACF JUMP JUMPDEST PUSH1 0x40 MLOAD DUP1 SWAP2 SUB SWAP1 REVERT JUMPDEST PUSH1 0x2 PUSH1 0x3 DUP2 GT ISZERO PUSH2 0x314 JUMPI PUSH2 0x313 PUSH2 0x93A JUMP JUMPDEST JUMPDEST PUSH1 0x5 PUSH1 0x14 SWAP1 SLOAD SWAP1 PUSH2 0x100 EXP SWAP1 DIV PUSH1 0xFF AND PUSH1 0x3 DUP2 GT ISZERO PUSH2 0x336 JUMPI PUSH2 0x335 PUSH2 0x93A JUMP JUMPDEST JUMPDEST EQ PUSH2 0x376 JUMPI PUSH1 0x40 MLOAD PUSH32 0x8C379A000000000000000000000000000000000000000000000000000000000 DUP2 MSTORE PUSH1 0x4 ADD PUSH2 0x36D SWAP1 PUSH2 0xB3B JUMP JUMPDEST PUSH1 0x40 MLOAD DUP1 SWAP2 SUB SWAP1 REVERT JUMPDEST PUSH1 0x1 PUSH1 0x0 SWAP1 SLOAD SWAP1 PUSH2 0x100 EXP SWAP1 DIV PUSH20 0xFFFFFFFFFFFFFFFFFFFFFFFFFFFFFFFFFFFFFFFF AND PUSH20 0xFFFFFFFFFFFFFFFFFFFFFFFFFFFFFFFFFFFFFFFF AND PUSH2 0x8FC PUSH1 0x3 SLOAD SWAP1 DUP2 ISZERO MUL SWAP1 PUSH1 0x40 MLOAD PUSH1 0x0 PUSH1 0x40 MLOAD DUP1 DUP4 SUB DUP2 DUP6 DUP9 DUP9 CALL SWAP4 POP POP POP POP ISZERO DUP1 ISZERO PUSH2 0x3E0 JUMPI RETURNDATASIZE PUSH1 0x0 DUP1 RETURNDATACOPY RETURNDATASIZE PUSH1 0x0 REVERT JUMPDEST POP PUSH1 0x3 PUSH1 0x5 PUSH1 0x14 PUSH2 0x100 EXP DUP2 SLOAD DUP2 PUSH1 0xFF MUL NOT AND SWAP1 DUP4 PUSH1 0x3 DUP2 GT ISZERO PUSH2 0x407 JUMPI PUSH2 0x406 PUSH2 0x93A JUMP JUMPDEST JUMPDEST MUL OR SWAP1 SSTORE POP JUMP JUMPDEST PUSH1 0x0 PUSH1 0x3 DUP2 GT ISZERO PUSH2 0x422 JUMPI PUSH2 0x421 PUSH2 0x93A JUMP JUMPDEST JUMPDEST PUSH1 0x5 PUSH1 0x14 SWAP1 SLOAD SWAP1 PUSH2 0x100 EXP SWAP1 DIV PUSH1 0xFF AND PUSH1 0x3 DUP2 GT ISZERO PUSH2 0x444 JUMPI PUSH2 0x443 PUSH2 0x93A JUMP JUMPDEST JUMPDEST EQ PUSH2 0x44E JUMPI PUSH1 0x0 DUP1 REVERT JUMPDEST PUSH1 0x0 DUP1 SLOAD SWAP1 PUSH2 0x100 EXP SWAP1 DIV PUSH20 0xFFFFFFFFFFFFFFFFFFFFFFFFFFFFFFFFFFFFFFFF AND PUSH20 0xFFFFFFFFFFFFFFFFFFFFFFFFFFFFFFFFFFFFFFFF AND CALLER PUSH20 0xFFFFFFFFFFFFFFFFFFFFFFFFFFFFFFFFFFFFFFFF AND SUB PUSH2 0x4BD JUMPI PUSH1 0x1 PUSH1 0x5 PUSH1 0x15 PUSH2 0x100 EXP DUP2 SLOAD DUP2 PUSH1 0xFF MUL NOT AND SWAP1 DUP4 ISZERO ISZERO MUL OR SWAP1 SSTORE POP JUMPDEST PUSH1 0x1 PUSH1 0x0 SWAP1 SLOAD SWAP1 PUSH2 0x100 EXP SWAP1 DIV PUSH20 0xFFFFFFFFFFFFFFFFFFFFFFFFFFFFFFFFFFFFFFFF AND PUSH20 0xFFFFFFFFFFFFFFFFFFFFFFFFFFFFFFFFFFFFFFFF AND CALLER PUSH20 0xFFFFFFFFFFFFFFFFFFFFFFFFFFFFFFFFFFFFFFFF AND SUB PUSH2 0x52E JUMPI PUSH1 0x1 PUSH1 0x5 PUSH1 0x16 PUSH2 0x100 EXP DUP2 SLOAD DUP2 PUSH1 0xFF MUL NOT AND SWAP1 DUP4 ISZERO ISZERO MUL OR SWAP1 SSTORE POP JUMPDEST PUSH1 0x5 PUSH1 0x15 SWAP1 SLOAD SWAP1 PUSH2 0x100 EXP SWAP1 DIV PUSH1 0xFF AND DUP1 ISZERO PUSH2 0x556 JUMPI POP PUSH1 0x5 PUSH1 0x16 SWAP1 SLOAD SWAP1 PUSH2 0x100 EXP SWAP1 DIV PUSH1 0xFF AND JUMPDEST ISZERO PUSH2 0x587 JUMPI PUSH1 0x1 PUSH1 0x5 PUSH1 0x14 PUSH2 0x100 EXP DUP2 SLOAD DUP2 PUSH1 0xFF MUL NOT AND SWAP1 DUP4 PUSH1 0x3 DUP2 GT ISZERO PUSH2 0x581 JUMPI PUSH2 0x580 PUSH2 0x93A JUMP JUMPDEST JUMPDEST MUL OR SWAP1 SSTORE POP JUMPDEST JUMP JUMPDEST PUSH1 0x0 DUP1 SLOAD SWAP1 PUSH2 0x100 EXP SWAP1 DIV PUSH20 0xFFFFFFFFFFFFFFFFFFFFFFFFFFFFFFFFFFFFFFFF AND DUP2 JUMP JUMPDEST PUSH1 0x0 DUP1 SLOAD SWAP1 PUSH2 0x100 EXP SWAP1 DIV PUSH20 0xFFFFFFFFFFFFFFFFFFFFFFFFFFFFFFFFFFFFFFFF AND PUSH20 0xFFFFFFFFFFFFFFFFFFFFFFFFFFFFFFFFFFFFFFFF AND CALLER PUSH20 0xFFFFFFFFFFFFFFFFFFFFFFFFFFFFFFFFFFFFFFFF AND EQ PUSH2 0x63B JUMPI PUSH1 0x40 MLOAD PUSH32 0x8C379A000000000000000000000000000000000000000000000000000000000 DUP2 MSTORE PUSH1 0x4 ADD PUSH2 0x632 SWAP1 PUSH2 0xACF JUMP JUMPDEST PUSH1 0x40 MLOAD DUP1 SWAP2 SUB SWAP1 REVERT JUMPDEST PUSH1 0x2 PUSH1 0x3 DUP2 GT ISZERO PUSH2 0x64F JUMPI PUSH2 0x64E PUSH2 0x93A JUMP JUMPDEST JUMPDEST PUSH1 0x5 PUSH1 0x14 SWAP1 SLOAD SWAP1 PUSH2 0x100 EXP SWAP1 DIV PUSH1 0xFF AND PUSH1 0x3 DUP2 GT ISZERO PUSH2 0x671 JUMPI PUSH2 0x670 PUSH2 0x93A JUMP JUMPDEST JUMPDEST EQ PUSH2 0x6B1 JUMPI PUSH1 0x40 MLOAD PUSH32 0x8C379A000000000000000000000000000000000000000000000000000000000 DUP2 MSTORE PUSH1 0x4 ADD PUSH2 0x6A8 SWAP1 PUSH2 0xBA7 JUMP JUMPDEST PUSH1 0x40 MLOAD DUP1 SWAP2 SUB SWAP1 REVERT JUMPDEST CALLER PUSH20 0xFFFFFFFFFFFFFFFFFFFFFFFFFFFFFFFFFFFFFFFF AND PUSH2 0x8FC PUSH1 0x3 SLOAD SWAP1 DUP2 ISZERO MUL SWAP1 PUSH1 0x40 MLOAD PUSH1 0x0 PUSH1 0x40 MLOAD DUP1 DUP4 SUB DUP2 DUP6 DUP9 DUP9 CALL SWAP4 POP POP POP POP ISZERO DUP1 ISZERO PUSH2 0x6F9 JUMPI RETURNDATASIZE PUSH1 0x0 DUP1 RETURNDATACOPY RETURNDATASIZE PUSH1 0x0 REVERT JUMPDEST POP PUSH1 0x3 PUSH1 0x5 PUSH1 0x14 PUSH2 0x100 EXP DUP2 SLOAD DUP2 PUSH1 0xFF MUL NOT AND SWAP1 DUP4 PUSH1 0x3 DUP2 GT ISZERO PUSH2 0x720 JUMPI PUSH2 0x71F PUSH2 0x93A JUMP JUMPDEST JUMPDEST MUL OR SWAP1 SSTORE POP JUMP JUMPDEST PUSH1 0x5 PUSH1 0x0 SWAP1 SLOAD SWAP1 PUSH2 0x100 EXP SWAP1 DIV PUSH20 0xFFFFFFFFFFFFFFFFFFFFFFFFFFFFFFFFFFFFFFFF AND DUP2 JUMP JUMPDEST PUSH1 0x5 PUSH1 0x16 SWAP1 SLOAD SWAP1 PUSH2 0x100 EXP SWAP1 DIV PUSH1 0xFF AND DUP2 JUMP JUMPDEST PUSH1 0x3 SLOAD DUP2 JUMP JUMPDEST PUSH1 0x5 PUSH1 0x15 SWAP1 SLOAD SWAP1 PUSH2 0x100 EXP SWAP1 DIV PUSH1 0xFF AND DUP2 JUMP JUMPDEST PUSH1 0x0 DUP1 SLOAD SWAP1 PUSH2 0x100 EXP SWAP1 DIV PUSH20 0xFFFFFFFFFFFFFFFFFFFFFFFFFFFFFFFFFFFFFFFF AND PUSH20 0xFFFFFFFFFFFFFFFFFFFFFFFFFFFFFFFFFFFFFFFF AND CALLER PUSH20 0xFFFFFFFFFFFFFFFFFFFFFFFFFFFFFFFFFFFFFFFF AND EQ PUSH2 0x807 JUMPI PUSH1 0x40 MLOAD PUSH32 0x8C379A000000000000000000000000000000000000000000000000000000000 DUP2 MSTORE PUSH1 0x4 ADD PUSH2 0x7FE SWAP1 PUSH2 0xACF JUMP JUMPDEST PUSH1 0x40 MLOAD DUP1 SWAP2 SUB SWAP1 REVERT JUMPDEST PUSH1 0x1 PUSH1 0x3 DUP2 GT ISZERO PUSH2 0x81B JUMPI PUSH2 0x81A PUSH2 0x93A JUMP JUMPDEST JUMPDEST PUSH1 0x5 PUSH1 0x14 SWAP1 SLOAD SWAP1 PUSH2 0x100 EXP SWAP1 DIV PUSH1 0xFF AND PUSH1 0x3 DUP2 GT ISZERO PUSH2 0x83D JUMPI PUSH2 0x83C PUSH2 0x93A JUMP JUMPDEST JUMPDEST EQ PUSH2 0x847 JUMPI PUSH1 0x0 DUP1 REVERT JUMPDEST PUSH1 0x3 SLOAD CALLVALUE EQ PUSH2 0x88B JUMPI PUSH1 0x40 MLOAD PUSH32 0x8C379A000000000000000000000000000000000000000000000000000000000 DUP2 MSTORE PUSH1 0x4 ADD PUSH2 0x882 SWAP1 PUSH2 0xC13 JUMP JUMPDEST PUSH1 0x40 MLOAD DUP1 SWAP2 SUB SWAP1 REVERT JUMPDEST PUSH1 0x2 PUSH1 0x5 PUSH1 0x14 PUSH2 0x100 EXP DUP2 SLOAD DUP2 PUSH1 0xFF MUL NOT AND SWAP1 DUP4 PUSH1 0x3 DUP2 GT ISZERO PUSH2 0x8B1 JUMPI PUSH2 0x8B0 PUSH2 0x93A JUMP JUMPDEST JUMPDEST MUL OR SWAP1 SSTORE POP JUMP JUMPDEST PUSH1 0x4 PUSH1 0x0 SWAP1 SLOAD SWAP1 PUSH2 0x100 EXP SWAP1 DIV PUSH20 0xFFFFFFFFFFFFFFFFFFFFFFFFFFFFFFFFFFFFFFFF AND DUP2 JUMP JUMPDEST PUSH1 0x0 PUSH20 0xFFFFFFFFFFFFFFFFFFFFFFFFFFFFFFFFFFFFFFFF DUP3 AND SWAP1 POP SWAP2 SWAP1 POP JUMP JUMPDEST PUSH1 0x0 PUSH2 0x909 DUP3 PUSH2 0x8DE JUMP JUMPDEST SWAP1 POP SWAP2 SWAP1 POP JUMP JUMPDEST PUSH2 0x919 DUP2 PUSH2 0x8FE JUMP JUMPDEST DUP3 MSTORE POP POP JUMP JUMPDEST PUSH1 0x0 PUSH1 0x20 DUP3 ADD SWAP1 POP PUSH2 0x934 PUSH1 0x0 DUP4 ADD DUP5 PUSH2 0x910 JUMP JUMPDEST SWAP3 SWAP2 POP POP JUMP JUMPDEST PUSH32 0x4E487B7100000000000000000000000000000000000000000000000000000000 PUSH1 0x0 MSTORE PUSH1 0x21 PUSH1 0x4 MSTORE PUSH1 0x24 PUSH1 0x0 REVERT JUMPDEST PUSH1 0x4 DUP2 LT PUSH2 0x97A JUMPI PUSH2 0x979 PUSH2 0x93A JUMP JUMPDEST JUMPDEST POP JUMP JUMPDEST PUSH1 0x0 DUP2 SWAP1 POP PUSH2 0x98B DUP3 PUSH2 0x969 JUMP JUMPDEST SWAP2 SWAP1 POP JUMP JUMPDEST PUSH1 0x0 PUSH2 0x99B DUP3 PUSH2 0x97D JUMP JUMPDEST SWAP1 POP SWAP2 SWAP1 POP JUMP JUMPDEST PUSH2 0x9AB DUP2 PUSH2 0x990 JUMP JUMPDEST DUP3 MSTORE POP POP JUMP JUMPDEST PUSH1 0x0 PUSH1 0x20 DUP3 ADD SWAP1 POP PUSH2 0x9C6 PUSH1 0x0 DUP4 ADD DUP5 PUSH2 0x9A2 JUMP JUMPDEST SWAP3 SWAP2 POP POP JUMP JUMPDEST PUSH1 0x0 PUSH2 0x9D7 DUP3 PUSH2 0x8DE JUMP JUMPDEST SWAP1 POP SWAP2 SWAP1 POP JUMP JUMPDEST PUSH2 0x9E7 DUP2 PUSH2 0x9CC JUMP JUMPDEST DUP3 MSTORE POP POP JUMP JUMPDEST PUSH1 0x0 PUSH1 0x20 DUP3 ADD SWAP1 POP PUSH2 0xA02 PUSH1 0x0 DUP4 ADD DUP5 PUSH2 0x9DE JUMP JUMPDEST SWAP3 SWAP2 POP POP JUMP JUMPDEST PUSH1 0x0 DUP2 ISZERO ISZERO SWAP1 POP SWAP2 SWAP1 POP JUMP JUMPDEST PUSH2 0xA1D DUP2 PUSH2 0xA08 JUMP JUMPDEST DUP3 MSTORE POP POP JUMP JUMPDEST PUSH1 0x0 PUSH1 0x20 DUP3 ADD SWAP1 POP PUSH2 0xA38 PUSH1 0x0 DUP4 ADD DUP5 PUSH2 0xA14 JUMP JUMPDEST SWAP3 SWAP2 POP POP JUMP JUMPDEST PUSH1 0x0 DUP2 SWAP1 POP SWAP2 SWAP1 POP JUMP JUMPDEST PUSH2 0xA51 DUP2 PUSH2 0xA3E JUMP JUMPDEST DUP3 MSTORE POP POP JUMP JUMPDEST PUSH1 0x0 PUSH1 0x20 DUP3 ADD SWAP1 POP PUSH2 0xA6C PUSH1 0x0 DUP4 ADD DUP5 PUSH2 0xA48 JUMP JUMPDEST SWAP3 SWAP2 POP POP JUMP JUMPDEST PUSH1 0x0 DUP3 DUP3 MSTORE PUSH1 0x20 DUP3 ADD SWAP1 POP SWAP3 SWAP2 POP POP JUMP JUMPDEST PUSH32 0x4F6E6C792062757965722063616E2063616C6C206D6573736167650000000000 PUSH1 0x0 DUP3 ADD MSTORE POP JUMP JUMPDEST PUSH1 0x0 PUSH2 0xAB9 PUSH1 0x1B DUP4 PUSH2 0xA72 JUMP JUMPDEST SWAP2 POP PUSH2 0xAC4 DUP3 PUSH2 0xA83 JUMP JUMPDEST PUSH1 0x20 DUP3 ADD SWAP1 POP SWAP2 SWAP1 POP JUMP JUMPDEST PUSH1 0x0 PUSH1 0x20 DUP3 ADD SWAP1 POP DUP2 DUP2 SUB PUSH1 0x0 DUP4 ADD MSTORE PUSH2 0xAE8 DUP2 PUSH2 0xAAC JUMP JUMPDEST SWAP1 POP SWAP2 SWAP1 POP JUMP JUMPDEST PUSH32 0x43616E6E6F7420636F6E6669726D2064656C6976657279000000000000000000 PUSH1 0x0 DUP3 ADD MSTORE POP JUMP JUMPDEST PUSH1 0x0 PUSH2 0xB25 PUSH1 0x17 DUP4 PUSH2 0xA72 JUMP JUMPDEST SWAP2 POP PUSH2 0xB30 DUP3 PUSH2 0xAEF JUMP JUMPDEST PUSH1 0x20 DUP3 ADD SWAP1 POP SWAP2 SWAP1 POP JUMP JUMPDEST PUSH1 0x0 PUSH1 0x20 DUP3 ADD SWAP1 POP DUP2 DUP2 SUB PUSH1 0x0 DUP4 ADD MSTORE PUSH2 0xB54 DUP2 PUSH2 0xB18 JUMP JUMPDEST SWAP1 POP SWAP2 SWAP1 POP JUMP JUMPDEST PUSH32 0x43616E6E6F742077697468647261772061742074686973207374616765000000 PUSH1 0x0 DUP3 ADD MSTORE POP JUMP JUMPDEST PUSH1 0x0 PUSH2 0xB91 PUSH1 0x1D DUP4 PUSH2 0xA72 JUMP JUMPDEST SWAP2 POP PUSH2 0xB9C DUP3 PUSH2 0xB5B JUMP JUMPDEST PUSH1 0x20 DUP3 ADD SWAP1 POP SWAP2 SWAP1 POP JUMP JUMPDEST PUSH1 0x0 PUSH1 0x20 DUP3 ADD SWAP1 POP DUP2 DUP2 SUB PUSH1 0x0 DUP4 ADD MSTORE PUSH2 0xBC0 DUP2 PUSH2 0xB84 JUMP JUMPDEST SWAP1 POP SWAP2 SWAP1 POP JUMP JUMPDEST PUSH32 0x57726F6E67206465706F736974656420616D6F756E7400000000000000000000 PUSH1 0x0 DUP3 ADD MSTORE POP JUMP JUMPDEST PUSH1 0x0 PUSH2 0xBFD PUSH1 0x16 DUP4 PUSH2 0xA72 JUMP JUMPDEST SWAP2 POP PUSH2 0xC08 DUP3 PUSH2 0xBC7 JUMP JUMPDEST PUSH1 0x20 DUP3 ADD SWAP1 POP SWAP2 SWAP1 POP JUMP JUMPDEST PUSH1 0x0 PUSH1 0x20 DUP3 ADD SWAP1 POP DUP2 DUP2 SUB PUSH1 0x0 DUP4 ADD MSTORE PUSH2 0xC2C DUP2 PUSH2 0xBF0 JUMP JUMPDEST SWAP1 POP SWAP2 SWAP1 POP JUMP INVALID LOG2 PUSH5 0x6970667358 0x22 SLT KECCAK256 0xBA CALLCODE SELFDESTRUCT 0x2B 0xA6 PUSH21 0xA3F6E6FBD6988DA263FA7A75F9D0BF029881B3682C 0xD7 0x2B PUSH12 0x39CB64736F6C634300080D00 CALLER "
				},
				"gasEstimates": {
					"creation": {
						"codeDepositCost": "635400",
						"executionCost": "infinite",
						"totalCost": "infinite"
					},
					"external": {
						"buyer()": "2600",
						"confirmDelivery()": "infinite",
						"currentState()": "2633",
						"deposit()": "31095",
						"dispute1()": "2624",
						"dispute2()": "2514",
						"initEscrow()": "84197",
						"isBuyerIn()": "2587",
						"isSellerIn()": "2543",
						"price()": "2473",
						"returnDeposit()": "infinite",
						"seller()": "2515"
					}
				},
				"methodIdentifiers": {
					"buyer()": "7150d8ae",
					"confirmDelivery()": "5e10177b",
					"currentState()": "0c3f6acf",
					"deposit()": "d0e30db0",
					"dispute1()": "ed1a98fa",
					"dispute2()": "976ef7e0",
					"initEscrow()": "6ce27b8e",
					"isBuyerIn()": "c4bce180",
					"isSellerIn()": "9b3bcb33",
					"price()": "a035b1fe",
					"returnDeposit()": "7e88f603",
					"seller()": "08551a53"
				}
			},
			"storageLayout": {
				"storage": [
					{
						"astId": 3,
						"contract": "escrow.sol:Escrow",
						"label": "buyer",
						"offset": 0,
						"slot": "0",
						"type": "t_address"
					},
					{
						"astId": 5,
						"contract": "escrow.sol:Escrow",
						"label": "seller",
						"offset": 0,
						"slot": "1",
						"type": "t_address_payable"
					},
					{
						"astId": 7,
						"contract": "escrow.sol:Escrow",
						"label": "amountDeposited",
						"offset": 0,
						"slot": "2",
						"type": "t_uint256"
					},
					{
						"astId": 9,
						"contract": "escrow.sol:Escrow",
						"label": "price",
						"offset": 0,
						"slot": "3",
						"type": "t_uint256"
					},
					{
						"astId": 11,
						"contract": "escrow.sol:Escrow",
						"label": "dispute1",
						"offset": 0,
						"slot": "4",
						"type": "t_address"
					},
					{
						"astId": 13,
						"contract": "escrow.sol:Escrow",
						"label": "dispute2",
						"offset": 0,
						"slot": "5",
						"type": "t_address"
					},
					{
						"astId": 21,
						"contract": "escrow.sol:Escrow",
						"label": "currentState",
						"offset": 20,
						"slot": "5",
						"type": "t_enum(transactionState)18"
					},
					{
						"astId": 23,
						"contract": "escrow.sol:Escrow",
						"label": "isBuyerIn",
						"offset": 21,
						"slot": "5",
						"type": "t_bool"
					},
					{
						"astId": 25,
						"contract": "escrow.sol:Escrow",
						"label": "isSellerIn",
						"offset": 22,
						"slot": "5",
						"type": "t_bool"
					}
				],
				"types": {
					"t_address": {
						"encoding": "inplace",
						"label": "address",
						"numberOfBytes": "20"
					},
					"t_address_payable": {
						"encoding": "inplace",
						"label": "address payable",
						"numberOfBytes": "20"
					},
					"t_bool": {
						"encoding": "inplace",
						"label": "bool",
						"numberOfBytes": "1"
					},
					"t_enum(transactionState)18": {
						"encoding": "inplace",
						"label": "enum Escrow.transactionState",
						"numberOfBytes": "1"
					},
					"t_uint256": {
						"encoding": "inplace",
						"label": "uint256",
						"numberOfBytes": "32"
					}
				}
			},
			"userdoc": {
				"kind": "user",
				"methods": {},
				"version": 1
			}
		}
	}
}