{
	"data": {
		"bytecode": {
			"linkReferences": {},
			"object": "608060405234801561001057600080fd5b50336000806101000a81548173ffffffffffffffffffffffffffffffffffffffff021916908373ffffffffffffffffffffffffffffffffffffffff160217905550610177806100606000396000f3fe608060405234801561001057600080fd5b50600436106100625760003560e01c80633ccfd60b146100675780636ce27b8e146100715780637e88f6031461007b578063d0e30db014610085578063f5ff5c761461008f578063fc735e99146100ad575b600080fd5b61006f6100b7565b005b6100796100b9565b005b6100836100bb565b005b61008d6100bd565b005b6100976100bf565b6040516100a49190610126565b60405180910390f35b6100b56100e3565b005b565b565b565b565b60008054906101000a900473ffffffffffffffffffffffffffffffffffffffff1681565b565b600073ffffffffffffffffffffffffffffffffffffffff82169050919050565b6000610110826100e5565b9050919050565b61012081610105565b82525050565b600060208201905061013b6000830184610117565b9291505056fea26469706673582212201546793d5b49502004b6840e62ebfbb45a68ceaab670343b7ddabf5ee177cefd64736f6c63430008090033",
			"opcodes": "PUSH1 0x80 PUSH1 0x40 MSTORE CALLVALUE DUP1 ISZERO PUSH2 0x10 JUMPI PUSH1 0x0 DUP1 REVERT JUMPDEST POP CALLER PUSH1 0x0 DUP1 PUSH2 0x100 EXP DUP2 SLOAD DUP2 PUSH20 0xFFFFFFFFFFFFFFFFFFFFFFFFFFFFFFFFFFFFFFFF MUL NOT AND SWAP1 DUP4 PUSH20 0xFFFFFFFFFFFFFFFFFFFFFFFFFFFFFFFFFFFFFFFF AND MUL OR SWAP1 SSTORE POP PUSH2 0x177 DUP1 PUSH2 0x60 PUSH1 0x0 CODECOPY PUSH1 0x0 RETURN INVALID PUSH1 0x80 PUSH1 0x40 MSTORE CALLVALUE DUP1 ISZERO PUSH2 0x10 JUMPI PUSH1 0x0 DUP1 REVERT JUMPDEST POP PUSH1 0x4 CALLDATASIZE LT PUSH2 0x62 JUMPI PUSH1 0x0 CALLDATALOAD PUSH1 0xE0 SHR DUP1 PUSH4 0x3CCFD60B EQ PUSH2 0x67 JUMPI DUP1 PUSH4 0x6CE27B8E EQ PUSH2 0x71 JUMPI DUP1 PUSH4 0x7E88F603 EQ PUSH2 0x7B JUMPI DUP1 PUSH4 0xD0E30DB0 EQ PUSH2 0x85 JUMPI DUP1 PUSH4 0xF5FF5C76 EQ PUSH2 0x8F JUMPI DUP1 PUSH4 0xFC735E99 EQ PUSH2 0xAD JUMPI JUMPDEST PUSH1 0x0 DUP1 REVERT JUMPDEST PUSH2 0x6F PUSH2 0xB7 JUMP JUMPDEST STOP JUMPDEST PUSH2 0x79 PUSH2 0xB9 JUMP JUMPDEST STOP JUMPDEST PUSH2 0x83 PUSH2 0xBB JUMP JUMPDEST STOP JUMPDEST PUSH2 0x8D PUSH2 0xBD JUMP JUMPDEST STOP JUMPDEST PUSH2 0x97 PUSH2 0xBF JUMP JUMPDEST PUSH1 0x40 MLOAD PUSH2 0xA4 SWAP2 SWAP1 PUSH2 0x126 JUMP JUMPDEST PUSH1 0x40 MLOAD DUP1 SWAP2 SUB SWAP1 RETURN JUMPDEST PUSH2 0xB5 PUSH2 0xE3 JUMP JUMPDEST STOP JUMPDEST JUMP JUMPDEST JUMP JUMPDEST JUMP JUMPDEST JUMP JUMPDEST PUSH1 0x0 DUP1 SLOAD SWAP1 PUSH2 0x100 EXP SWAP1 DIV PUSH20 0xFFFFFFFFFFFFFFFFFFFFFFFFFFFFFFFFFFFFFFFF AND DUP2 JUMP JUMPDEST JUMP JUMPDEST PUSH1 0x0 PUSH20 0xFFFFFFFFFFFFFFFFFFFFFFFFFFFFFFFFFFFFFFFF DUP3 AND SWAP1 POP SWAP2 SWAP1 POP JUMP JUMPDEST PUSH1 0x0 PUSH2 0x110 DUP3 PUSH2 0xE5 JUMP JUMPDEST SWAP1 POP SWAP2 SWAP1 POP JUMP JUMPDEST PUSH2 0x120 DUP2 PUSH2 0x105 JUMP JUMPDEST DUP3 MSTORE POP POP JUMP JUMPDEST PUSH1 0x0 PUSH1 0x20 DUP3 ADD SWAP1 POP PUSH2 0x13B PUSH1 0x0 DUP4 ADD DUP5 PUSH2 0x117 JUMP JUMPDEST SWAP3 SWAP2 POP POP JUMP INVALID LOG2 PUSH5 0x6970667358 0x22 SLT KECCAK256 ISZERO CHAINID PUSH26 0x3D5B49502004B6840E62EBFBB45A68CEAAB670343B7DDABF5EE1 PUSH24 0xCEFD64736F6C634300080900330000000000000000000000 "
		},
		"gasEstimates": {
			"creation": {
				"codeDepositCost": "75000",
				"executionCost": "24389",
				"totalCost": "99389"
			},
			"external": {
				"agent()": "2577",
				"deposit()": "188",
				"initEscrow()": "144",
				"returnDeposit()": "166",
				"verify()": "232",
				"withdraw()": "122"
			}
		},
		"methodIdentifiers": {
			"agent()": "f5ff5c76",
			"deposit()": "d0e30db0",
			"initEscrow()": "6ce27b8e",
			"returnDeposit()": "7e88f603",
			"verify()": "fc735e99",
			"withdraw()": "3ccfd60b"
		}
	},
	"abi": [
		{
			"inputs": [],
			"stateMutability": "nonpayable",
			"type": "constructor"
		},
		{
			"inputs": [],
			"name": "agent",
			"outputs": [
				{
					"internalType": "address",
					"name": "",
					"type": "address"
				}
			],
			"stateMutability": "view",
			"type": "function"
		},
		{
			"inputs": [],
			"name": "deposit",
			"outputs": [],
			"stateMutability": "nonpayable",
			"type": "function"
		},
		{
			"inputs": [],
			"name": "initEscrow",
			"outputs": [],
			"stateMutability": "nonpayable",
			"type": "function"
		},
		{
			"inputs": [],
			"name": "returnDeposit",
			"outputs": [],
			"stateMutability": "nonpayable",
			"type": "function"
		},
		{
			"inputs": [],
			"name": "verify",
			"outputs": [],
			"stateMutability": "nonpayable",
			"type": "function"
		},
		{
			"inputs": [],
			"name": "withdraw",
			"outputs": [],
			"stateMutability": "nonpayable",
			"type": "function"
		}
	]
}